:020000040000FA
:1000000080315B28053008007E1480312E00161CDC
:100010000A280B2813280C1C0E280F2813288A31B5
:10002000642280315928961E162817281F288C1EF6
:100030001A281B281F288B316C23803159280B1F4D
:10004000222823285928991C2628272832288F1C43
:100050002A282B28322821004E088A004D080A0041
:1000600080315928191C3528362841280F1C392879
:100070003A28412821004C088A004B080A008031A8
:1000800059281A1C442845284D28101C482849285E
:100090004D288C316524803159289A1C50285128CC
:1000A0005928901C5428552859288B317B2380319E
:1000B00059287E10090080315D28EB3084008A3099
:1000C0008500613086000030870009308A31702257
:1000D0008031FD014B3084000030850016308A31BC
:1000E0006A228031A03084000030850034308A31AB
:1000F0006A2280317E10200080317E288D312D25AE
:100100008031AC302000A3000C30A4008A31D02212
:10011000803146302000A3000F30A4008A31D9225C
:100120008031EC302000A3000D30A4008A31BE22C3
:1001300080311F302000A3000B30A4008A31E2225E
:10014000803196302000C6004608E900DF01E0015A
:10015000D301D30AD401D101D201CF01D0012100B2
:10016000BD01BE012000D7018B312B23803120003F
:10017000931513163E00CF154F168231DF228031C2
:1001800000302000A900AA008C31C5248031200055
:10019000D5013E0044168B170B17630000002E009C
:1001A0001A1020005908C60046082100E0002E0061
:1001B0001A142000680821006002031CE028E128CE
:1001C000F4292E001A102000D9012E001A14200044
:1001D0005608031DEC28ED28D8298C31DE24803107
:1001E000200026082100C000200025082100BF00B3
:1001F00040082000C70021003F082000C600470833
:10020000C600C7014608D1004708D2005208A40022
:100210005108A3008C31F824803100000000200038
:100220006908C6004608A7006008C7004708A8007C
:10023000A9010330C8004808AA005F088F317A2757
:10024000803120005406031D2629272945296908E5
:10025000C6004608A7006008C7004708A800A90113
:100260000430C8004808AA005F088F317A2780311F
:100270002000C900CA0152084A06031D412951083D
:1002800049060319442945297D295E08C600460808
:10029000A3005D08C7004708A4005C08C800480820
:1002A000A5005408C9004908A6005108CA004A0818
:1002B000A700CF308E31E426803120006908C600C7
:1002C0004608AD006030C7004708AE00CF30C80018
:1002D0004808AF005F308F31B9278031F9302000F6
:1002E000A900F030AA005F08C6004608AB008D31B7
:1002F000C82580318B31A92380312100E201E20A37
:1003000000302000520203300319510203188929DA
:100310008A2992296530540203188F29902992293D
:100320002100E2012100620820005305C600C70138
:100330004608CF004708D0004F0850040319A129F0
:10034000A229C82902305506031DA729A829B829C2
:1003500001302100BD070030BE3D3E082000AA004C
:1003600021003D082000A9008C31C5248031E429FA
:100370005508031DBC29BD29D7292E0096168A31A0
:100380002822803102302000C6004608D500E4292A
:1003900002305506031DCD29CE29E4290030A900DD
:1003A000AA008C31C52480312000D501E429E4293C
:1003B0005603031DDC29DD29E4292E0016108331A4
:1003C000772380312E00161404302000C6003D3003
:1003D000890BE829C60BE8290032023020005506B7
:1003E0000319F329F429E7282E001A1020005808D1
:1003F000C60046082100E1002E001A142100610801
:100400000319032A042ACD288E3161268031CD2894
:1004100080315B282000BC01BD01BE01CB2A2E002B
:100420001A10742A0A30A3000030A4005E08B80035
:10043000B9013808A5003908A6008331FE238231AE
:1004400020002408B3002308B200023085316D2556
:100450008231882A0A30A3000030A4005E08B80068
:10046000B9013808A5003908A6008531C1258231B7
:1004700020002408B3002308B2008D3112258231F8
:1004800085316D258231882A0A30A3000030A4000E
:100490005D08B800B9013808A5003908A600833105
:1004A000FE23823120002408B3002308B200053067
:1004B00085316D258231882A0A30A3000030A400DE
:1004C0005E08B800B9013808A5003908A6008531D2
:1004D000C125823120002408B3002308B20009306E
:1004E00085316D258231882A20006408003A03197D
:1004F0007A2A882A6308013A0319122A033A03194F
:100500002A2A013A0319442A073A03195C2A882A3D
:100510002E001A10DE2A0130CB000030CC00003053
:10052000CD000030CE005308B800B9013808B20041
:100530003908B300013085316D2582312000BA00C1
:100540003A08D300DE2A0530CB000030CC00003062
:10055000CD000030CE00DE2A0030CB000030CC00D1
:100560000030CD000030CE00DE2A6408003A0319C6
:10057000BA2ADE2A6308013A0319A32A033A0319A7
:10058000AC2ADE2A0330CB000030CC000030CD0096
:100590000030CE00DE2A6208003A0319D02ADE2A93
:1005A0006108013A03190F2A033A03198B2A013A09
:1005B0000319B52A073A0319C22ADE2A0800F530C2
:1005C0002000A300F030A4008B318A238231AB3AA3
:1005D000031DEB2AEC2A402B8D31A8258231200007
:1005E000AF00FF30A300F030A4008B318A238231AA
:1005F00020002F06031DFD2AFE2A402BF630A30003
:10060000F030A4008B318A2382312000AF002F0804
:10061000DE00F730A300F030A4008B318A23823152
:100620002000AF002F08DD00F830A300F030A40058
:100630008B318A2382312000AF002F08E900F93086
:10064000A300F030A4008B318A2382312000AF0058
:100650002F08DF00FA30A300F030A4008B318A238A
:1006600082312000AF002F08E800FB30A300F030FB
:10067000A4008B318A2382312000AF002F08E700CD
:100680008731E4278231F5302000A900F030AA003C
:10069000AB30AF002F08AB008D31C8258231F83068
:1006A0002000A900F030AA006908AF002F08AB00B5
:1006B0008D31C8258231FA302000A900F030AA001F
:1006C0006808AF002F08AB008D31C8258231FB30A0
:1006D0002000A900F030AA006708AF002F08AB0087
:1006E0008D31C82582318B31A92382310800200049
:1006F000C401C5017D08C3004308DB007D08C300B9
:100700004308DA00610A031D892B620A031D892B45
:100710008A2B932B44084504031D8F2B902B932B7E
:1007200084315E24833120000D1A972B982BCE2B19
:100730008431B9248331003A03199F2BA02BCE2B8F
:1007400001302000C4070030C53DBB2B8A31FE229A
:100750008331CE2B8A31F4228331CE2B8B31092386
:100760008331CE2B8B3114238331CE2BC401C501B1
:10077000D601D501CE2B4508003A0319C02BB62B64
:100780004408013A0319A62B033A0319AA2B013A8C
:100790000319AE2B073A0319B22BB62B20008E1A81
:1007A000D22BD32BEB2B873104278331003A03194B
:1007B000DA2BDB2BEB2B20004508E2004408E1009C
:1007C0008D316825833186316926833120006208A6
:1007D000C5006108C400A630890BEC2B0032200054
:1007E00056030319F42BF52B822BFF30E100FF3069
:1007F000E200FF30E300FF30E40008002000A90120
:10080000A41F032C042C0B2CA309A409A30A03196D
:10081000A40AA901A90AA61F0E2C0F2C182CA509A1
:10082000A609A50A0319A60A0130A7002708A906E8
:10083000AA01AB012308240403191F2C202C4F2CE0
:10084000A801A80A2C2C0130A335A40D890B242C57
:100850000130A7002708A807A41F2F2C302C232C19
:100860000130AA35AB0D890B312C24082602031D5B
:100870003B2C23082502031C3E2C3F2C442C230830
:10088000A5022408A63B2A140130A436A30C890B28
:10089000452C0130A802031D4E2C4F2C302C29086A
:1008A0000319532C542C592CAA09AB09AA0A031971
:1008B000AB0A2B08A4002A08A30008002000961702
:1008C00021302000AD007630890B642CAD0B642CF8
:1008D00000002000961321302000AD007630890BF7
:1008E0006F2CAD0B6F2C0000FF302000A9000330EF
:1008F000AA008C31C524843121302000AD0076302F
:10090000890B802CAD0B802C000000302000A9004A
:10091000AA008C31C524843121302000AD0076300E
:10092000890B902CAD0B902C0000200096162130E6
:100930002000AD007630890B9B2CAD0B9B2C00006A
:100940002000961221302000AD007630890BA62CB5
:10095000AD0BA62C00002000161621302000AD00A3
:100960007630890BB12CAD0BB12C00002000161293
:1009700008002E001A107D082000A300A4012408FE
:10098000A6005B082302A500031CA603A61FC92C12
:10099000CA2CF02C7D08A300A4012408A6005B0843
:1009A0002302A500031CA6032508C83EA7000030AB
:1009B000263DA8002808803AA90080302902031D9E
:1009C000E32C10302702031CE62CE72CF02C7D08CA
:1009D0002000A3002308DB002E001A140130122D82
:1009E0007D082000A300A4012408A6005B082302C0
:1009F000A500031CA6032608803AA7008030270222
:100A0000031D042D0F3025020318072D082D0A2D74
:100A10000030122D7D082000A3002308DB002E00EB
:100A20001A14013008002E001A107D08F000F101A0
:100A30007108F30020005B087002F200031CF3034E
:100A4000F31F232D242D4A2D7D08F000F10171089C
:100A5000F3005B087002F200031CF3037208C83E47
:100A6000F4000030733DF5007508803AF6008030E0
:100A70007602031D3D2D10307402031C402D412DC4
:100A80004A2D7D08F00070082000DB002E001A14AB
:100A900001306C2D7D08F000F1017108F300200099
:100AA0005B087002F200031CF3037308803AF40041
:100AB00080307402031D5E2D0F3072020318612D09
:100AC000622D642D00306C2D7D08F0007008200030
:100AD000DB002E001A14013008002000B600B5011A
:100AE0003208B4003408B7000030A900AA008C31E5
:100AF000C524853120009601370836020318812D60
:100B0000822DBA2DB701BA2D37088631B726853127
:100B100020008E1A8C2D8D2DA62D8731042785312E
:100B2000003A0319942D952DA12D01302000B40019
:100B30003408B7073708360203189F2DA02DA12DC2
:100B4000B7017D082000B4003408DA000D1AA92D81
:100B5000AA2DBA2D8431B9248531003A0319B12D5B
:100B6000B22DB52D2000B501B50A7D082000B400D6
:100B70003408DB0035080319BE2DBF2D842D37083E
:100B800008002000A901A61FC62DC72DCE2DA5093E
:100B9000A609A50A0319A60AA901A90AA41FD12D0D
:100BA000D22DD72DA309A409A30A0319A40A230847
:100BB00024040319DC2DDD2D062EA801A80AE92D39
:100BC0000130A335A40D890BE12D0130A7002708C2
:100BD000A807A41FEC2DED2DE02D24082602031DEF
:100BE000F32D23082502031CF62DF72DFB2D2308DA
:100BF000A5022408A63B0130A436A30C890BFC2DCA
:100C00000130A802031D052E062EED2D290803191B
:100C10000A2E0B2E102EA509A609A50A0319A60A4D
:100C20002608A4002508A30008008A318422863102
:100C3000031C1B2E1C2E4C2E292E8A31412286315C
:100C4000682E8A3146228631682E8A3150228631BA
:100C5000682E21003A08FA007A08F9001130A03E07
:100C600086008701413F8A00403F0A008631FB0031
:100C7000FC017C08003A03193E2E252E7B08013A20
:100C80000319252E033A03191D2E013A0319212EAB
:100C9000073A0319252E252E2100A0110230A03E6F
:100CA00086008701403F84008501810A00088A315F
:100CB0003722863101302100A3020030A43B2308F3
:100CC0002404031D642E652E672E0630682E033023
:100CD000080001302000C1000030C2000D1A712E42
:100CE000722E7F2E8431B9248631003A0319792E71
:100CF0007A2E7F2E01302000C1070030C23D200037
:100D000041088E313726863120008E1A882E892E92
:100D10009C2E873104278631003A0319902E912E9C
:100D20009C2E20004208E4004108E30082310A22A0
:100D3000863184315E248631A630890B9D2E0032A7
:100D4000200062088500610884002030840790300C
:100D5000853D0008BF00C00142084002031DB22EBD
:100D600041083F020318B52EB62E6E2E0800200053
:100D7000B0003008AD002D08B10064303002031C13
:100D8000C22EC32EC42E032F3108AD000330AD3662
:100D9000890BC72E2D08AE00AE0CAE0C16082E0621
:100DA0007F392E0696003108AD000230AD36890B32
:100DB000D62E2D080139AE00AF012E08A3002F0852
:100DC000A400FF30A5000330A6008D3188258631B0
:100DD00020002408AA002308A9008C31C5248631EC
:100DE00020003136AD00AD0EAD0D16082D06DF39F1
:100DF0002D06960031080139AD00AD0E16082D06FE
:100E0000EF392D06960008007D082000A300A401FC
:100E10002408A6005A082302A500031CA603A61F47
:100E2000122F132F372F7D08A300A4012408A6003A
:100E30005A082302A500031CA6032508C83EA700E4
:100E40000030263DA8002808803AA90080302902F9
:100E5000031D2C2F10302702031C2F2F302F372F6C
:100E60007D082000A3002308DA000130502F7D0800
:100E70002000A300A4012408A6005A082302A5000C
:100E8000031CA6032608803AA70080302702031D12
:100E90004B2F0F30250203184E2F4F2F302F0030CD
:100EA00008008A311C228731FA00210022088600BE
:100EB00087017A0881000130FA007A08A207013020
:100EC000A3020030A43B230824040319682F692FD0
:100ED0006E2F8A312B22873105309A2F2015782FDB
:100EE0008A315F2287319A2F8A315A2287319A2F8D
:100EF0003708FA007A08F9000B30A03E8600870117
:100F0000413F8A00403F0A008731FB00FC017C081A
:100F1000003A03198C2F742F7B08013A0319742FA0
:100F2000033A0319702F013A0319702F073A031976
:100F3000742F742F080020009A01990196019701DF
:100F40009801073095000F309100FF309200FF307C
:100F50009300FF309400FF303E00D900C730CE0030
:100F6000EF30C3000730E400FF30B800DA01E501DC
:100F7000C401B901CF01E601BA01C501D001DB010D
:100F8000FF30BB00FF30C600FF30D100FF30DC0077
:100F90000730E700FF30BC00FF30C700FF30D20051
:100FA000FF30DD000730E8000C303D0090001330CA
:100FB000C50014303E00A3001530A4000E3096008A
:100FC00014303D00C6000800F5302000AD00F030C0
:100FD000AE002E08AA002D08A900AB018D31C8254E
:100FE000873101302000AD070030AE3DF1302E02D8
:100FF000003003192D02031CFE2FFF2FE92F0800DC
:10140E00080008000800080008000330080001303A
:10141E00080020009E1308002300911408002300EA
:10142E001115080023009115080023000C08080070
:10143E002E000F1408002E000F1008002E008F1023
:10144E00080020009E1708002300911211160800B4
:10145E0023009116111608008A3125228A310800C0
:10146E00F000700823008C00080021002010AA0153
:10147E000E3008008A3113228A31013008008A3179
:10148E0013228A31023008008A3113228A31013048
:10149E0008008A3116228A31003008008A312B2248
:1014AE008A31053008008A312F228A310A3008002D
:1014BE008A312F228A31093008002E000C108B3110
:1014CE0037238A310800640080010131890B6B2AB1
:1014DE000034FE0012001E00FE0B712A00342100A3
:1014EE00A0118A3119228A3104300800031021001C
:1014FE00131C03140030093D08002300110E890C43
:10150E00890C0139F000700C08008A310B228A31E7
:10151E0021002010AA010E3008002100A01521354F
:10152E008A3137228A31033008002000A3002308B5
:10153E0021009E009317131408002F0096019701A7
:10154E00980199019A019B0108002100A01503142E
:10155E00210D8A3137228A310530080021000D080D
:10156E002000A40021000C082000A3000800200089
:10157E0024082100DD00200023082100DC000800E3
:10158E00623031008D008F01910102309300920183
:10159E000800200024082100DB0020002308210081
:1015AE00DA000800200024082100D70020002308BC
:1015BE002100D6000800200024082100D5002000BC
:1015CE0023082100D4000800FF34FF34FF34FF3419
:1015DE0002346434033405341E3420009601FF3087
:1015EE00A9000330AA008C31C5248A3108002000DE
:1015FE0096010030A900AA008C31C5248A31200042
:10160E0096170800200096010030A900AA008C3120
:10161E00C5248B312000961608002000960100305C
:10162E00A900AA008C31C5248B31200016160800A3
:10163E000130F0007008FD07C9307D02031C282B15
:10164E00292B2A2BFD0108002300901A2F2B302B5B
:10165E00362B8F0128309000910103308D00080049
:10166E0021005C085D0403193D2B3E2B432B5D08C6
:10167E008A005C080A008B3108007608F1007508B4
:10168E00F0007708F8007808F20000308E3111264D
:10169E008B310800803027008E003E308D004030A8
:1016AE008C0024001F08F33904389F0008002E0018
:1016BE000C100B1407302000A3000A30A4008A314E
:1016CE00BE228B312E00161408002E008C12210023
:1016DE005A085B040319742B752B7A2B5B088A004E
:1016EE005A080A008B3108002E0090102100540871
:1016FE0055040319832B842B892B55088A00540813
:10170E000A008B3108002000240830009B002000C6
:10171E00230830009A001E171E140000000030002F
:10172E001C080800F3002100201D9E2B9F2BA82BC8
:10173E007308F2007208A2007108A4007008A300DA
:10174E0020110800FF302000A900F030AA008D31D2
:10175E00A8258B312000AD002D08AB008D31C8259A
:10176E008B31080024000E1DBD2BBE2BC52B0E1079
:10177E0071088D0070088C000E14C92B71088D0035
:10178E0070088C0008000230F0000030F10079087B
:10179E008B3199238B310030F500F600F7018B3138
:1017AE0044238B31043008000130F0000030F1008A
:1017BE0079088B3199238B310030F500F600F70153
:1017CE008B3144238B31043008000130F00000309F
:1017DE00F10079088B3199238B310030F500F6003A
:1017EE00F7018B3144238B31023008000230F000B8
:1017FE000030F10079088B3199238B310030F500E0
:10180E00F600F7018B3144238B31023008009630FD
:10181E0020009F0090309D009C012E008C12961689
:10182E0008302000A3000A30A4008A31D0228C3167
:10183E00093020009E0008007108F3007008F200C5
:10184E00F336F20CF336F20C720827008D00700896
:10185E000339F2000530F235FF3E031D322C72358E
:10186E008C00080022008E018F01900191019201DF
:10187E0093018D0121009E019B019401950196011A
:10188E0097019A0199019801843093009D010800F7
:10189E002000A600A501261C552C562C5A2C2308D8
:1018AE00A4002408A5070310A30D0310A60C2608F8
:1018BE00031D622C632C522C250808002E001010DC
:1018CE0021005908F1005808F0008B31B9238C31F2
:1018DE002100560857040319752C762C7B2C5708BB
:1018EE008A0056080A008C310800790886008701A4
:1018FE00403FF000413FF1007908023E860087012B
:10190E0001088B3199238C310030F500F600F70178
:10191E008B3144238C3102300800013025009000B9
:10192E0020308F0091019B308D008C012E00901085
:10193E009A140A302000A3000A30A4008A31E22251
:10194E008C31B13025008E00080020004F08500465
:10195E000319B22CB32CBF2CFF30F0000330F10072
:10196E008C3123248C310130F40074082000D50012
:10197E008A3110228C312E009612080020002A087F
:10198E00AC002908AB00AC36AB0CAC36AB0C2B085C
:10199E0027008D00200029080339AB000530AB3538
:1019AE00FF3E031DD62C2B3527008C00080000307F
:1019BE008A319C228C31E72C5330890BE42C0000A9
:1019CE008A317D228C31003A0319EE2CEF2CE32C58
:1019DE008A31B5228C3120002408A6002308A500E8
:1019EE000800200023080139A500A50E16082506BB
:1019FE00EF39250696002408A6002308A500A63672
:101A0E00A50C2508A700A70EA70D16082706DF3977
:101A1E002706960008000A302000A3000030A4001C
:101A2E005E08AC00AD012C08A5002D08A600833180
:101A3E00FE238D310230200023062404031D282DA1
:101A4E00292D2B2D03302C2D093008008A31A4228C
:101A5E008D3187319B278D318A31C7228D318B3164
:101A6E0051238D318C3139248D318C3194248D312B
:101A7E008D3149258D318B315E238D318C310E2484
:101A8E008D31080024008F01900104309100E13067
:101A9E008D00BA308C000D082100D90024000C08EE
:101AAE002100D8002E0010101A1409302000A300B7
:101ABE000A30A4008A31D9228D31153024008E00CF
:101ACE000800FF302000A9000330AA008C31C52485
:101ADE008D3120001616A3302000AD005530890B35
:101AEE00762DAD0B762D20009616A3302000AD007E
:101AFE005530890B802DAD0B802D200016129612BD
:101B0E0008002000A701A801231C8E2D8F2D932DD8
:101B1E002508A7072608A83D0130A535A60D890B77
:101B2E00942D0130A436A30C890B992D230824047F
:101B3E00031DA22DA32D8B2D2808A4002708A3007A
:101B4E0008002000A601F530A700F030A8002808F4
:101B5E00A4002708A3008B318A238D312000A50015
:101B6E002508A6070130A7070030A83DF03028024F
:101B7E00FF3003192702031CC52DC62DAE2D2608D6
:101B8E00080000308B1B01302000AC002A0830000A
:101B9E009B002000290830009A0020002B083000FE
:101BAE009C001E171E158B1355309F00AA309F00E8
:101BBE009E149E18E32DE42DE02D1E1120002C0CFA
:101BCE00031C8B1303188B170800853113258D31D9
:101BDE00003A0319F32DF42D102E20005503031D8A
:101BEE00F92DFA2D072ED5010030F000F1008C31C1
:101BFE0023248D317D08F70077082000DB00102E9E
:101C0E005608031D0B2E0C2E102E0130F7007708F0
:101C1E00D6000800F400700871040319172E182E50
:101C2E00292E7435AB3E860087017008C03F7108BF
:101C3E00C13F7208F3007408B73E8600870173082F
:101C4E008100362E7435AB3E860087010E30C03FC4
:101C5E000A30C13F7408B73E860087018101080033
:101C6E002000AF004A2E8A31FE228E31602E8A313C
:101C7E00F4228E31602E8B3109238E31602E8B3102
:101C8E0014238E31602E2F08AD00AE012E08003ABF
:101C9E000319522E602E2D08013A03193A2E033ADB
:101CAE0003193E2E013A0319422E073A0319462E06
:101CBE00602E08002E001A102000D8015E08AE001B
:101CCE002E08AF005D08AE002E08B0002E001A14CC
:101CDE00F6302000A900F030AA002F08AE002E0822
:101CEE00AB008D31C8258E31F7302000A900F030C1
:101CFE00AA003008AE002E08AB008D31C8258E31FB
:101D0E008B31A9238E3108002100A0110230FA0078
:101D1E007A08AA009A2E8A314B228E31B62E8A313B
:101D2E0050228E31B62E3908FA007A08F9000F309B
:101D3E00A03E86008701413F8A00403F0A008E3157
:101D4E00FB00FC017C08003A0319AE2E962E7B0890
:101D5E00023A0319922E013A0319922E962E08007A
:101D6E008A3122228E312100A01DBE2EBF2ECC2EF6
:101D7E008A3184228E31031CC52EC62ECC2E0F30F6
:101D8E002000A00020082100A90021002908200021
:101D9E00A000A101A035A10D0030200784009030D5
:101DAE00213D8500013F8A00003F0A008E31200050
:101DBE00A20022082100A90008002000A9002E0080
:101DCE001A1020002308A800290886008701280879
:101DDE0081002408A800290A8600870128088100AE
:101DEE002508A8002908023E8600870128088100E0
:101DFE002E001A1420002608A8002908033E86008B
:101E0E008701280881002708A8002908043E8600BB
:101E1E00870128088100080021002015232F8A3110
:101E2E004B228F31452F8A311F228F310330452FA0
:101E3E008A3150228F31452F3708FA007A08F9007F
:101E4E000B30A03E86008701413F8A00403F0A00CA
:101E5E008F31FB00FC017C08003A0319372F1F2F2E
:101E6E007B08013A03191F2F033A0319162F013A63
:101E7E000319162F073A03191A2F1F2F08002000D7
:101E8E005608031D4B2F4C2F572F0310961F03146C
:101E9E000318522F552F20009617572F20009613F8
:101EAE000130F0007008D9070130F0007008DC072F
:101EBE003C305C02031C642F652F792F0130F0003B
:101ECE007008DD070130F0007008D807DC013C30E7
:101EDE005D02031C732F742F792F0130F0007008F0
:101EEE00DE07DD0108002000AE0029082702031CD2
:101EFE00812F822FAC2F28080319862F872FAC2F06
:101F0E000530AB002B08A30029088C314F248F31EC
:101F1E0020002A07AC002C08AF002F082E02031C4D
:101F2E00992F9A2FA12F2E082F07FB3EAB002B08BF
:101F3E00AD00AE2F2E03FF3AAB002F082B02270762
:101F4E00053EAC002C08AD00AE2F0030B82F2D088A
:101F5E00003EA300F0300318F130A4008B318A2329
:101F6E008F3108002000B3002E088600870101087B
:101F7E00031DC22FC32FC82F2E0886008701810193
:101F8E00810AB2013308860087012D080102031C65
:101F9E00D12FD22FD62F3308860087018101330827
:101FAE00860087010108003EA900F0300318F130C9
:101FBE00AA0032082F07B0003008860087010108FA
:101FCE00B1003108AB008D31C8258F3101302000B2
:101FDE00B000330886008701300881070130B00059
:101FEE003008B20705303202031CFE2FFF2FC92F17
:101FFE0008003C340A34AC340A3494340A341534B0
:10200E0006345134073476340A3413340F344134E1
:10201E000A3446340A344B340A3450340A345534B4
:10202E000A345A340A345F340A348C340A348B340A
:0C203E000E340034043401340234013448
:020000040001F9
:0A000E00EC3FFF3F8E0FFF3FFF3F66
:00000001FF
