:020000040000FA
:0400000080312528FE
:100008007E1480312E00161C0A280B2813280C1C7D
:100018000E280F28132882311622803123280B1F1F
:100028001628172823281A1C1A281B282328101CCE
:100038001E281F28232881314F21803123287E1034
:1000480009008031272882311C228031FA00823150
:100058001D228031FB00F701F801F901A601A70173
:10006800A801A9017E10200080313A28813133216E
:100078008031D130F2000030F30082310422803127
:100088002030F2000230F30082310A2280318B17CF
:100098000B176300000000308131F62180315828A9
:1000A8005330890B552800008131FD218031003AF9
:1000B80003195F2860285428823110228031730880
:1000C8002000A7007208A6002708FB002608FA00EF
:1000D8002708F3002608F20081311621803100300C
:1000E8007B02323003197A0203187B287C287E2889
:1000F800FA01FB017B08F3007A08F20081317C21C8
:10010800803100307B02023003197A0203188D28EF
:100118008E284F284D288031252820009A019901E2
:10012800960197019801073095000F309100FF3034
:100138009200FF309300FF309400FF303E00D9005A
:10014800FF30CE00EF30C3000730E400FF30B800C6
:10015800DA01E501C401B901CF01E601BA01C5011F
:10016800D001DB01FF30BB00FF30C600FF30D100FB
:10017800FF30DC000730E700FF30BC00FF30C7006D
:10018800FF30D200FF30DD000730E8000C303D00C2
:1001980090000E303E009600080003102000961FC5
:1001A80003140318D828DB2820009617DD28200020
:1001B80096130130F0007008F7073C307702031CF3
:1001C800E628E728F7280130F0007008F807F7015B
:1001D8003C307802031CF128F228F7280130F0009F
:1001E8007008F907F801080024008F019001043015
:1001F8009100E1308D00BA308C000D082000A50078
:1002080024000C082000A4002E0010101A141E3020
:10021800F2000230F30082310422803125302400BC
:100228008E00080073080139F400F40E2000160847
:100238007406EF39740696007308F5007208F40026
:100248007508F400F501F536F40C7408F600F60E9E
:10025800F60D16087606DF39760696000800813115
:10026800EE2181318031912081318131E521813147
:100278008131B22181318131662181318131A321DE
:1002880081318031F82081318131BF218131813143
:10029800D921813108002E00101020002508F10016
:1002A8002408F000813192218131200022082304A2
:1002B80003195F296029652923088A0022080A0092
:1002C8008131080022008E018F0190019101920175
:1002D80093018D0121009E019B01940195019601D6
:1002E80097019A0199019801843093009D010800B3
:1002F8007308F5007208F400F536F40CF536F40CC2
:10030800740827008D0072080339F4000530F435AD
:10031800FF3E031D8B2974358C00080024000E1D38
:10032800962997299E290E1071088D0070088C0057
:100338000E14A22971088D0070088C000800013085
:100348002500900020308F009101FF308D008C0136
:100358002E009010803025008E0008008030270085
:100368008E003F308D00C0308C0024001F08F33908
:1003780004389F0008002E000C100B141F30F200E8
:100388000230F30082310A2281312E00161408004F
:100398002000200821040319D229D329D8292108AB
:1003A8008A0020080A0081310800933020009F004D
:1003B800F1309D009C012E008C120F3020009E0011
:1003C8000800623031008D008F01910102309300E6
:1003D800920108002F0096019701980199019A014E
:1003E8009B010800F200720821009E009317131465
:1003F800080003102100131C03140030093D0800F5
:1004080073082000A3007208A200080073082000E7
:10041800A1007208A000080021000D08F3000C08D4
:10042800F20008002E000C108131CC218231080026
:0A0438001934003408000800080021
:020000040001F9
:0A000E00EC3FFF3F8E0FFF3FFF3F66
:00000001FF
