:020000040000FA
:0400000080312528FE
:100008007E1480312E00161C0A280B2813280C1C7D
:100018000E280F28132882313822803123280B1FFD
:100028001628172823281A1C1A281B282328101CCE
:100038001E281F28232881319E21803123287E10E5
:1000480009008031272882313E228031B200823176
:100058003F228031B300F901FA01A001A101A201F8
:10006800A301A401A501A601A7017E1020008031EB
:100078003D28813121218031FA30F2000030F3002F
:100088008231262280314230F2000230F300823180
:100098002C2280318B170B1763000000003082314F
:1000A800182280315B285330890B58280000823190
:1000B8001F228031003A03196228632857288231A9
:1000C8003222803173082000A3007208A20023089E
:1000D800A9002208A8002908A800A9012808A0004A
:1000E8002908A1002108F3002008F20081315821D5
:1000F8008031003020002102033003192002031848
:1001080086288828013089280030A800A9012808F5
:10011800AC002908AD002608031D93289428A628BA
:100128002C082D04031999289A28A6280130B2070B
:100138000030B33D3308F3003208F20081318821E2
:10014800803152282608031DAA28AB2852282C08DB
:100158002D04031DB028B12852280030F200F30006
:1001680081318821803152288031252820009A0148
:100178009901960197019801073095000F30910079
:10018800FF309200FF309300FF309400FF303E00B4
:10019800D900FF30CE00EF30C3000730E400FF3055
:1001A800B800DA01E501C401B901CF01E601BA01DD
:1001B800C501D001DB01FF30BB00FF30C600FF30B6
:1001C800D100FF30DC000730E700FF30BC00FF3013
:1001D800C700FF30D200FF30DD000730E8000C30E8
:1001E8003D0090000E303E009600080003102000ED
:1001F800961F0314031801290429200096170629BD
:10020800200096130130F0007008A7073C30270241
:10021800031C0F29102920290130F0007008F90764
:10022800A7013C307902031C1A291B292029013017
:10023800F0007008FA07F9010800823110228131B4
:100248008031BA2081318231072281318131D42134
:1002580081318131722181318131C52181318131F1
:100268003D2181318131E12181318131FB21813190
:10027800080024008F01900104309100E1308D00C6
:10028800BA308C000D08F8000C08F7002E0010108A
:100298001A144030F2000230F300823126228131F4
:1002A800253024008E00080072080139F400F40E8D
:1002B800200016087406EF39740696007308F500D6
:1002C8007208F400F536F40C7408F600F60EF60D14
:1002D80016087606DF3976069600080022008E0199
:1002E8008F0190019101920193018D0121009E01DE
:1002F8009B0194019501960197019A019901980132
:10030800843093009D0108007308F5007208F4001A
:10031800F536F40CF536F40C740827008D007208D5
:100328000339F4000530F435FF3E031D9729743571
:100338008C0008002E0010107808F1007708F000F3
:100348008131B42181312000300831040319AD29ED
:10035800AE29B32931088A0030080A008131080023
:1003680024000E1DB829B929C0290E1071088D0066
:1003780070088C000E14C42971088D0070088C0058
:10038800080001302500900020308F009101FF30D7
:100398008D008C012E009010803025008E00080002
:1003A800803027008E003F308D00C0308C00240044
:1003B8001F08F33904389F0008002E000C100B1496
:1003C8004130F2000230F30082312C2281312E00BC
:1003D8001614080020002E082F040319F429F52903
:1003E800FA292F088A002E080A0081310800933064
:1003F80020009F00F1309D009C012E008C120F30D0
:1004080020009E000800623031008D008F019101AC
:1004180002309300920108002F009601970198017D
:1004280099019A019B010800F200720821009E00C0
:1004380093171314080003102100131C0314003031
:10044800093D080073082000B1007208B0000800D8
:1004580073082000AF007208AE00080021000D08E4
:10046800F3000C08F20008002E000C108131EE2178
:0E04780082310800013400340800080008003A
:020000040001F9
:0A000E00EC3FFF3F8E0FFF3FFF3F66
:00000001FF
