:020000040000FA
<<<<<<< HEAD
:0400000080313628ED
:100008007E1480310B1F09280A2834282E00991CD9
:100018000E280F2819288F1C1228132819287C0845
:100028008A007B080A0080313428191C1C281D28E6
:1000380028280F1C202821282828200043088A0067
:1000480042080A00803134281A1C2B282C2834280E
:10005800101C2F2830283428843167248031342814
:100068007E10090080313828FD01F701F801F901F7
:10007800FA01FB01FC01203084000030850030309B
:100088008531642580317E10200080314B28200086
:10009800CF01CE01CD01CC01CB017D119630DC0022
:1000A8005C08CA00C901FD100530DC005C08C80006
:1000B8007D14C701C601F530D000F030D10084317D
:1000C800F5248031AB3A031D6A286B289E288331BA
:1000D800C92380312000DC00FF30D000F030D1008F
:1000E8008431F524803120005C06031D7C287D289E
:1000F8009E28F630D000F030D1008431F5248031CC
:100108002000DC005C08CF00F730D000F030D100D0
:100118008431F52480312000DC005C08CE00F83002
:10012800D000F030D1008431F52480312000DC008B
:100138005C08C9008331E9238031F5302000D600FE
:10014800F030D700AB30DC005C08D8008331612385
:10015800803152302000DD002B30DC000030890B6C
:10016800B328DC0BB328DD0BB3280000853112253A
:1001780080318B170B173A302000D0000430D100A3
:1001880085316A25803185311F25803120009315FE
:1001980013163E00CF154F165B2920004808031997
:1001A800D628D7282E298B1348084C02031CDD2893
:1001B800DE282D29CC018B17000001302000DC003F
:1001C8005C08C707000003302000DC005C08D4008E
:1001D800003082314422803120004706031DF52873
:1001E800F62804290430DC005C08D4000030823191
:1001F80044228031200046060319032904292E29A8
:100208008B134F08DC005C08BD004E08DC005C085E
:10021800BE004D08DC005C08BF008B174708DC00F7
:100228005C08C0004608DC005C08C1008231B522C9
:100238008031F8302000D600F030D7004908DC00C3
:100248005C08D8008331612380318431D524803122
:100258002E298B178B1320004B08031934293529B5
:100268005A29CB014F08DC005C08C5004E08DC00A9
:100278005C08C4008B17F630D600F030D70045086C
:10028800DC005C08D800833161238031F73020001E
:10029800D600F030D7004408DC005C08D800833171
:1002A800612380318431D52480315B298B177D18F7
:1002B8005E295F29D128803136288531552581313D
:1002C800031C672968299829752985318E2581316C
:1002D800B429853189258131B42985317F2581313A
:1002E800B42920003A08F1007108F6001130203EC8
:1002F80086008701413F8A00403F0A008131F200B1
:10030800F3017308003A03198A2971297208013A1E
:1003180003197129033A03196929013A03196D2947
:10032800073A0319712971292000A0110230203ED3
:1003380086008701403F84008501810A00088531D5
:100348009825813101302000A3020030A43B230806
:100358002404031DB029B129B3290630B429033078
:1003680008008531B2258131F0002000220886007E
:100378008701700881000130F0007008A207013081
:10038800A3020030A43B230824040319CC29CD2957
:10039800D2298531A52581310530FE292015DC2992
:1003A800853170258131FE29853175258131FE29F8
:1003B8003708F0007008F6000B30203E86008701F1
:1003C800413F8A00403F0A008131F100F201720882
:1003D800003A0319F029D8297108013A0319D829D4
:1003E800033A0319D429013A0319D429073A0319FE
:1003F800D829D829080020009A0199019601970167
:100408009801073095006F309100FF309200FF305F
:100418009300FF309400FF303E00D900E730CE0053
:10042800FF30C3000730E400FF30B800DA01E5010F
:10043800C401B901CF01E601BA01C501D001DB0150
:10044800FF30BB00FF30C600FF30D100FF30DC00BA
:100458000730E700FF30BC00FF30C700FF30D20094
:10046800FF30DD000730E80013303D00C5001430D0
:100478003E00A3001530A40014303D00C60008005B
:100488002000D80058084A02031C4B2A4C2A752A17
:10049800FD1C4F2A502A752A0530D5005508D00072
:1004A800580884315124823120005407D600560858
:1004B800D90059084902031C622A632A6A2A490892
:1004C8005907FB3ED5005508D700772A4903FF3A5C
:1004D800D500590855024A07053ED6005608D700E8
:1004E800772A0030812A5708003ED000F0300318E0
:1004F800F130D1008431F524823108002000201524
:10050800922A853184258231B42A8531AF258231FA
:100518000330B42A85317F258231B42A3708F000A8
:100528007008F6000B30203E86008701413F8A00A4
:10053800403F0A008231F100F2017208003A0319C3
:10054800A62A8E2A7108013A03198E2A033A03193A
:10055800852A013A0319852A073A0319892A8E2A16
:100568000800FD18B82AB92ABA2AFD142000DB01B0
:100578004A084902031CC12AC22AC32AC9014908D8
:10058800003ED600F0300318F130D7005B083D3E3E
:10059800860087010108DA005A08D80083316123F0
:1005A800823101302000DA005A08C9070130DA0028
:1005B8005A08DB0705305B02031CE32AE42ABC2A3D
:1005C80008002000A0110230F0007008AA00F42AE8
:1005D800853184258231102B85317F258231102B7E
:1005E8003908F0007008F6000F30203E86008701B9
:1005F800413F8A00403F0A008331F100F20172084E
:10060800003A0319082BF02A7108023A0319EC2A58
:10061800013A0319EC2AF02A08008531AC25833108
:100628002000A01D182B192B252B8531552583312A
:10063800031C1F2B202B252B0F30F40074082000DF
:10064800A90020002908F400F501F435F50DA930BA
:10065800740784008330753D8500013F8A00003FA0
:100668000A008331F60076082000A9000800F4008B
:10067800700871040319412B422B532B74352B3E00
:10068800860087017008C03F7108C13F7208F300F7
:100698007408373E8600870173088100602B743523
:1006A8002B3E86008701C230C03F0530C13F740829
:1006B800373E860087018101080000308B1B01301E
:1006C8002000D900570830009B0020005608300051
:1006D8009A002000580830009C001E171E158B1326
:1006E80055309F00AA309F009E149E187C2B7D2BAE
:1006F800792B1E112000590C031C8B1303188B1720
:1007080008000130F00070082000CD070130F0002B
:100718007008CC073C304D02031C932B942BA82B5C
:100728000130F0007008CE070130F0007008CB07E8
:10073800CD013C304E02031CA22BA32BA82B013069
:10074800F0007008CF07CE01080093340534343424
:1007580005344534053461340134B53401345D342D
:100768000534823402348E340534893405348434B3
:1007780005347F3405347A340534753405347034DF
:1007880005344D340534E53402342000D301F53006
:10079800D400F030D5005508D1005408D000843179
:1007A800F52483312000D2005208D3070130D40742
:1007B8000030D53DF0305502FF3003195402031CB8
:1007C800E62BE72BCF2B53080800F5302000DA0082
:1007D800F030DB005B08D7005A08D600D801833117
:1007E8006123833101302000DA070030DB3DF1302E
:1007F8005B02003003195A02031C032C042CEE2B55
:10080800080024008F01900104309100C3308D004E
:1008180074308C000D08FA000C08F9002E00101036
:100828001A14C5302000D0000530D10085316A2562
:100838008431053024008E00080076088600870180
:10084800403FF000413FF1007608023E86008701F4
:1008580001088431E524843100302000D000D10023
:10086800D2018531042584310230080003102000AC
:10087800961F03140318412C442C20009617462C6D
:1008880020009613FD19492C4A2C4F2C83318523BF
:100898008431FD15502CFD1108002000D300D20131
:1008A800531C572C582C5C2C5008D1005108D207E7
:1008B8000310D00D0310D30C5308031D642C652CB2
:1008C800542C520808002E0010107A08F1007908FC
:1008D800F0008431C4248431770878040319752C16
:1008E800762C7B2C78088A0077080A008431080067
:1008F8000230F0000030F10076088431E5248431BC
:1009080000302000D000D100D20185310425843187
:10091800023008000130F0000030F1007608843120
:10092800E524843100302000D000D100D201853187
:1009380004258431023008000130F0000030F10055
:1009480076088431E524843100302000D000D100BD
:10095800D201853104258431043008000230F000CA
:100968000030F10076088431E5248431003020001D
:10097800D000D100D201853104258431043008002B
:1009880024000E1DC82CC92CD02C0E1071088D0007
:1009980070088C000E14D42C71088D0070088C001F
:1009A8000800FF302000D600F030D7008331C9237B
:1009B80084312000DA005A08D80083316123843159
:1009C8000800F3002000201DEA2CEB2CF42C7308FF
:1009D800F2007208A2007108A4007008A300201198
:1009E80008002000510830009B002000500830000B
:1009F8009A001E171E140000000030001C08080092
:100A080020005108F1005008F0005208F500750860
:100A1800F200003083313B238531080085313D25C4
:100A280085318131FF21853185312B25853184310F
:100A38000524853108002300901A232D242D2A2D02
:100A48008F0128309000910109308D000800603036
:100A580031008D008F01910102309300920108004E
:100A68002000A0150314210D853198258531053006
:100A780008002F0096019701980199019A019B019E
:100A880008002000A01521358531982585310330CF
:100A980008008531C425853120002010AA010E30B8
:100AA80008002300110E890C890C0139F000700C24
:100AB80008002000A0118531B525853104300800D3
:100AC800640080010131890B652D00342000510834
:100AD800F8005008F70008008531A1258531093054
:100AE80008008531A12585310A3008008531A52502
:100AF8008531053008008531B8258531003008007A
:100B08008531BB258531013008008531BB2585310C
:100B1800023008008531BB258531013008002000EE
:100B28002010AA010E300800F000700823008C0085
:100B380008008531A9258531080023009116111672
:100B4800080023009112111608002E008F100800CB
:100B58002E000F1008002E000F14080023000C08A8
:100B68000800230091150800230011150800230030
:100B7800911408000330080005300800013008000F
:040B88000800080059
:020000040001F9
:0A000E00EC3FFF3F8E0FFF3FFF3F66
=======
:0400000080313728EC
:100008007E1480310B1F09280A2835282E00991CD8
:100018000E280F281A288F1C122813281A282000A7
:1000280032088A0031080A0080313528191C1D2839
:100038001E2829280F1C21282228292820003008BA
:100048008A002F080A00803135281A1C2C282D28F0
:100058003528101C30283128352885314B2580312A
:1000680035287E10090080313928563084008630C2
:1000780085001200D8001200D9001200DA00120020
:10008800DB001200DC001200DD001200DE005A3036
:100098008400233085009630FE000030FF00863152
:1000A80001268031FC01F801F901FA01FB01203039
:1000B8008400003085002030FE000030FF008631CB
:1000C80001268031A0308400003085001D30FE00FC
:1000D8000030FF008631012680317E1020008031FB
:1000E80075282000BF01BD01BB01B901B801FC1092
:1000F8009630D2005208E200B7017C100530D200D9
:100108005208E1007D14B601B501A701A801193014
:10011800DF000030E000A501A6015830860000305D
:10012800870053308400003085000530D200160067
:100138001A00D20B9B2800308531CA258031AB3A92
:10014800031DA728A828CF2804308531CA25803167
:100158002000D20085310625803120005206031D7B
:10016800B628B728CF2801308531CA25803120002C
:10017800D2005208BF0002308531CA2580312000E4
:10018800D2005208BD0003308531CA2580312000D5
:10019800D2005208B700AB302000D2005208CB0082
:1001A80000308531E7258031863119268031853147
:1001B800F42580318B170B171E302000C000053046
:1001C800C10086316426803186310D2680312000B9
:1001D800931513163E00CF154F1688298B13200050
:1001E8003F08D2005208BE003D08D2005208BC00A9
:1001F8003B08D2005208BA003908D2005208B400AD
:100208003808D2005208B3008B17610803190D296A
:100218000E296B2905303402031C132914296B2974
:10022800000001302000D2005208B6070000533009
:1002380081318E21803103302000D2005208C40061
:10024800003083315323803120003606031D2D29C9
:100258002E293C290430D2005208C40000308331D2
:10026800532380312000350603193B293C2967298F
:100278003E08D2005208A0003C08D2005208A10053
:100288003A08D2005208A2003608D2005208A30049
:100298003508D2005208A4005A30C0002330C100EB
:1002A800AA30D2005208C20084316924803120006B
:1002B8003708D2005208CB0003308531E72580315A
:1002C8008631192680318B132000B4018B1738082A
:1002D80003196F29702988293E08D2005208CB00DB
:1002E80001308531E725803120003C08D2005208D2
:1002F800CB0002308531E7258031863119268031DF
:100308008B132000B8018B177D188B298C29F228B4
:10031800803137282000CF0023302A06031D962974
:10032800EF302906031D99299A29A2292C08C5000E
:100338002B08C400833116238131B62929082A04E1
:10034800031DA729A829B6292B082C04031DAD29AC
:10035800AE29B6295A30A9002330AA005A30AB007A
:100368002330AC002000D001D101200050084F07F5
:10037800CB004B08860087010108CC0050082907EC
:10038800CD0051082A3DCE004D0886004E08870052
:100398004C0881005008A9075108AA3D0130D00730
:1003A8000030D13D5108803ACB0080304B02031D0C
:1003B800DF2905305002031CE229E329B929080086
:1003C80086314E268131031CEA29EB291C2AF8299B
:1003D800863188268131382A863183268131382A28
:1003E800863179268131382A21003A08F1007108CE
:1003F8002000C1001130A03E86008701413F8A00DD
:10040800403F0A008231F200F3017308003A0319F1
:100418000E2AF4297208013A0319F429033A031938
:10042800EC29013A0319F029073A0319F429F429A8
:100438002100A0110230A03E86008701403F8400C1
:100448008501810A00088631922681310130210018
:10045800A3020030A43B23082404031D342A352AB0
:10046800372A0630382A033008002000C400400824
:10047800C2004208C30030009E18432A442A3F2A7B
:100488001E1720004408FF3E30009A0070309B0081
:100498009D017D2A30009E18522A532A4E2A200098
:1004A800430886008701010830009C0001302000C5
:1004B800C2004208C3070130C200420830009A0750
:1004C800200003108B1F692A6A2A6B2A0314300044
:1004D8001E1555309F00AA309F009E149E18752A3D
:1004E800762A722A1E112000031C7B2A7C2A7D2A68
:1004F8008B1701302000C102410A031D842A852A76
:100508004E2A08008631AC268231F00021002208EC
:1005180086008701700881000130F0007008A2078A
:100528000130A3020030A43B2308240403199D2AA8
:100538009E2AA32A86319F2682310530D02A20158B
:10054800AD2A86316A268231D02A86316F268231D9
:10055800D02A3708F00070082000C1000B30A03EF8
:1005680086008701413F8A00403F0A008231F1003E
:10057800F2017208003A0319C22AA92A7108013A3D
:100588000319A92A033A0319A52A013A0319A52A26
:10059800073A0319A92AA92A080020009A019901F3
:1005A800960197019801073095006F309100FF3050
:1005B8009200FF309300FF309400FF303E00D900D6
:1005C800E730CE00FF30C3000730E400FF30B8004A
:1005D800DA01E501C401B901CF01E601BA01C5019B
:1005E800D001DB01FF30BB00FF30C600FF30D10077
:1005F800FF30DC000730E700FF30BC00FF30C700E9
:10060800FF30D200FF30DD000730E80013303D0036
:10061800C50014303E00A3001530A40014303D007E
:10062800C600080001302000C9000030CA003C2B79
:100638005E08C1005D08C00049084407C6004A08B2
:10064800453DC7004608FF3E8600FF30473D87000E
:100658000108C8004808C200843169248331200099
:100668004908DD074A08DE3D0130C9070030CA3DA8
:100678004A08803AC60080304602031D452B0630E2
:1006880049020318482B492B522B20005D0AF030F1
:1006980003195E06031D512B522B1C2B080020004A
:1006A800C8001F30480203185A2B5B2B7F2B7C1C79
:1006B8005E2B5F2B7F2B0530C5004508C00048081E
:1006C80085313525833120004407C6004608C90016
:1006D80049083702031C712B722B782B4908370203
:1006E800C5004508C700812B370862024907C500C5
:1006F8004508C700812B0030882B47085A3E8600E2
:1007080087012330873D0108080021002015992B17
:1007180086317E268331BC2B8631A926833103306E
:10072800BC2B863179268331BC2B3708F000700842
:100738002000C1000B30A03E86008701413F8A009F
:10074800403F0A008331F100F2017208003A0319B0
:10075800AE2B952B7108013A0319952B033A03190F
:100768008C2B013A03198C2B073A0319902B952BE4
:1007780008002000C4004408C2004208C30030003A
:100788009E18C72BC82BC32B1E172000400830000B
:100798009A0070309B00E32B30001E141C082000C8
:1007A800C200430886008701420881000130C20068
:1007B8004208C3070130C200420830009A070130DE
:1007C8002000C102410A031DEA2BEB2BD02B0800A5
:1007D8002100A0110230F0007008AA00FB2B86311E
:1007E8007E268331182C863179268331182C3908D6
:1007F800F00070082000C1000F30A03E860087017D
:10080800413F8A00403F0A008431F100F20172083A
:10081800003A0319102CF72B7108023A0319F32B2D
:10082800013A0319F32BF72B08008631A6268431E9
:100838002100A01D202C212C2D2C86314E26843100
:10084800031C272C282C2D2C0F30F40074082100B1
:10085800A90021002908F400F501F435F50DB1309F
:10086800740784008430753D8500013F8A00003F8D
:100878000A008431F60076082100A9000800F40077
:10088800700871040319492C4A2C5B2C7435AB3E53
:10089800860087017008C03F7108C13F7208F300E5
:1008A8007408B73E8600870173088100682C743588
:1008B800AB3E86008701BC30C03F0630C13F74089C
:1008C800B73E860087018101080000308B1B01308C
:1008D8002000C300410830009B0020004008300081
:1008E8009A002000420830009C001E171E158B132A
:1008F80055309F00AA309F009E149E18842C852C8A
:10090800812C1E112000430C031C8B1303188B171A
:1009180008000130F00070082000BB070130F0002B
:100928007008B9073C303B02031C9B2C9C2CB02C54
:100938000130F0007008BD070130F0007008B807FA
:10094800BB013C303D02031CAA2CAB2CB02C01305F
:10095800F0007008BF07BD0108008D340634253447
:1009680006343E340634E4340134863402345D34CB
:1009780006348934033488340634833406347E34A8
:10098800063479340634743406346F3406346A34E1
:10099800063446340634EC34033424008F019001C5
:1009A80004309100F0308D00DD308C000D08F90026
:1009B8000C08F8002E0010101A14BF302000C000D8
:1009C8000630C100863164268431253024008E002B
:1009D80008002000410886008701403FF000413FA1
:1009E800F1004108023E8600870101088531BA25D9
:1009F80084310030F500F600F7018531D9258431BE
:100A0800023008002000C901CA014A08003E8531A9
:100A1800CA2585312000C8004808C9070130C80028
:100A28004808CA0705304A02031C1B2D1C2D092D36
:100A38004908080003102000961F03140318252DE9
:100A4800282D200096172A2D200096137C192D2D6D
:100A58002E2D332D84318D2485317C15342D7C1138
:100A680008002000C300C201431C3B2D3C2D402D33
:100A78004008C1004108C2070310C00D0310C30C91
:100A88004308031D482D492D382D420808002E0023
:100A980010107908F1007808F0008531A925853112
:100AA80020002D082E0403195A2D5B2D602D2E08C9
:100AB8008A002D080A00853108000230F000003055
:100AC800F100200041088531BA2585310030F50054
:100AD800F600F7018531D92585310230080001304B
:100AE800F0000030F100200041088531BA25853139
:100AF8000030F500F600F7018531D925853102303F
:100B080008000130F0000030F10020004108853174
:100B1800BA2585310030F500F600F7018531D92571
:100B28008531043008000230F0000030F100200068
:100B380041088531BA2585310030F500F600F70106
:100B48008531D92585310430080024000E1DAD2DCE
:100B5800AE2DB52D0E1071088D0070088C000E1486
:100B6800B92D71088D0070088C000800F300210071
:100B7800201DBF2DC02DC92D7308F2007208A200D8
:100B88007108A4007008A300201108002000C60006
:100B98004608C5004508C000C101C10A4730833175
:100BA800BD2385312000470808007608F100750844
:100BB800F00077082000C0004008F20000308431BF
:100BC8004324853108002000CD004B30CC004C0870
:100BD800C000C101C10A4D0882313922853108009F
:100BE80086312E2685318231D122853186313626CD
:100BF80085318431D12485310800640080010131B8
:100C08000130FE020030FF3B7F087E04031D022EE8
:100C180000342300901A112E122E182E8F0128301E
:100C28009000910103308D0008008531062586313A
:100C38002000CE004E08CB0004308531E7258631F0
:100C480008002100A0150314210D86319226863153
:100C5800053008002F0096019701980199019A0123
:100C68009B010800603031008D008F0191019301D4
:100C7800920108002100A01521358631922686317F
:100C8800033008008631BE26863121002010AA01D3
:100C98000E3008002300110E890C890C0139F00070
:100CA800700C080001340234033404340534003471
:100CB800F0342100A0118631AF26863104300800B7
:100CC80020004108AE004008AD00080086319B2690
:100CD80086310930080086319B2686310A300800A3
:100CE80086319F268631053008008631B226863146
:100CF800003008008631B52686310130080086317B
:100D0800B5268631023008008631B5268631013095
:100D1800080021002010AA010E300800F000700819
:100D280023008C0008008631A326863108002300A2
:100D380091161116080023009112111608002E00B2
:100D48008F1008002E000F1008002E000F14080046
:100D580023000C0808002300911508002300111532
:100D6800080023009114080003300800053008002B
:080D780001300800080008002A
:020000040001F9
:0A000E00EC3FFF3F8E0FFF3FFF3F66
:0AE000000000000000000000000016
>>>>>>> 8a784acfeed5fb28f801f16fe528231cbb0c7541
:00000001FF
