:020000040000FA
:0400000080313128F2
:100008007E1480312E00161C0A280B2813280C1C7D
:100018000E280F2813288231D02280312F28961ECF
:10002800162817281F288C1E1A281B281F288231DB
:10003800552280312F280B1F222823282F281A1CED
:10004800262827282F28101C2A282B282F288131DA
:10005800DD2180312F287E10090080313328F501F9
:10006800F601F701F8012000A001A101A201A301F6
:10007800A401A501A601A701A801A9017E102000DD
:1000880080314628813176218031C5302000B20088
:100098000130B3008231C422803130302000B200F8
:1000A8000130B3008231BE2280319E302000B20080
:1000B8000230B3008231CA22803100302000B20001
:1000C800B3008131AC2180312000A8018B170B17B8
:1000D8006300000000308231AF228031772853302E
:1000E800890B742800008231B7228031003A031945
:1000F8007E287F287328823195228031200033089A
:10010800A5003208A4002508B8002408B70038085C
:10011800B700B8013708A0003808A1002108B300CB
:100128002008B20081319221803100302000210264
:100138000330031920020318A228A4280130A52897
:100148000030B700B8013708F5003808F60002306B
:100158002806031DB028B128C3287508760403199A
:10016800B628B728C3280130A2070030A33D2308CA
:10017800B3002208B2008131AC2180316E280230F0
:100188002806031DC828C928D82875087604031D21
:10019800CE28CF28D8280030B200B3008131AC2156
:1001A80080312000A8016E282808031DDC28DD28DE
:1001B8006E28750876040319E228E3286E282E00B5
:1001C80096168231D622803102302000B7003708D7
:1001D800A8006E288031312820009A0199019601E3
:1001E80097019801073095000F309100FF30920079
:1001F800FF309300FF309400FF303E00D900FF30FD
:10020800CE00EF30C3000730E400FF30B800DA0159
:10021800E501C401B901CF01E601BA01C501D00168
:10022800DB01FF30BB00FF30C600FF30D100FF30DC
:10023800DC000730E700FF30BC00FF30C700FF30AC
:10024800D200FF30DD000730E8000C303D009000A0
:100258000E303E009600080003102000961F03147D
:10026800031837293A29200096173C2920009613AD
:100278000130F0007008A9073C302902031C452909
:10028800462956290130F0007008F707A9013C30CB
:100298007702031C5029512956290130F0007008B3
:1002A800F807F701080024008F019001043091003D
:1002B800E1308D00BA308C000D082000B100240018
:1002C8000C082000B0002E0010101A14DC3020009A
:1002D800B2000230B3008231BE22813125302400C1
:1002E8008E0008008231A72281318031F0208131CF
:1002F80082318C2281318231722281318131F42123
:1003080081318231462281318231642281318131C9
:1003180057218131823120228131080020003208A2
:100328000139B400B40E16083406EF3934069600C5
:100338003308B5003208B400B536B40C3408B6003A
:10034800B60EB60D16083606DF39360696000800D2
:1003580020003308B5003208B400B536B40CB53601
:10036800B40C340827008D00200032080339B4008B
:100378000530B435FF3E031DBD29343527008C00F8
:100388000800750876040319CA29CB29D729FF3034
:10039800F0000330F10082310A2281310130F4008B
:1003A80074082000A8008231D92281312E009612CB
:1003B80008002E00101020003108F1003008F0006D
:1003C80082313522813120002E082F040319ED29AE
:1003D800EE29F3292F088A002E080A008131080027
:1003E80022008E018F0190019101920193018D01EC
:1003F80021009E019B0194019501960197019A01A4
:1004080099019801843093009D0108007108F30058
:100418007008F200F336F20CF336F20C720827007B
:100428008D0070080339F2000530F235FF3E031DD8
:10043800192A72358C000800953020009F00F13091
:100448009D009C012E008C129616DD302000B20013
:100458000230B3008231C42282310B3020009E006A
:10046800080024000E1D392A3A2A412A0E10710864
:100478008D0070088C000E14452A71088D007008D4
:100488008C00080001302500900020308F00910179
:10049800F9308D008C012E009010803025008E00E0
:1004A80008002E008C1220002C082D0403195D2A48
:1004B8005E2A632A2D088A002C080A008231080067
:1004C8002E000C100B14DE302000B2000230B300F6
:1004D8008231CA2282312E0016140800803027008B
:1004E8008E003E308D0040308C0024001F08F33908
:1004F80004389F00080020002A082B040319852AC5
:10050800862A8B2A2B088A002A080A0082310800CA
:10051800623031008D008F01910102309300920109
:10052800080021000D082000B30021000C0820005D
:10053800B20008002000A8010030F000F10082316C
:100548000A22823108002F0096019701980199012B
:100558009A019B0108002000B200320821009E0089
:1005680093171314080003102100131C0314003000
:10057800093D080020003308AF003208AE0008002B
:1005880020003308AD003208AC0008002000330812
:10059800AB003208AA0008002E000C1082317F221E
:1005A8008231080020009E17080020009E130800D2
:0605B80008000800080025
:020000040001F9
:0A000E00EC3FFF3F8E0FFF3FFF3F66
:00000001FF
