:020000040000FA
:0400000080312528FE
:100008007E1480312E00161C0A280B2813280C1C7D
:100018000E280F2813288131BA21803123280B1F7D
:100028001628172823281A1C1A281B282328101CCE
:100038001E281F28232881312F21803123287E1054
:10004800090080312728F601F701F8012000A401F2
:10005800A501A601A7017E10200080313328813137
:1000680003218031C130F2000030F3008131A82132
:1000780080317030F2000130F3008131AE218031DF
:100088008B170B17200016126300000003102000C6
:10009800161E031403185128542820001616562833
:1000A8002000161205307602031C5B285C284828BD
:1000B800003081319A2180318131A1218031003A8B
:1000C80003196728682860288131B42180317308B2
:1000D8002000A7007208A6000130F400260A75283F
:1000E800F435890B74287408F500F50EF50DF50D37
:1000F80016087506BF3975069600482880312528E8
:1001080020009A01990196019701980107309500FE
:100118000F309100FF309200FF309300FF309400C1
:10012800FF303E00D900FF30CE00EF30C30007306B
:10013800E400FF30B800DA01E501C401B901CF01DC
:10014800E601BA01C501D001DB01FF30BB00FF3079
:10015800C600FF30D100FF30DC000730E700FF3079
:10016800BC00FF30C700FF30D200FF30DD00073091
:10017800E8000C303D009000080003102000961F96
:1001880003140318C828CB2820009617CD28200070
:1001980096130130F0007008F6073C307602031C15
:1001A800D628D728E7280130F0007008F707F601AD
:1001B8003C307702031CE128E228E7280130F000F0
:1001C8007008F807F701080024008F019001043037
:1001D8009100E1308D00BA308C000D08FA000C084F
:1001E800F9002E0010101A14C030F2000130F3008C
:1001F8008131A8218031253024008E00080081310A
:10020800922181318031842081318131892181316C
:100218008131192181318031E820813181315621A4
:10022800813181317D218131080022008E018F01C9
:1002380090019101920193018D0121009E019B0182
:1002480094019501960197019A01990198018430CA
:1002580093009D0108002E0010107A08F10079081B
:10026800F00081314521813120002208230403193F
:100278003E293F29442923088A0022080A0081319F
:10028800080024000E1D49294A2951290E10710819
:100298008D0070088C000E14552971088D007008A7
:1002A8008C0008002E000C100B14C130F200013035
:1002B800F3008131AE2181312E0016140800200090
:1002C80020082104031969296A296F2921088A004D
:1002D80020080A008131080003102000961E03142C
:1002E800031877297A29200096167C29200096126F
:1002F8000800933020009F00F1309D009C012E00E3
:100308008C120F3020009E000800623031008D00F2
:100318008F01910102309300920108002F0096018D
:100328009701980199019A019B010800F20072084F
:1003380021009E0093171314080003102100131CBA
:1003480003140030093D080073082000A300720858
:10035800A200080073082000A1007208A00008008D
:1003680021000D08F3000C08F20008002E000C1004
:0C03780081316321813108000800080079
:020000040001F9
:0A000E00EC3FFF3F8E0FFF3FFF3F66
:00000001FF
