:020000040000FA
:0400000080313628ED
:100008007E1480310B1F09280A2834282E00991CD9
:100018000E280F2819288F1C1228132819287C0845
:100028008A007B080A0080313428191C1C281D28E6
:1000380028280F1C202821282828200043088A0067
:1000480042080A00803134281A1C2B282C2834280E
:10005800101C2F283028342884315D24803134281E
:100068007E10090080313828FD01F701F801F901F7
:10007800FA01FB01FC01203084000030850030309B
:1000880085315A2580317E10200080314B28200090
:10009800CF01CE01CD01CC01CB017D119630DC0022
:1000A8005C08CA00C901FD100530DC005C08C80006
:1000B8007D14C701C601F530D000F030D10084317D
:1000C800EB248031AB3A031D6A286B289E288331C4
:1000D800BF2380312000DC00FF30D000F030D10099
:1000E8008431EB24803120005C06031D7C287D28A8
:1000F8009E28F630D000F030D1008431EB248031D6
:100108002000DC005C08CF00F730D000F030D100D0
:100118008431EB2480312000DC005C08CE00F8300C
:10012800D000F030D1008431EB2480312000DC0095
:100138005C08C9008331DF238031F5302000D60008
:10014800F030D700AB30DC005C08D800833157238F
:1001580080318431CB2480318531082580318B175B
:100168000B1730302000D0000430D10085316025D5
:1001780080318531152580312000931513163E00F6
:10018800CF154F165129200048080319CC28CD282F
:1001980024298B1348084C02031CD328D42823296C
:1001A800CC018B17000001302000DC005C08C70779
:1001B800000003302000DC005C08D40000308231ED
:1001C8003A22803120004706031DEB28EC28FA2844
:1001D8000430DC005C08D400003082313A228031DF
:1001E800200046060319F928FA2824298B134F08FA
:1001F800DC005C08BD004E08DC005C08BE004D0851
:10020800DC005C08BF008B174708DC005C08C000F6
:100218004608DC005C08C1008231AB228031F8302E
:100228002000D600F030D7004908DC005C08D80070
:100238008331572380318431CB24803124298B1793
:100248008B1320004B0803192A292B295029CB018D
:100258004F08DC005C08C5004E08DC005C08C400E0
:100268008B17F630D600F030D7004508DC005C0864
:10027800D800833157238031F7302000D600F03082
:10028800D7004408DC005C08D8008331572380314C
:100298008431CB24803151298B177D185429552955
:1002A800C7288031362885314B258131031C5D29CB
:1002B8005E298E296B29853184258131AA298531CA
:1002C8007F258131AA29853175258131AA29200008
:1002D8003A08F1007108F6001130203E86008701C7
:1002E800413F8A00403F0A008131F200F301730860
:1002F800003A0319802967297208013A0319672906
:10030800033A03195F29013A03196329073A0319C4
:10031800672967292000A0110230203E8600870146
:10032800403F84008501810A000885318E2581318E
:1003380001302000A3020030A43B23082404031D3D
:10034800A629A729A9290630AA290330080085313A
:10035800A8258131F0002000220886008701700856
:1003680081000130F0007008A2070130A3020030BC
:10037800A43B230824040319C229C329C8298531A9
:100388009B2581310530F4292015D2298531662530
:100398008131F42985316B258131F4293708F00042
:1003A8007008F6000B30203E86008701413F8A0026
:1003B800403F0A008131F100F2017208003A031946
:1003C800E629CE297108013A0319CE29033A0319FF
:1003D800CA29013A0319CA29073A0319CE29CE298D
:1003E800080020009A0199019601970198010730A9
:1003F80095006F309100FF309200FF309300FF307E
:100408009400FF303E00D900E730CE00FF30C30033
:100418000730E400FF30B800DA01E501C401B90192
:10042800CF01E601BA01C501D001DB01FF30BB00F5
:10043800FF30C600FF30D100FF30DC000730E70096
:10044800FF30BC00FF30C700FF30D200FF30DD00B6
:100458000730E80013303D00C50014303E00A3000B
:100468001530A40014303D00C60008002000D80054
:1004780058084A02031C412A422A6B2AFD1C452AB5
:10048800462A6B2A0530D5005508D0005808843113
:100498004724823120005407D6005608D90059084D
:1004A8004902031C582A592A602A49085907FB3E61
:1004B800D5005508D7006D2A4903FF3AD5005908D9
:1004C80055024A07053ED6005608D7006D2A003067
:1004D800772A5708003ED000F0300318F130D100D9
:1004E8008431EB248231080020002015882A8531C8
:1004F8007A258231AA2A8531A52582310330AA2A94
:10050800853175258231AA2A3708F0007008F6006F
:100518000B30203E86008701413F8A00403F0A0099
:100528008231F100F2017208003A03199C2A842AE8
:100538007108013A0319842A033A03197B2A013AFC
:1005480003197B2A073A03197F2A842A0800FD1811
:10055800AE2AAF2AB02AFD142000DB014A0849025E
:10056800031CB72AB82AB92AC9014908003ED6008F
:10057800F0300318F130D7005B083D3E8600870154
:100588000108DA005A08D800833157238231013034
:100598002000DA005A08C9070130DA005A08DB07D8
:1005A80005305B02031CD92ADA2AB22A0800200087
:1005B800A0110230F0007008AA00EA2A85317A25D5
:1005C8008231062B853175258231062B3908F000DA
:1005D8007008F6000F30203E86008701413F8A00F0
:1005E800403F0A008231F100F2017208003A031913
:1005F800FE2AE62A7108023A0319E22A013A031987
:10060800E22AE62A08008531A22583312000A01DB0
:100618000E2B0F2B1B2B85314B258331031C152BE0
:10062800162B1B2B0F30F40074082000A9002000A3
:100638002908F400F501F435F50D9F30740784009E
:100648008330753D8500013F8A00003F0A008331F1
:10065800F60076082000A9000800F400700871046C
:100668000319372B382B492B74352B3E860087010D
:100678007008C03F7108C13F7208F3007408373E24
:100688008600870173088100562B74352B3E86003F
:100698008701B830C03F0530C13F7408373E860037
:1006A80087018101080000308B1B01302000D90030
:1006B800570830009B002000560830009A002000A0
:1006C800580830009C001E171E158B1355309F00CC
:1006D800AA309F009E149E18722B732B6F2B1E112D
:1006E8002000590C031C8B1303188B1708000130CA
:1006F800F00070082000CD070130F0007008CC072A
:100708003C304D02031C892B8A2B9E2B0130F000B4
:100718007008CE070130F0007008CB07CD013C30DF
:100728004E02031C982B992B9E2B0130F000700869
:10073800CF07CE010800893405342A3405343B3408
:10074800053457340134AB34013453340534783428
:100758000234843405347F3405347A3405347534EE
:100768000534703405346B34053466340534433449
:100778000534DB3402342000D301F530D400F030E6
:10078800D5005508D1005408D0008431EB248331BA
:100798002000D2005208D3070130D4070030D53DDD
:1007A800F0305502FF3003195402031CDC2BDD2BFB
:1007B800C52B53080800F5302000DA00F030DB00C4
:1007C8005B08D7005A08D600D801833157238331F4
:1007D80001302000DA070030DB3DF1305B020030E9
:1007E80003195A02031CF92BFA2BE42B08002400E6
:1007F8008F01900104309100C3308D0074308C005B
:100808000D08FA000C08F9002E0010101A14BB305D
:100818002000D0000530D1008531602583310530B6
:1008280024008E000800760886008701403FF0000B
:10083800413FF1007608023E8600870101088431B5
:10084800DB24843100302000D000D100D201843173
:10085800FA2484310230080003102000961F031484
:100868000318372C3A2C200096173C2C200096139E
:10087800FD193F2C402C452C83317B238431FD15F9
:10088800462CFD1108002000D300D201531C4D2C2A
:100898004E2C522C5008D1005108D2070310D00D0D
:1008A8000310D30C5308031D5A2C5B2C4A2C5208F6
:1008B80008002E0010107A08F1007908F000843141
:1008C800BA2484317708780403196B2C6C2C712CAA
:1008D80078088A0077080A00843108000230F0009E
:1008E8000030F10076088431DB24843100302000A8
:1008F800D000D100D2018431FA24843102300800BA
:100908000130F0000030F10076088431DB248431B6
:1009180000302000D000D100D2018431FA24843183
:10092800023008000130F0000030F1007608843110
:10093800DB24843100302000D000D100D201843182
:10094800FA248431043008000230F0000030F1004D
:1009580076088431DB24843100302000D000D100B7
:10096800D2018431FA2484310430080024000E1D99
:10097800BE2CBF2CC62C0E1071088D0070088C0080
:100988000E14CA2C71088D0070088C000800FF3006
:100998002000D600F030D7008331BF2384312000F7
:1009A800DA005A08D8008331572384310800F3004D
:1009B8002000201DE02CE12CEA2C7308F2007208BC
:1009C800A2007108A4007008A300201108002000EC
:1009D800510830009B002000500830009A001E1774
:1009E8001E140000000030001C08080020005108F8
:1009F800F1005008F0005208F5007508F2000030C8
:100A080083313123843108008531332585318131A3
:100A1800F52185318531212585318331FB238531C8
:100A280008002300901A192D1A2D202D8F01283027
:100A38009000910109308D000800603031008D0070
:100A48008F01910102309300920108002000A01547
:100A58000314210D85318E258531053008002F00BE
:100A680096019701980199019A019B0108002000BD
:100A7800A015213585318E25853103300800853153
:100A8800BA25853120002010AA010E300800230065
:100A9800110E890C890C0139F000700C0800200037
:100AA800A0118531AB258531043008006400800130
:100AB8000131890B5B2D003420005108F8005008E3
:100AC800F700080085319725853109300800853100
:100AD800972585310A30080085319B2585310530F9
:100AE80008008531AE258531003008008531B125F3
:100AF8008531013008008531B12585310230080083
:100B08008531B12585310130080020002010AA0167
:100B18000E300800F000700823008C0008008531B2
:100B28009F2585310800230091161116080023001F
:100B38009112111608002E008F1008002E000F10B9
:100B480008002E000F14080023000C0808002300DA
:100B580091150800230011150800230091140800BE
:100B680003300800053008000130080008000800BC
:020000040001F9
:0A000E00EC3FFF3F8E0FFF3FFF3F66
:00000001FF
