:020000040000FA
:0400000080313128F2
:100008007E1480312E00161C0A280B2813280C1C7D
:100018000E280F28132883314B2380312F28961E52
:10002800162817281F288C1E1A281B281F288231DB
:10003800D92280312F280B1F222823282F281A1C69
:10004800262827282F28101C2A282B282F288231D9
:10005800612280312F287E10090080313328F80171
:10006800F901FA01FB01FC01FD012000A001A10139
:10007800A201A301A401A501A601A701A801A90144
:100088007E102000803148288131FA2180314930A2
:100098002000B2000230B30083313F238031AF30FB
:1000A8002000B2000130B300833139238031803021
:1000B8002000B2000130B300833145238031003085
:1000C8002000B200B300823130228031F9013E00B5
:1000D80044168B170B17630000007808031D75285A
:1000E8007628EA28003083312A2380317F2853304C
:1000F800890B7C280000833132238031003A0319B0
:10010800862887287B2883311923803120003308EB
:10011800A7003208A6002708B8002608B700380844
:10012800B700B8013708A2003808A3002308B300B5
:100138002208B200823116228031003020002302CA
:100148000330031922020318AA28AC280130AD286D
:100158000030B700B8013708A0003808A10020080F
:1001680021040319B828B928DB2802307906031DB1
:10017800BE28BF28CB280130A4070030A53D25089C
:10018800B3002408B2008231302280317128790806
:10019800031DCF28D028E9282E0096168331512335
:1001A800803102302000B7003708F900712802308A
:1001B8007906031DE028E12871280030B200B30059
:1001C800823130228031F901712871288031F02084
:1001D8008031712880313128200096172130200085
:1001E800B2007630890BF628B20BF6280000200002
:1001F800961321302000B2007630890B0129B20B0A
:10020800012900002000161721302000B2007630A6
:10021800890B0C29B20B0C29000020001613213081
:100228002000B2007630890B1729B20B172900007D
:100238002000961621302000B2007630890B222942
:10024800B20B222900002000961221302000B200B3
:100258007630890B2D29B20B2D29000020001616A7
:1002680021302000B2007630890B3829B20B3829AA
:10027800000020001612080020009A01990196013A
:1002880097019801073095000F309100FF309200D8
:10029800FF309300FF309400FF303E00D900FF305C
:1002A800CE00EF30C3000730E400FF30B800DA01B9
:1002B800E501C401B901CF01E601BA01C501D001C8
:1002C800DB01FF30BB00FF30C600FF30D100FF303C
:1002D800DC000730E700FF30BC00FF30C700FF300C
:1002E800D200FF30DD000730E8000C303D00900000
:1002F8000E303E00960008007A08F400F5017508F3
:10030800F7007B087402F600031CF703F71F8D291A
:100318008E29AE297903031D922993299B29F90176
:100328000030F000F10082318E228131AA292000AC
:100338000D1A9F29A029AA297808031DA429A529EF
:10034800AA290130F4007408F800AA297B08F400EF
:100358007408FA0008007808031DB329B429C029D5
:1003680003102000961F03140318BB29BE29200080
:100378009617C029200096130130F0007008FB077B
:100388003C307B02031CC929CA29DA290130F00054
:100398007008FC07FB013C307C02031CD429D529DA
:1003A800DA290130F0007008FD07FC01080024007C
:1003B8008F01900104309100E1308D00BA308C003B
:1003C8000D082000B10024000C082000B0002E0009
:1003D80010101A1457302000B2000330B3008331D4
:1003E80039238131253024008E00080083312223EF
:1003F8008131813140218131833110238131823132
:10040800F62281318231782281318231CA228131CA
:100418008231E82281318131DB2181318231A4228C
:1004280081310800200032080139B400B40E1608E2
:100438003406EF39340696003308B5003208B400A4
:10044800B536B40C3408B600B60EB60D1608360626
:10045800DF3936069600080020003308B500320858
:10046800B400B536B40CB536B40C340827008D008A
:10047800200032080339B4000530B435FF3E031DAF
:10048800412A343527008C00080020002008210468
:1004980003194F2A502A5B2AFF30F0000330F1007D
:1004A80082318E2282310130F4007408F9008331E0
:1004B800542382312E00961208002E0010102000BE
:1004C8003108F1003008F0008231B9228231200071
:1004D8002E082F040319712A722A772A2F088A00F6
:1004E8002E080A008231080022008E018F01900137
:1004F8009101920193018D0121009E019B019401BC
:100508009501960197019A01990198018430930009
:100518009D0108007108F3007008F200F336F20C30
:10052800F336F20C720827008D0070080339F200C8
:100538000530F235FF3E031D9D2A72358C000800F8
:10054800953020009F00F1309D009C012E008C12F8
:10055800961658302000B2000330B30083313F2391
:1005680082310B3020009E00080024000E1DBD2A99
:10057800BE2AC52A0E1071088D0070088C000E1452
:10058800C92A71088D0070088C0008000130250008
:10059800900020308F009101F9308D008C012E00E1
:1005A8009010803025008E0008002E008C1220004C
:1005B8002C082D040319E12AE22AE72A2D088A00CB
:1005C8002C080A00823108002E000C100B14593038
:1005D8002000B2000330B3008331452382312E005E
:1005E80016140800803027008E003E308D00403001
:1005F8008C0024001F08F33904389F0008002000ED
:100608002A082B040319092B0A2B0F2B2B088A0005
:100618002A080A0083310800623031008D008F01FA
:100628009101023093009201080021000D0820007A
:10063800B30021000C082000B20008002F0096012A
:100648009701980199019A019B0108002000B200C6
:10065800320821009E00931713140800031021008C
:10066800131C03140030093D080020003308AF00B4
:100678003208AE00080020003308AD003208AC0094
:10068800080020003308AB003208AA0008002E003A
:100698000C10833103238331080020009E170800C3
:0C06A80020009E13080008000800080055
:020000040001F9
:0A000E00EC3FFF3F8E0FFF3FFF3F66
:00000001FF
