:020000040000FA
:0400000080312528FE
:100008007E1480312E00161C0A280B2813280C1C7D
:100018000E280F28132882311322803123280B1F22
:100028001628172823281A1C1A281B282328101CCE
:100038001E281F28232881313F21803123287E1044
:10004800090080312728823119228031F900823154
:100058001A228031FA00F601F701F801A601A7017A
:10006800A801A9017E10200080313A28813123217E
:100078008031DE30F2000030F3008231012280311D
:10008800C930F2000130F3008231072280318B172A
:100098000B17200016126300000003102000161E24
:1000A8000314031858285B28200016165D28200022
:1000B800161205307602031C622863284F28003088
:1000C8008131F32180316C285330890B6928000075
:1000D8008131FA218031003A03197328742868287D
:1000E80082310D22803173082000A7007208A60013
:1000F8002708FA002608F90000307A02323003197E
:1001080079020318882889288B28F901FA017A08C6
:10011800F3007908F20081316C21803100307A02D5
:1001280033300319790203189A289B2863284F282B
:100138008031252820009A0199019601970198019C
:10014800073095000F309100FF309200FF30930088
:10015800FF309400FF303E00D900FF30CE00EF3072
:10016800C3000730E400FF30B800DA01E501C4013C
:10017800B901CF01E601BA01C501D001DB01FF30A9
:10018800BB00FF30C600FF30D100FF30DC00073075
:10019800E700FF30BC00FF30C700FF30D200FF305F
:1001A800DD000730E8000C303D0090000E303E00C6
:1001B8009600080003102000961F03140318E52872
:1001C800E82820009617EA28200096130130F0004E
:1001D8007008F6073C307602031CF328F42804293B
:1001E8000130F0007008F707F6013C307702031C75
:1001F800FE28FF2804290130F0007008F807F701ED
:10020800080024008F01900104309100E1308D0036
:10021800BA308C000D082000A50024000C0820002E
:10022800A4002E0010101A141B30F2000230F30044
:10023800823101228131253024008E00080081316D
:10024800EB21813180319E2081318131E221813160
:100258008131A2218131813156218131813193212E
:1002680081318131052181318131AF218131813164
:10027800D621813108002E00101020002508F10039
:100288002408F000813182218131200022082304D2
:1002980003194F295029552923088A0022080A00E2
:1002A8008131080022008E018F0190019101920195
:1002B80093018D0121009E019B01940195019601F6
:1002C80097019A0199019801843093009D010800D3
:1002D8007308F5007208F400F536F40CF536F40CE2
:1002E800740827008D0072080339F4000530F435CE
:1002F800FF3E031D7B2974358C00080024000E1D69
:10030800862987298E290E1071088D0070088C00A7
:100318000E14922971088D0070088C0008000130B5
:100328002500900020308F009101FF308D008C0156
:100338002E009010803025008E00080080302700A5
:100348008E003F308D00C0308C0024001F08F33928
:1003580004389F0008002E000C100B141C30F2000B
:100368000230F3008231072281312E001614080072
:100378002000200821040319C229C329C8292108FB
:100388008A0020080A008131080003102000961E08
:1003980003140318D029D32920009616D529200044
:1003A80096120800933020009F00F1309D009C01B8
:1003B8002E008C120F3020009E00080062303100A1
:1003C8008D008F01910102309300920108002F00E7
:1003D80096019701980199019A019B010800F20082
:1003E800720821009E0093171314080003102100BF
:1003F800131C03140030093D080073082000A300F3
:100408007208A200080073082000A1007208A0006A
:10041800080021000D08F3000C08F20008002E0067
:100428000C108131BC2182310800193400340800D5
:020438000800BA
:020000040001F9
:0A000E00EC3FFF3F8E0FFF3FFF3F66
:00000001FF
