:020000040000FA
:0400000080313628ED
:100008007E1480310B1F09280A2834282E00991CD9
:100018000E280F2819288F1C1228132819287C0845
:100028008A007B080A0080313428191C1C281D28E6
:1000380028280F1C202821282828200043088A0067
:1000480042080A00803134281A1C2B282C2834280E
:10005800101C2F2830283428843167248031342814
:100068007E10090080313828FD01F701F801F901F7
:10007800FA01FB01FC01203084000030850030309B
:100088008531642580317E10200080314B28200086
:10009800CF01CE01CD01CC01CB017D119630DC0022
:1000A8005C08CA00C901FD100530DC005C08C80006
:1000B8007D14C701C601F530D000F030D10084317D
:1000C800F5248031AB3A031D6A286B289E288331BA
:1000D800C92380312000DC00FF30D000F030D1008F
:1000E8008431F524803120005C06031D7C287D289E
:1000F8009E28F630D000F030D1008431F5248031CC
:100108002000DC005C08CF00F730D000F030D100D0
:100118008431F52480312000DC005C08CE00F83002
:10012800D000F030D1008431F52480312000DC008B
:100138005C08C9008331E9238031F5302000D600FE
:10014800F030D700AB30DC005C08D8008331612385
:10015800803152302000DD002B30DC000030890B6C
:10016800B328DC0BB328DD0BB3280000853112253A
:1001780080318B170B173A302000D0000430D100A3
:1001880085316A25803185311F25803120009315FE
:1001980013163E00CF154F165B2920004808031997
:1001A800D628D7282E298B1348084C02031CDD2893
:1001B800DE282D29CC018B17000001302000DC003F
:1001C8005C08C707000003302000DC005C08D4008E
:1001D800003082314422803120004706031DF52873
:1001E800F62804290430DC005C08D4000030823191
:1001F80044228031200046060319032904292E29A8
:100208008B134F08DC005C08BD004E08DC005C085E
:10021800BE004D08DC005C08BF008B174708DC00F7
:100228005C08C0004608DC005C08C1008231B522C9
:100238008031F8302000D600F030D7004908DC00C3
:100248005C08D8008331612380318431D524803122
:100258002E298B178B1320004B08031934293529B5
:100268005A29CB014F08DC005C08C5004E08DC00A9
:100278005C08C4008B17F630D600F030D70045086C
:10028800DC005C08D800833161238031F73020001E
:10029800D600F030D7004408DC005C08D800833171
:1002A800612380318431D52480315B298B177D18F7
:1002B8005E295F29D128803136288531552581313D
:1002C800031C672968299829752985318E2581316C
:1002D800B429853189258131B42985317F2581313A
:1002E800B42920003A08F1007108F6001130203EC8
:1002F80086008701413F8A00403F0A008131F200B1
:10030800F3017308003A03198A2971297208013A1E
:1003180003197129033A03196929013A03196D2947
:10032800073A0319712971292000A0110230203ED3
:1003380086008701403F84008501810A00088531D5
:100348009825813101302000A3020030A43B230806
:100358002404031DB029B129B3290630B429033078
:1003680008008531B2258131F0002000220886007E
:100378008701700881000130F0007008A207013081
:10038800A3020030A43B230824040319CC29CD2957
:10039800D2298531A52581310530FE292015DC2992
:1003A800853170258131FE29853175258131FE29F8
:1003B8003708F0007008F6000B30203E86008701F1
:1003C800413F8A00403F0A008131F100F201720882
:1003D800003A0319F029D8297108013A0319D829D4
:1003E800033A0319D429013A0319D429073A0319FE
:1003F800D829D829080020009A0199019601970167
:100408009801073095006F309100FF309200FF305F
:100418009300FF309400FF303E00D900E730CE0053
:10042800FF30C3000730E400FF30B800DA01E5010F
:10043800C401B901CF01E601BA01C501D001DB0150
:10044800FF30BB00FF30C600FF30D100FF30DC00BA
:100458000730E700FF30BC00FF30C700FF30D20094
:10046800FF30DD000730E80013303D00C5001430D0
:100478003E00A3001530A40014303D00C60008005B
:100488002000D80058084A02031C4B2A4C2A752A17
:10049800FD1C4F2A502A752A0530D5005508D00072
:1004A800580884315124823120005407D600560858
:1004B800D90059084902031C622A632A6A2A490892
:1004C8005907FB3ED5005508D700772A4903FF3A5C
:1004D800D500590855024A07053ED6005608D700E8
:1004E800772A0030812A5708003ED000F0300318E0
:1004F800F130D1008431F524823108002000201524
:10050800922A853184258231B42A8531AF258231FA
:100518000330B42A85317F258231B42A3708F000A8
:100528007008F6000B30203E86008701413F8A00A4
:10053800403F0A008231F100F2017208003A0319C3
:10054800A62A8E2A7108013A03198E2A033A03193A
:10055800852A013A0319852A073A0319892A8E2A16
:100568000800FD18B82AB92ABA2AFD142000DB01B0
:100578004A084902031CC12AC22AC32AC9014908D8
:10058800003ED600F0300318F130D7005B083D3E3E
:10059800860087010108DA005A08D80083316123F0
:1005A800823101302000DA005A08C9070130DA0028
:1005B8005A08DB0705305B02031CE32AE42ABC2A3D
:1005C80008002000A0110230F0007008AA00F42AE8
:1005D800853184258231102B85317F258231102B7E
:1005E8003908F0007008F6000F30203E86008701B9
:1005F800413F8A00403F0A008331F100F20172084E
:10060800003A0319082BF02A7108023A0319EC2A58
:10061800013A0319EC2AF02A08008531AC25833108
:100628002000A01D182B192B252B8531552583312A
:10063800031C1F2B202B252B0F30F40074082000DF
:10064800A90020002908F400F501F435F50DA930BA
:10065800740784008330753D8500013F8A00003FA0
:100668000A008331F60076082000A9000800F4008B
:10067800700871040319412B422B532B74352B3E00
:10068800860087017008C03F7108C13F7208F300F7
:100698007408373E8600870173088100602B743523
:1006A8002B3E86008701C230C03F0530C13F740829
:1006B800373E860087018101080000308B1B01301E
:1006C8002000D900570830009B0020005608300051
:1006D8009A002000580830009C001E171E158B1326
:1006E80055309F00AA309F009E149E187C2B7D2BAE
:1006F800792B1E112000590C031C8B1303188B1720
:1007080008000130F00070082000CD070130F0002B
:100718007008CC073C304D02031C932B942BA82B5C
:100728000130F0007008CE070130F0007008CB07E8
:10073800CD013C304E02031CA22BA32BA82B013069
:10074800F0007008CF07CE01080093340534343424
:1007580005344534053461340134B53401345D342D
:100768000534823402348E340534893405348434B3
:1007780005347F3405347A340534753405347034DF
:1007880005344D340534E53402342000D301F53006
:10079800D400F030D5005508D1005408D000843179
:1007A800F52483312000D2005208D3070130D40742
:1007B8000030D53DF0305502FF3003195402031CB8
:1007C800E62BE72BCF2B53080800F5302000DA0082
:1007D800F030DB005B08D7005A08D600D801833117
:1007E8006123833101302000DA070030DB3DF1302E
:1007F8005B02003003195A02031C032C042CEE2B55
:10080800080024008F01900104309100C3308D004E
:1008180074308C000D08FA000C08F9002E00101036
:100828001A14C5302000D0000530D10085316A2562
:100838008431053024008E00080076088600870180
:10084800403FF000413FF1007608023E86008701F4
:1008580001088431E524843100302000D000D10023
:10086800D2018531042584310230080003102000AC
:10087800961F03140318412C442C20009617462C6D
:1008880020009613FD19492C4A2C4F2C83318523BF
:100898008431FD15502CFD1108002000D300D20131
:1008A800531C572C582C5C2C5008D1005108D207E7
:1008B8000310D00D0310D30C5308031D642C652CB2
:1008C800542C520808002E0010107A08F1007908FC
:1008D800F0008431C4248431770878040319752C16
:1008E800762C7B2C78088A0077080A008431080067
:1008F8000230F0000030F10076088431E5248431BC
:1009080000302000D000D100D20185310425843187
:10091800023008000130F0000030F1007608843120
:10092800E524843100302000D000D100D201853187
:1009380004258431023008000130F0000030F10055
:1009480076088431E524843100302000D000D100BD
:10095800D201853104258431043008000230F000CA
:100968000030F10076088431E5248431003020001D
:10097800D000D100D201853104258431043008002B
:1009880024000E1DC82CC92CD02C0E1071088D0007
:1009980070088C000E14D42C71088D0070088C001F
:1009A8000800FF302000D600F030D7008331C9237B
:1009B80084312000DA005A08D80083316123843159
:1009C8000800F3002000201DEA2CEB2CF42C7308FF
:1009D800F2007208A2007108A4007008A300201198
:1009E80008002000510830009B002000500830000B
:1009F8009A001E171E140000000030001C08080092
:100A080020005108F1005008F0005208F500750860
:100A1800F200003083313B238531080085313D25C4
:100A280085318131FF21853185312B25853184310F
:100A38000524853108002300901A232D242D2A2D02
:100A48008F0128309000910109308D000800603036
:100A580031008D008F01910102309300920108004E
:100A68002000A0150314210D853198258531053006
:100A780008002F0096019701980199019A019B019E
:100A880008002000A01521358531982585310330CF
:100A980008008531C425853120002010AA010E30B8
:100AA80008002300110E890C890C0139F000700C24
:100AB80008002000A0118531B525853104300800D3
:100AC800640080010131890B652D00342000510834
:100AD800F8005008F70008008531A1258531093054
:100AE80008008531A12585310A3008008531A52502
:100AF8008531053008008531B8258531003008007A
:100B08008531BB258531013008008531BB2585310C
:100B1800023008008531BB258531013008002000EE
:100B28002010AA010E300800F000700823008C0085
:100B380008008531A9258531080023009116111672
:100B4800080023009112111608002E008F100800CB
:100B58002E000F1008002E000F14080023000C08A8
:100B68000800230091150800230011150800230030
:100B7800911408000330080005300800013008000F
:040B88000800080059
:020000040001F9
:0A000E00EC3FFF3F8E0FFF3FFF3F66
:00000001FF
