:020000040000FA
:0400000080313128F2
:100008007E1480312E00161C0A280B2813280C1C7D
:100018000E280F2813288331352380312F28961E68
:10002800162817281F288C1E1A281B281F288231DB
:10003800C32280312F280B1F222823282F281A1C7F
:10004800262827282F28101C2A282B282F288231D9
:10005800342280312F287E10090080313328F001A6
:10006800F101F201F301F401F5012000A001A10161
:10007800A201A301A401A501A601A701A801A90144
:10008800AA017E102000803149288131E521803184
:100098004B302000B3000230B40083312923803173
:1000A8007B302000B3000130B4008331232380313A
:1000B800C6302000B3000130B40083312F238031D3
:1000C80000302000B300B40082311B228031F201DD
:1000D8008B170B176300000020002A08031D7528E2
:1000E8007628EA2800308331142380317F28533062
:1000F800890B7C28000083311C238031003A0319C6
:10010800862887287B288331032380312000340800
:10011800A5003308A4002508B9002408B800390848
:10012800B800B9013808A0003908A1002108B400B6
:100138002008B300823101228031003020002102E2
:100148000330031920020318AA28AC280130AD286F
:100158000030B800B9013808F0003908F10070081B
:1001680071040319B828B928DB2802307206031D68
:10017800BE28BF28CB280130A2070030A33D2308A2
:10018800B4002208B30082311B2280317028720823
:10019800031DCF28D028E9282E00961683313B234B
:1001A800803102302000B8003808F2007028023090
:1001B8007206031DE028E12870280030B300B4005F
:1001C80082311B228031F201702870289617213065
:1001D8002000B8007630890BEF28B80BEF28000014
:1001E8002000961321302000B8007630890BFA28B9
:1001F800B80BFA2800002000161721302000B8009C
:100208007630890B0529B80B052900002000161344
:1002180021302000B8007630890B1029B80B10293E
:1002280000002000961621302000B8007630890B97
:100238001B29B80B1B290000200096122130200032
:10024800B8007630890B2629B80B26290000200033
:10025800161621302000B8007630890B3129B80BEA
:100268003129000020001612702880313128200022
:100278009A019901960197019801073095000F306E
:100288009100FF309200FF309300FF309400FF3060
:100298003E00D900FF30CE00EF30C3000730E40045
:1002A800FF30B800DA01E501C401B901CF01E60168
:1002B800BA01C501D001DB01FF30BB00FF30C60029
:1002C800FF30D100FF30DC000730E700FF30BC0012
:1002D800FF30C700FF30D200FF30DD000730E800F4
:1002E8000C303D0090000E303E00960008002000C3
:1002F8002A08031D802981298C290310961F0314BD
:10030800031887298A29200096178C29200096131C
:100318000130F6007608F3073C307302031C952978
:100328009629A6290130F6007608F407F3013C3037
:100338007402031CA029A129A6290130F600760819
:10034800F507F401080024008F01900104309100A2
:10035800E1308D00BA308C000D082000B200240076
:100368000C082000B1002E0010101A144130200093
:10037800B3000330B40083312323813125302400B6
:100388008E0008007203031DCA29CB29D329F20164
:100398000030F600F700823178228131DC29200014
:1003A8000D1AD729D829DC290130FA007A08AA00C1
:1003B8007308FA00FB017A082000A6007B08A70052
:1003C800080083310C23813181313B218131823115
:1003D800FA2281318231E0228131823162228131F7
:1003E8008231B42281318231D22281318131A721F7
:1003F800813182318E228131080020003308013991
:10040800B500B50E16083506EF39350696003408DE
:10041800B6003308B500B636B50C3508B700B70EC8
:10042800B70D16083706DF39370696000800200092
:100438003408B6003308B500B636B50CB636B50C78
:10044800350827008D00200033080339B500053032
:10045800B535FF3E031D2C2A353527008C000800D2
:100468002E00101020003208F7003108F600823103
:10047800A322823120002F0830040319442A452A78
:100488004A2A30088A002F080A00823108007008BA
:1004980071040319502A512A5C2AFF30F6000330F0
:1004A800F7008231782282310130FA007A08F200AE
:1004B80083313E2382312E009612080022008E01DD
:1004C8008F0190019101920193018D0121009E01FC
:1004D8009B0194019501960197019A019901980150
:1004E800843093009D0108007708F9007608F80029
:1004F800F936F80CF936F80C780827008D007608DC
:100508000339F8000530F835FF3E031D872A783592
:100518008C000800953020009F00F1309D009C0160
:100528002E008C12961642302000B3000330B4001F
:100538008331292382310B3020009E0008002400DB
:100548000E1DA72AA82AAF2A0E1077088D00760854
:100558008C000E14B32A77088D0076088C000800EA
:1005680001302500900020308F009101F9308D0076
:100578008C012E009010803025008E0008002E007F
:100588008C1220002D082E040319CB2ACC2AD12A3C
:100598002E088A002D080A00823108002E000C104F
:1005A8000B1443302000B3000330B40083312F23F1
:1005B80082312E0016140800803027008E003E304D
:1005C8008D0040308C0024001F08F33904389F0048
:1005D800080020002B082C040319F32AF42AF92A0E
:1005E8002C088A002B080A0082310800623031008A
:1005F8008D008F01910102309300920108002100C3
:100608000D082000B40021000C082000B3000800E9
:100618002F0096019701980199019A019B01080002
:100628002000B300330821009E009317131408001C
:1006380003102100131C03140030093D080020009A
:100648003408B0003308AF00080020003408AE00BA
:100658003308AD00080020003408AC003308AB00B4
:1006680008002E000C108231ED2283310800200092
:100678009E17080020009E130800080008000800C4
:020000040001F9
:0A000E00EC3FFF3F8E0FFF3FFF3F66
:00000001FF
