:020000040000FA
:1000000080314F28033008007E1480312E00161CEA
:100010000A280B2813280C1C0E280F2813288B31B4
:10002000932380314D28961E162817281F288C1ED2
:100030001A281B281F288C318D2480314D280B1F36
:10004000222823284D28991C2628272832288F1C4F
:100050002A282B28322820002B088A002A080A0088
:1000600080314D28191C3528362841280F1C392885
:100070003A284128200029088A0028080A008031EF
:100080004D281A1C442845284D28101C482849286A
:100090004D288D31A12580314D287E1009008031F9
:1000A0005128F701F801F901FA01FB01FC012030A8
:1000B00084000030850024308B31AB238031A030A8
:1000C0008400003085001D308B31AB2380317E10E1
:1000D000200080316B287D147712FC012000BC01C8
:1000E000BB01BA01B901B801FB01B701FA01F7116F
:1000F00077119630D5005508B500C301C20105300F
:10010000D5005508B400F710AF010330D5005508ED
:10011000AE00AE01FC01B3011930D5005508B200A4
:10012000B101B001F530C400F030C5008C31AB2412
:100130008031AB3A031D9D289E28F2288731E027A5
:1001400080312000D500FF30C400F030C5008C3174
:10015000AB24803120005506031DAF28B028F228BB
:10016000F630C400F030C5008C31AB248031200063
:10017000D5005508BC00F730C400F030C5008C3104
:10018000AB2480312000D5005508BB00F830C400F6
:10019000F030C5008C31AB2480312000D5005508EB
:1001A000B500F930C400F030C5008C31AB2480318B
:1001B0002000D5005508C300FA30C400F030C50057
:1001C0008C31AB2480312000D5005508B400FB30C1
:1001D000C400F030C5008C31AB2480312000D50044
:1001E0005508AE008E313A268031F5302000CA0025
:1001F000F030CB00AB30D5005508CC008E31B8269E
:100200008031F8302000CA00F030CB003508D5002E
:100210005508CC008E31B8268031FA302000CA0053
:10022000F030CB003408D5005508CC008E31B8260C
:100230008031FB302000CA00F030CB002E08D50002
:100240005508CC008E31B82680318C31CA248031DB
:100250008E311E2680318C31022480318B170B1792
:1002600006302000C4000630C5008B319F2380314A
:100270008A302000C4000D30C5008B31A5238031A9
:100280008B302000C4000F30C5008B3199238031A2
:10029000F62B8C310C248031003A03195029512956
:1002A000272BF71C54295529102BF710003020005C
:1002B000C400C5008D31D12580312000B601272B27
:1002C0008C312A2480318C3116248031003A031974
:1002D0006A296C2901306D2900302000D5008C314D
:1002E0000C248031003A03197629782901307929C4
:1002F000003020005505031963298C310C2480310E
:10030000003A031984298529A229272B2000CD0131
:10031000CD0A3C088631B42680318C3116248031D8
:10032000003A0319942995299A2910302000D50004
:100330005508BC07183020003C02031CA029A12945
:10034000A229BC018C310C248031003A0319A9295F
:10035000AA298629C6292000CD013C088631B42669
:1003600080318C3116248031003A0319B829B9291B
:10037000BE2901302000D5005508BC0718302000E8
:100380003C02031CC429C529C629BC018C310C249C
:100390008031003A0319CD29CE29AB29EB29200061
:1003A000CD01CD0A3C088631B42680318C3116242B
:1003B0008031003A0319DD29DE29E32910302000BD
:1003C000D5005508BB073C3020003B02031CE9293F
:1003D000EA29EB29BB018C310C248031003A031946
:1003E000F229F329CF290F2A2000CD013B088631BD
:1003F000B42680318C3116248031003A0319012A49
:10040000022A072A01302000D5005508BB073C30DE
:1004100020003B02031C0D2A0E2A0F2ABB018C313F
:100420000C248031003A0319162A172AF429272BA5
:100430008C31202480318C3116248031003A03190C
:10044000222A242A0130252A00302000D5008C31B0
:100450000C248031003A03192E2A302A0130312A27
:1004600000302000550503191B2A8C310C248031E3
:10047000003A03193C2A3D2A5A2A272B2000CD0195
:10048000CD0A32088631B42680318C311624803171
:10049000003A03194C2A4D2A522A10302000D50068
:1004A0005508B207333020003202031C582A592A5B
:1004B0005A2AB2018C310C248031003A0319612A86
:1004C000622A3E2A7E2A2000CD0132088631B426D7
:1004D00080318C3116248031003A0319702A712A38
:1004E000762A01302000D5005508B20733302000AD
:1004F0003202031C7C2A7D2A7E2AB2018C310C2414
:100500008031003A0319852A862A632A272B8C31E9
:10051000352480318C3116248031003A0319912A18
:10052000932A0130942A00302000D5008C310C240D
:100530008031003A03199D2A9F2A0130A02A0030F9
:100540002000550503198A2A8C310C248031003A89
:100550000319AB2AAC2AC82A272B2000CD0130086A
:100560008631B42680318C3116248031003A03194B
:10057000BA2ABB2AC02A01302000D5005508B0078E
:10058000043020003002031CC62AC72AC82AB00142
:100590008C310C248031003A0319CF2AD02AAD2A9D
:1005A000272B8C31402480318C3116248031003A45
:1005B0000319DB2ADD2A0130DE2A00302000D500B5
:1005C0008C310C248031003A0319E72AE92A0130E2
:1005D000EA2A0030200055050319D42A8C310C2456
:1005E0008031003A0319F52AF62A072B272B200021
:1005F000CD012F088631B42680318C31162480310C
:10060000003A0319042B052B072B2000AF098C316E
:100610000C248031003A03190E2B0F2BF72A272BBD
:1006200020003608D500D6015608003A0319192BC8
:100630005D295508013A03196029033A0319182A5C
:10064000013A0319872A073A0319D12A5D292000A4
:10065000340803192C2B2D2BC92B8B13340839028A
:10066000031C332B342BC82BB9018B1700008331AB
:10067000FC2380312000D5005508B30000008D31E7
:10068000EA25803120004708D5005508B10031081F
:10069000D500D6015508C4005608C5008E31042681
:1006A0008031200033083202031C572B582B5E2B5D
:1006B0003108300203185D2B5E2B642B2F080319C1
:1006C000622B632B642BF7143508D5005508C8003E
:1006D0004208D6005608C900CA010330D70057089F
:1006E000CB0043088F31C127803120003306031D22
:1006F0007A2B7B2B922B3508D5005508C800420871
:10070000D6005608C900CA010430D7005708CB00EC
:1007100043088F31C1278031200031060319912B06
:10072000922BC92B8B133C08D5005508BD003B0804
:10073000D5005508BE003A08D5005508BF008B17F4
:100740003308D5005508C0003108D5005508C10050
:100750003508D5005508CE004230D6005608CF00E7
:100760003D30D7005708D00043308731992780317A
:10077000F9302000CA00F030CB004308D5005508FE
:10078000CC008E31B82680318C31CA248031C92BFF
:100790008B178B13200038080319CF2BD02BF52B88
:1007A000B8013C08D5005508AD003B08D5005508F8
:1007B000AC008B17F630CA00F030CB002D08D50006
:1007C0005508CC008E31B8268031F7302000CA00A1
:1007D000F030CB002C08D5005508CC008E31B8265F
:1007E00080318C31CA248031F62B8B177D18F92B80
:1007F000FA2B492980314F2823000F0C890C01392D
:100800002000C600230011081F3920004604031DE4
:100810000A2C0B2CFC2B230011141118102C112C5A
:100820000D2C23000F0C890C01392000C600230079
:1008300011081F3920004604031D1F2C202C112CE9
:100840009A308531AC25833123000F0C890C013996
:100850002000C600230011081F3920004604031D94
:10086000322C332C242C01308531AC2583312300EC
:100870000F0C890C01392000C600230011081F3914
:1008800020004604031D452C462C372C23009114D0
:1008900091184B2C4C2C482C23000F0C890C01393F
:1008A0002000C600230011081F3920004604031D44
:1008B0005A2C5B2C4C2C9B308531AC25833123008A
:1008C0000F0C890C01392000C600230011081F39C4
:1008D00020004604031D6D2C6E2C5F2C8E31752676
:1008E00083312000C6004608C70023000F0C890C86
:1008F00001392000C600230011081F3920004604DA
:10090000031D832C842C752C230091161116111AAB
:100910008A2C8B2C872C23000F0C890C013920008A
:10092000C600230011081F3920004604031D992C1E
:100930009A2C8B2C2300111511199F2CA02C9C2C68
:100940002000471FA42CA52CFC2B23000F0C890C86
:1009500001392000C600230011081F392000460479
:10096000031DB32CB42CA52C230011141118B92C81
:10097000BA2CB62C23000F0C890C01392000C600BC
:10098000230011081F3920004604031DC82CC92C60
:10099000BA2C9A308531AC25833123000F0C890C99
:1009A00001392000C600230011081F392000460429
:1009B000031DDB2CDC2CCD2C00308531AC258331A4
:1009C00023000F0C890C01392000C60023001108F8
:1009D0001F3920004604031DEE2CEF2CE02C2300D1
:1009E00091149118F42CF52CF12C23000F0C890C88
:1009F00001392000C600230011081F3920004604D9
:100A0000031D032D042DF52C9B308531AC2583313E
:100A100023000F0C890C01392000C60023001108A7
:100A20001F3920004604031D162D172D082D8E3169
:100A3000752683312000C6004608C70023000F0C2E
:100A4000890C01392000C600230011081F3920003D
:100A50004604031D2C2D2D2D1E2D2300911611163D
:100A6000111A332D342D302D23000F0C890C013930
:100A70002000C600230011081F3920004604031D72
:100A8000422D432D342D230011151119482D492DC8
:100A9000452D2000470808002000CA01C51F512D20
:100AA000522D592DC409C509C40A0319C50ACA0122
:100AB000CA0AC71F5C2D5D2D662DC609C709C60A67
:100AC0000319C70A0130C8004808CA06CB01CC0187
:100AD0004408450403196D2D6E2D9D2DC901C90AC9
:100AE0007A2D0130C435C50D890B722D0130C80037
:100AF0004808C907C51F7D2D7E2D712D0130CB35CE
:100B0000CC0D890B7F2D45084702031D892D440814
:100B10004602031C8C2D8D2D922D4408C6024508DB
:100B2000C73B4B140130C536C40C890B932D0130E3
:100B3000C902031D9C2D9D2D7E2D4A080319A12D50
:100B4000A22DA72DCB09CC09CB0A0319CC0A4C083E
:100B5000C5004B08C40008002000C500450823005C
:100B60008C00901FB42DB52DB62D052E0F3010051D
:100B70002000C400083044060319BF2DC02DD92D14
:100B80000F30230010052000C4000B304406031969
:100B9000CA2DCB2DD92D230010162E000F1CD12DC0
:100BA000D22DCD2D23000F19D62DD72D052E0F08B0
:100BB000052E0F30230010052000C4000830440625
:100BC0000319E32DE42DEF2D0F3023001005200035
:100BD000C4000B304406031DEE2DEF2D052E23001F
:100BE0000F18F32DF42DEF2D23000F0C890C013974
:100BF0002000C400230011081F3920004404031DF5
:100C0000022E032EF42D230011080800F71C092ED4
:100C10000A2E202E20002E087B02031C102E112EDF
:100C2000222E0130F4007408FC077C08F400F50162
:100C30007408F0007508F1008D3148258631222EA8
:100C4000FC01FB012000981E262E272E572E7A0825
:100C5000031D2B2E2C2E322E7808F4007408FA0077
:100C60007715572E7A08F40078087402F500790990
:100C70000318890AF600003076020A30031975025B
:100C80000318432E442E562E7A08F4007808740276
:100C9000F50079090318890AF600FF307602F7306B
:100CA000031975020318552E562E572EFA010130DE
:100CB000F8070030F93D0130F4007408FB07080024
:100CC0008B31BF238631031C662E672E972E742E20
:100CD0008B3170238631B32E8B3175238631B32E41
:100CE0008B317F238631B32E21003A08F100710841
:100CF000F6001130A03E86008701413F8A00403F48
:100D00000A008631F200F3017308003A0319892EB4
:100D1000702E7208013A0319702E033A0319682ED7
:100D2000013A03196C2E073A0319702E702E210018
:100D3000A0110230A03E86008701403F840085015B
:100D4000810A00088B316623863101302100A3021D
:100D50000030A43B23082404031DAF2EB02EB22E76
:100D60000630B32E033008002000D1005108CE0019
:100D70004E08D20064305102031CBF2EC02EC12E7B
:100D8000052F4D080319C52EC62ED92E0A30C400D2
:100D90000030C5005108CE00CF014E08C6004F08F4
:100DA000C70085314C25863120004408D00050080A
:100DB000D2005208CE000330CE36890BDC2E4E080E
:100DC000CF00CF0E16084F06EF394F069600520897
:100DD000CE000230CE36890BEA2E4E08CF00CF0E61
:100DE000CF0D16084F06DF394F0696005236CE005B
:100DF000CE0ECE0DCE0D16084E06BF394E0696000D
:100E0000520C031C96130318961708008B314E23BF
:100E10008731F000210022088600870170088100D8
:100E20000130F0007008A2070130A3020030A43B9B
:100E30002308240403191D2F1E2F232F8B315A231F
:100E4000873105304F2F20152D2F8B318E23873181
:100E50004F2F8B31892387314F2F3708F0007008CF
:100E6000F6000B30A03E86008701413F8A00403FDC
:100E70000A008731F100F2017208003A0319412F8C
:100E8000292F7108013A0319292F033A0319252F35
:100E9000013A0319252F073A0319292F292F080092
:100EA00020009A0199019601970198010730950059
:100EB0000F309100FF309200FF309300FF3094001C
:100EC000FF303E00D900C730CE00EF30C3000730FE
:100ED000E400FF30B800DA01E501C401B901CF0137
:100EE000E601BA01C501D001DB01FF30BB00FF30D4
:100EF000C600FF30D100FF30DC000730E700FF30D4
:100F0000BC00FF30C700FF30D200FF30DD000730EB
:100F1000E8000C303D0090001330C50014303E0056
:100F2000A3001530A4000E30960014303D00C6001A
:100F300008002000D4004F08860087010108031D27
:100F4000A22FA32FA82F4F08860087018101810AB5
:100F5000D3015408860087014E080102031CB12FFB
:100F6000B22FB62F540886008701810154088600ED
:100F700087010108003ECA00F0300318F130CB00B1
:100F800053085007D1005108860087010108D2009C
:100F90005208CC008E31B826873101302000D100B4
:100FA000540886008701510881070130D10051089B
:100FB000D30705305302031CDE2FDF2FA92F0800B3
:100FC0002000C701F530C800F030C9004908C5004D
:100FD0004808C4008C31AB2487312000C600460885
:100FE000C7070130C8070030C93DF0304902FF3063
:100FF00003194802031CFD2FFE2FE62F47080800A7
:10167A0008000800080008000130080005300800CA
:10168A002300911408002300111508002300911566
:10169A00080023000C0808002E000F1408002E0072
:1016AA000F1008002E008F10080023009112111647
:1016BA00080023009116111608008B3157238B312D
:1016CA000800F000700823008C0008002100201098
:1016DA00AA010E3008008B3145238B3101300800F6
:1016EA008B3145238B31023008008B3145238B31F6
:1016FA00013008008B3148238B31003008008B31D0
:10170A005A238B31053008008B315E238B310A3026
:10171A0008008B315E238B31093008002E000C1033
:10172A008C3157248B31080020004508A300440857
:10173A00A200080020004508A1004408A0000800F3
:10174A0020004508A5004408A400080064008001A0
:10175A000131890BAC2B00342100A0118B314B23B2
:10176A008B310430080003102100131C03140030CD
:10177A00093D08002300110E890C890C0139F0007B
:10178A00700C08008B3140238B3121002010AA01F4
:10179A000E3008002100A01521358B3166238B31CC
:1017AA00033008002000C400440821009E0093175B
:1017BA00131408002F0096019701980199019A01C4
:1017CA009B0108002100A0150314210D8B3166230B
:1017DA008B310530080021000D082000C5002100CA
:1017EA000C082000C4000800623031008D008F010F
:1017FA00910102309300920108008C314B248C3104
:10180A002000931513163E00CF154F1608008B13B0
:10181A000030F71901302000C400F7118B17440873
:10182A0008008B130030F71901302000C400F711AB
:10183A008B174408080020009601FF30C4000330CB
:10184A00C5008D31D1258C31080020009601003069
:10185A00C400C5008D31D1258C31200096170800AF
:10186A00200096010030C400C5008D31D1258C318D
:10187A00200096160800200096010030C400C5001A
:10188A008D31D1258C312000161608002300901ABC
:10189A004F2C502C562C8F01283090009101033088
:1018AA008D00080020002208230403195D2C5E2CF9
:1018BA00632C23088A0022080A008C310800803031
:1018CA0027008E003E308D0040308C0024001F0817
:1018DA00F33904389F00080020004508F100440845
:1018EA00F0004608F5007508F20000308E31DC265B
:1018FA008C3108002E000C100B143D302000C4005F
:10190A000B30C5008B3199238C312E001614080038
:10191A002E008C122000200821040319952C962CE5
:10192A009B2C21088A0020080A008C31080001300B
:10193A002500900020308F009101F9308D008C0134
:10194A002E009010803025008E00080020004508E7
:10195A0030009B002000440830009A001E171E1415
:10196A000000000030001C080800F3002100201DC0
:10197A00BF2CC02CC92C7308F2007208A20071088F
:10198A00A4007008A30020110800FF302000CA003C
:10199A00F030CB008731E0278C312000CE004E0892
:1019AA00CC008E31B8268C31080024000E1DDE2CA6
:1019BA00DF2CE62C0E1071088D0070088C000E14B6
:1019CA00EA2C71088D0070088C0008000230F000C3
:1019DA000030F10076088C31BA248C3100302000B6
:1019EA00C400C500C6018C3171248C310430080052
:1019FA000130F0000030F10076088C31BA248C31C5
:101A0A0000302000C400C500C6018C3171248C311D
:101A1A00043008000130F0000030F10076088C3103
:101A2A00BA248D3100302000C400C500C6018C31B3
:101A3A0071248D31023008000230F0000030F100CC
:101A4A0076088C31BA248D3100302000C400C500DC
:101A5A00C6018C3171248D3102300800903020008B
:101A6A009F001E309D009C012E008C1296163E305F
:101A7A002000C4000B30C5008B319F238D3180308C
:101A8A0020009E0008007108F3007008F200F33687
:101A9A00F20CF336F20C720827008D007008033935
:101AAA00F2000530F235FF3E031D572D72358C00CA
:101ABA00080022008E018F01900191019201930189
:101ACA008D0121009E019B019401950196019701C8
:101ADA009A0199019801843093009D010800200021
:101AEA00C700C601471C7A2D7B2D7F2D4408C500EF
:101AFA004508C6070310C40D0310C70C4708031D89
:101B0A00872D882D772D4608080003102000961F80
:101B1A0003140318912D942D20009617962D20005A
:101B2A009613771A992D9A2D9F2D8E3194268D31E1
:101B3A007716A02D771208002E0010102000270813
:101B4A00F1002608F0008C31DA248D3120002408B7
:101B5A0025040319B12DB22DB72D25088A002408B2
:101B6A000A008D310800760886008701403FF000A0
:101B7A00413FF1007608023E8600870101088C3158
:101B8A00BA248D3100302000C400C500C6018C3152
:101B9A0071248D310230080020004508C70044082E
:101BAA00C600C736C60CC736C60C460827008D00C5
:101BBA00200044080339C6000530C635FF3E031D20
:101BCA00E22D463527008C00080000308B31D723E0
:101BDA008D31F32D5330890BF02D00008B31B82352
:101BEA008D31003A0319FA2DFB2DEF2D8B31F0239D
:101BFA008D3120004508C7004408C60008002000AF
:101C0A0044080139C600C60E16084606EF394606CC
:101C1A0096004508C7004408C600C736C60C4608E1
:101C2A00C800C80EC80D16084806DF3948069600CF
:101C3A0008008B31DF238E31873150278E318B316B
:101C4A00F9238E318C3164248E318D315E258E31AB
:101C5A008C319C248E318C317F248E318E315626E4
:101C6A008E318D3133258E310800F5302000CE00BB
:101C7A00F030CF004F08CB004E08CA00CC018E319D
:101C8A00B8268E3101302000CE070030CF3DF1302A
:101C9A004F02003003194E02031C542E552E3F2EBC
:101CAA00080024008F01900104309100E1308D007A
:101CBA00BA308C000D082000A70024000C08200070
:101CCA00A6002E0010101A143F302000C4000B305A
:101CDA00C5008B31A5238E31153024008E000800F3
:101CEA000F30230010052000C400083044060319F1
:101CFA007F2E802E8B2E0F30230010052000C4006B
:101D0A000B304406031D8A2E8B2E8D2E230091152F
:101D1A0023000F1C912E922E8D2E0C0808000130E4
:101D2A00F00070082000BA070130F0007008B90707
:101D3A003C303A02031CA22EA32EB72E0130F0002B
:101D4A007008BB070130F0007008B807BA013C30D0
:101D5A003B02031CB12EB22EB72E0130F0007008E0
:101D6A00BC07BB01080000308B1B01302000CD00EE
:101D7A004B0830009B0020004A0830009A002000DF
:101D8A004C0830009C001E171E158B1355309F00FF
:101D9A00AA309F009E149E18D32ED42ED02E1E1128
:101DAA0020004D0C031C8B1303188B170800F4003A
:101DBA00700871040319E22EE32EF42E7435AB3E3B
:101DCA00860087017008C03F7108C13F7208F3009E
:101DDA007408B73E8600870173088100012F7435A5
:101DEA00AB3E860087014130C03F0B30C13F7408CB
:101DFA00B73E86008701810108008B3154238F3159
:101E0A002100A01D092F0A2F162F8B31BF238F31D6
:101E1A00031C102F112F162F0F30F4007408210005
:101E2A00A90021002908F400F501F435F50D003068
:101E3A00740784009030753D8500013F8A00003F99
:101E4A000A008F31F60076082100A9000800210057
:101E5A00A0110230F0007008AA003B2F8B317A23C0
:101E6A008F31572F8B317F238F31572F3908F0004D
:101E7A007008F6000F30A03E86008701413F8A00B5
:101E8A00403F0A008F31F100F2017208003A03194B
:101E9A004F2F372F7108023A0319332F013A0319CA
:101EAA00332F372F080021002015682F8B317A2312
:101EBA008F318A2F8B3151238F3103308A2F8B3107
:101ECA007F238F318A2F3708F0007008F6000B3015
:101EDA00A03E86008701413F8A00403F0A008F31B9
:101EEA00F100F2017208003A03197C2F642F71087D
:101EFA00013A0319642F033A03195B2F013A0319B4
:101F0A005B2F073A03195F2F642F08002000370858
:101F1A00031D902F912F9B2F7808F0007008B700AF
:101F2A00F7150130F0007008B607C02F3708F00027
:101F3A0078087002F10079090318890AF200003062
:101F4A0072020A30031971020318AC2FAD2FBF2F8A
:101F5A003708F00078087002F10079090318890A35
:101F6A00F200FF307202F730031971020318BE2F14
:101F7A00BF2FC02FB70108002000CF004A0848022F
:101F8A00031CC82FC92FF32F49080319CD2FCE2FB1
:101F9A00F32F0530CC004C08C4004A088D31742553
:101FAA008F3120004B07CD004D08D00050084F025A
:101FBA00031CE02FE12FE82F4F085007FB3ECC000F
:101FCA004C08CE00F52F4F03FF3ACC0050084C02C4
:101FDA004807053ECD004D08CE00F52F0030FF2FF3
:101FEA004E08003EC400F0300318F130C5008C31B1
:101FFA00AB248F3108006B340B34E7340B34CF3405
:10200A000B346034063406340734B1340B34583494
:10201A000F3470340B3475340B347A340B347F3408
:10202A000B3484340B3489340B348E340B34C73478
:06203A000B342C340F34BE
:020000040001F9
:0A000E00EC3FFF3F8E0FFF3FFF3F66
:00000001FF
