:020000040000FA
:0400000080312B28F8
:100008007E1480310B1F09280A2829282E00191E62
:100018000E280F281A280F1E122813281A28220023
:100028006F088A006E080A0080312928991E1D2849
:100038001E2829288F1E21282228292822006D08F9
:100048008A006C080A00803129287E100900803156
:100058002D28463084008B308500583086000130CA
:1000680087000E308B3110238031FC01C7308400AB
:10007800003085000D308B310A2380312030840018
:100088000130850038308B310A238031BC30840040
:10009800013085000E308B310A2380317E1020001C
:1000A8008E31AC2E2100B50020005708860087014C
:1000B800403FD900413FDA00590884005A088500BA
:1000C8001200253A031D69286A286E2A57088600F7
:1000D80087010130810741310318810A2100C901D4
:1000E800CA01CD01CE01FF30CB00FF30CC00B101F9
:1000F800B201C12821004D1420005708860087014D
:100108000130810741310318810AC1282100CD142B
:10011800802821004D1580282100CD158028210038
:100128004D16802801302100B1000030B200C128EE
:100138002000570886008701403FD900413FDA0078
:10014800590884005A0885000008DB00DC015C08B7
:10015800003A0319B02896285B08203A031990281A
:10016800033A03199328083A03198D28063A031904
:100178007E281D3A03198A2896282100310832045E
:100188000319C728C8289C284D1CCB28CC28D02860
:10019800FD30CD05FF30CE052000570886008701C9
:1001A800403FD900413FDA00590884005A088500C9
:1001B80012002A3A031DE128E2280229570886007E
:1001C80087010130810741310318810A58088600E8
:1001D800870101088400850102308107003F210062
:1001E800C900013FCA00CA1FFA28FB2848294D1434
:1001F800C909CA09C90A0319CA0A48295708860039
:100208008701403FF700413FF8008F315127803187
:1002180078082100CA007708C9001B292000570860
:10022800860087010130810741310318810A2000C7
:10023800570886008701403FD900413FDA00590836
:1002480084005A0885000008D03EDB00FF30031800
:100258000030DC0000305C020A3003195B02031C2A
:1002680036293829013039290030DD00DE015D08E2
:100278002100B30020005E082100B40033083404D4
:10028800031D47294829122920005708860087019D
:10029800403FD900413FDA00590884005A088500D8
:1002A8001200643A031959295A296B2957088600FC
:1002B8008701403FD900413FDA00590884005A08B5
:1002C80085001200693A031D6A296B29B929570864
:1002D800860087010130810741310318810A5808D7
:1002E8008600870101088400850102308107003FEC
:1002F800D900013FDA0059082100A00020005A085F
:100308002100A100890D893B8909A200A300A4004E
:10031800A500A600A70020082000B10021002108A0
:100328002000B200210022082000B3002100230889
:100338002000B400210024082000B5002100250871
:100348002000B600210026082000B7002100270859
:100358002000B8002100350884310B2480312000AA
:100368003208D8003108D700932A57088600870139
:10037800403FD900413FDA00590884005A088500F7
:100388001200783A0319C929CA29DB2957088600B7
:100398008701403FD900413FDA00590884005A08D4
:1003A80085001200583A031DDA29DB29372A570835
:1003B80086008701403FD900413FDA005908840090
:1003C8005A0885000008DB005B082100B000200007
:1003D8005708860087010130810741310318810AD7
:1003E80058088600870101088400850102308107CA
:1003F800003F2100A800013FA900AA01AB01AC0100
:10040800AD01AE01AF0128082000B1002100290884
:100418002000B20021002A082000B30021002B0888
:100428002000B40021002C082000B50021002D0870
:100438002000B60021002E082000B70021002F0858
:100448002000B800210030082000D9005908B90060
:100458002100350882319422803120003208D800EA
:100468003108D700932A570886008701403FD900F2
:10047800413FDA00590884005A0885001200253ADD
:10048800031D472A482A632A570886008701013036
:10049800810741310318810A2530F4000030F50046
:1004A800210035082000D9005908F6008E311D2694
:1004B800803101302000D7000030D800932A570837
:1004C800860087010130810741310318810AD7016D
:1004D800D801932A570886008701403FD900413F39
:1004E800DA00590884005A0885000008DB00DC019E
:1004F8005B08F4005C08F500210035082000DD00E9
:100508005D08F6008E311D268031200057088600D0
:1005180087010130810741310318810A5D2A0800EB
:100528002000C6002100CC1B9A2A9B2A9F2AFD3056
:10053800CD05FF30CE054C08803A2000BA00803047
:100548003A02031DAA2A013021004B020318AD2AE2
:10055800AE2AB42A01302000C7000030C800BC2AE7
:1005680021004C082000C80021004B082000C700CB
:1005780021004A082000CA00210049082000C900BB
:1005880021004D1EC82AC92ACE2AFE302000C907DC
:10059800FF30CA3D20003108CB003208CC003308B8
:1005A800CD003408CE003508CF003608D000370813
:1005B800D1003808D2001F30D3000030D400220008
:1005C800D7019C2BFF302000D307FF30D43D0F30DC
:1005D8004B05D50000304C05D6005608803ABA00C5
:1005E80080303A02031DFA2A0A305502031CFD2AFC
:1005F800FE2A062B20005508573ED5000030563DF0
:10060800D6000D2B20005508303ED5000030563D51
:10061800D6003908BF3EBA00FF3003180030BB00CF
:1006280000303B021A3003193A02031C1C2B1E2B04
:1006380001301F2B0030BC00BD013C08C2003D0842
:10064800C3004208430403192A2B2B2B5A2B2030B2
:100658005504BA0000305604BB003A089F3EBC005F
:10066800FF303B3DBD0000303D021A3003193C020B
:10067800031C3F2B412B0130422B0030BE00BF0131
:100688003E08C4003F08C5004408450403194D2B23
:100698004E2B5A2B5608F8005508F7008C31A62423
:1006A800823178082000D6007708D5005508BA00AE
:1006B8005308383E8600013087003A088100FF3031
:1006C800C707FF30C83DFF30C907FF30CA3D4B3070
:1006D800860000308700403FBA00413FBB00423FE0
:1006E800BC00433FBD00443FBE00453FBF00463FFE
:1006F800C000473FC10004302000C136C00CBF0C09
:10070800BE0CBD0CBC0CBB0CBA0C890B802B20009A
:100718004108D2004008D1003F08D0003E08CF0071
:100728003D08CE003C08CD003B08CC003A08CB0081
:1007380020005408803ABA0080303A02031DA62BE4
:1007480002305302031CA92BAA2BD72B20004B08DD
:100758004C044D044E044F04500451045204031D2C
:10076800B62BB72BE62A4808803ABA0080303A02FE
:10077800031DC02B013047020318C32BC42BE62AE4
:1007880020004A08803ABA0080303A02031DCE2B76
:1007980001304902031CD12BD22BD72B2100CD18B5
:1007A800D62BD72BE62A21004D1EDB2BDC2BF72B73
:1007B800FF302000D307FF30D43D3908BA00530872
:1007C800383E8600013087003A088100FF30D307A1
:1007D800FF30D43D3030BA005308383E860001302F
:1007E80087003A08810020005308383EBA003A08CA
:1007F800A8004A08AA004908A900460887316627C0
:10080800823120002908B2002808B1000800200021
:10081800BE003108C5003208C6003308C7003408D6
:10082800C8003508C9003608CA003708CB003808A0
:10083800CC004530860000308700473FB900B91B1F
:10084800262C282C0130292C00302000BA00BB01AE
:100858003A08C3003B08C400430844040319352C74
:10086800362C542CC509C609C709C809C909CA09BB
:10087800CB09CC09C50A031D542CC60A031D542CE8
:10088800C70A031D542CC80A031D542CC90A031D8A
:10089800542CCA0A031D542CCB0A031D542CCC0A11
:1008A8002100CC1B582C592C5D2CFD30CD05FF3078
:1008B800CE054C08803A2000B90080303902031D6B
:1008C800682C013021004B0203186B2C6C2C722C05
:1008D80001302000BF000030C0007A2C21004C08F5
:1008E8002000C00021004B082000BF0021004A085A
:1008F8002000C200210049082000C1004308440428
:10090800031D872C882C8D2C21004D1D8C2C8D2CA3
:10091800922CFF302000C107FF30C23D1F3020005D
:10092800CD000030CE002200D701032DFF3020007B
:10093800CD07FF30CE3D0A30A000A101A201A301DE
:10094800A401A501A601A7014508A8004608A90019
:100958004708AA004808AB004908AC004A08AD009F
:100968004B08AE004C08AF0086317C26843120004D
:100978002108F5002008F4008B31B2238431740873
:10098800303E2000B9004D08383E8600013087000F
:1009980039088100FF30BF07FF30C03DFF30C10775
:1009A800FF30C23D0A30A000A101A201A301A401A9
:1009B800A501A601A7014508A8004608A9004708FF
:1009C800AA004808AB004908AC004A08AD004B082B
:1009D800AE004C08AF0085317B258431200020080B
:1009E800C5002108C6002208C7002308C80024083B
:1009F800C9002508CA002608CB002708CC0020001B
:100A08004E08803AB90080303902031D0D2D01309F
:100A18004D02031C102D112D3E2D200045084604C3
:100A28004704480449044A044B044C04031D1D2D83
:100A38001E2D9A2C4008803AB90080303902031DD7
:100A4800272D01303F0203182A2D2B2D9A2C200028
:100A58004208803AB90080303902031D352D013033
:100A68004102031C382D392D3E2D2100CD183D2D76
:100A78003E2D9A2C200043084404031D442D452D87
:100A88004A2D21004D1D492D4A2D672DFF3020008C
:100A9800CD07FF30CE3D43084404031D542D552D8A
:100AA8005A2D2B30BC000030BD005E2D2D30BC000F
:100AB8000030BD003C08B9004D08383E86000130C2
:100AC80087003908810020004D08383EB9003908F0
:100AD800A8004208AA004108A9003E0887316627F5
:100AE800843120002908B2002808B1000800F30169
:100AF8002030860000308700473FF100F11F852D28
:100B0800862DA72D2000A009A109A209A309A409DF
:100B1800A509A609A709A00A031DA52DA10A031D59
:100B2800A52DA20A031DA52DA30A031DA52DA40A00
:100B3800031DA52DA50A031DA52DA60A031DA52D78
:100B4800A70AF301F30A2830860000308700473FE0
:100B5800F100F11FB02DB12DD42D2000A809A9094D
:100B6800AA09AB09AC09AD09AE09AF09A80A031D6A
:100B7800D02DA90A031DD02DAA0A031DD02DAB0A1A
:100B8800031DD02DAC0A031DD02DAD0A031DD02D99
:100B9800AE0A031DD02DAF0A0130F1007108F3062B
:100BA80074308600003087000830F10000301E00E5
:100BB800F10BDB2D20002008210422042304240447
:100BC8002504260427040319EA2DEB2D472EF201EC
:100BD800F20AFA2DA035A10DA20DA30DA40DA50DA5
:100BE800A60DA70D0130F1007108F207A71FFD2D12
:100BF800FE2DEE2DF435F50DF60DF70DF80DF90D6A
:100C0800FA0DFB0D27082F02031D242E26082E029D
:100C1800031D242E25082D02031D242E24082C0232
:100C2800031D242E23082B02031D242E22082A022A
:100C3800031D242E21082902031D242E2008280222
:100C4800031C272E282E392E2008A8022108A93B8C
:100C58002208AA3B2308AB3B2408AC3B2508AD3B44
:100C68002608AE3B2708AF3B7414A736A60CA50C84
:100C7800A40CA30CA20CA10CA00C0130F202031DC1
:100C8800462E472EFE2D730803194B2E4C2E6A2E26
:100C9800F409F509F609F709F809F909FA09FB0948
:100CA800F40A031D6A2EF50A031D6A2EF60A031DAF
:100CB8006A2EF70A031D6A2EF80A031D6A2EF90A1E
:100CC800031D6A2EFA0A031D6A2EFB0A7408200007
:100CD800A0007508A1007608A2007708A30078088C
:100CE800A4007908A5007A08A6007B08A7000800D8
:100CF800F3012830860000308700473FF100F11FDC
:100D0800862E872EA82E2000A809A909AA09AB09B2
:100D1800AC09AD09AE09AF09A80A031DA62EA90A98
:100D2800031DA62EAA0A031DA62EAB0A031DA62E76
:100D3800AC0A031DA62EAD0A031DA62EAE0A031D7E
:100D4800A62EAF0AF301F30A203086000030870090
:100D5800473FF100F11FB12EB22ED12E2000A0097D
:100D6800A109A209A309A409A509A609A709A00A16
:100D7800031DD12EA10A031DD12EA20A031DD12EB7
:100D8800A30A031DD12EA40A031DD12EA50A031DF3
:100D9800D12EA60A031DD12EA70A2000200821045F
:100DA8002204230424042504260427040319DD2E21
:100DB800DE2E312FF201F20AED2EA035A10DA20D83
:100DC800A30DA40DA50DA60DA70D0130F100710806
:100DD800F207A71FF02EF12EE12E27082F02031D80
:100DE8000F2F26082E02031D0F2F25082D02031D85
:100DF8000F2F24082C02031D0F2F23082B02031D7D
:100E08000F2F22082A02031D0F2F21082902031D74
:100E18000F2F20082802031C122F132F232F20081E
:100E2800A8022108A93B2208AA3B2308AB3B2408B7
:100E3800AC3B2508AD3B2608AE3B2708AF3BA736A1
:100E4800A60CA50CA40CA30CA20CA10CA00C0130A0
:100E5800F202031D302F312FF12E73080319352F9D
:100E6800362F542FA809A909AA09AB09AC09AD095D
:100E7800AE09AF09A80A031D542FA90A031D542F50
:100E8800AA0A031D542FAB0A031D542FAC0A031DD5
:100E9800542FAD0A031D542FAE0A031D542FAF0A59
:100EA80020002808A0002908A1002A08A2002B0871
:100EB800A3002C08A4002D08A5002E08A6002F08C2
:100EC800A70008002000B00021004D1C6C2F6D2FDA
:100ED800762F20003008AB002B08A00028088C31A2
:100EE800F22487312000AA1B7A2F7B2F802F2A0813
:100EF800AF002908AE00822FAE01AF01AC01AD01F1
:100F0800962F2030F4000030F50020003008AB00A8
:100F18002B08F6008E311D26873101302000AC07E2
:100F28000030AD3D2D08803AAB002F08803A2B02E7
:100F3800031DA02F2E082C02031CA32FA42F852FDE
:100F480021004D18A82FA92FB22F20003008AB0080
:100F58002B08A00028088C31F224873120002808AB
:100F68008B31CC23873120002E087107A8002F0869
:100F7800723DA900080020009A0199019601970185
:100F88009801073095007F309100FF309200BF3004
:100F98009300FF309400FF303E00D9007F30CE0030
:100FA800FF30C3000730E400FF30B800DA01E50184
:100FB800C401B901CF01E601BA01C501D001DB01C5
:100FC800FF30BB00FF30C600FF30D100FF30DC002F
:100FD8000730E700FF30BC00FF30C700FF30D20009
:100FE800FF30DD000730E80017303D00CB0010303F
:080FF8003E00A60008000800FD
:1015B4008B31E6238A31080022001D121D16080013
:1015C40022001E0C0139080072082200E70071088D
:1015D400E600080072082200EB007108EA00080027
:1015E40072082200E9007108E8000800720822006D
:1015F400ED007108EC00080072082200EF00710889
:10160400EE000800F30073088D311B258B310800B0
:10161400640080010131890B0B2B0034FE001200A1
:101624001E00FE0B112B00342F0096019701980128
:1016340099019A019B010800623031008D008F01ED
:101644009101023093009201080021005008031D0B
:101654002C2B2E2B01302F2B003008002100540896
:10166400031D352B372B0130382B003008008B310C
:1016740016238B318731BF278B318B311E238B315E
:101684008D31DE258B310800683465346C346C345C
:101694006F3420346D3469346B3465340A340D345A
:1016A40000340034B8302000E7006708EA00210065
:1016B40037082000E000210036082000DF006A30EF
:1016C400E7006708E10000308D3172258B31080096
:1016D4007108D03EF300FF30723DF4000030740214
:1016E4000A3003197302031C782B7A2B01307B2BED
:1016F4000030F500F6017508F1007608F2000800E4
:101704007108BF3EF300FF30723DF40000307402F4
:101714001A3003197302031C902B922B0130932B64
:101724000030F500F6017508F1007608F2000800B3
:1017340071089F3EF300FF30723DF40000307402E4
:101744001A3003197302031CA82BAA2B0130AB2BEC
:101754000030F500F6017508F1007608F200080083
:101764007508803AF60080307602031DBB2B0130E9
:1017740074020318BE2BBF2BCB2B7409F60075091A
:10178400F700F60A0319F70A7608F4007708F5005B
:10179400CB2B0800F5007508F3007308F400D62B72
:1017A4000130F3007308F5077508860001308700DF
:1017B4000108031DDE2BDF2BD22B74087502F10008
:1017C400F201F11BF203080022001908F0007C0862
:1017D400283E860001308700700881000130F00047
:1017E4007008FC0708307C02031CF92BFA2BFB2B36
:1017F400FC010130F00070082100D00708002030FF
:101804007104F30000307204F40073089F3EF50085
:10181400FF30743DF600003076021A300319750269
:10182400031C152C172C0130182C0030F700F8017C
:101834007708F1007808F2000800F501F601711C40
:10184400242C252C292C7308F5077408F63D013047
:10185400F335F40D890B2A2C0130F236F10C890B87
:101864002F2C71087204031D382C392C212C760876
:10187400F2007508F1000800F501F50A2030710640
:1018840072040319462C472C572C7108F73EF300B9
:10189400FF30723DF4000030740205300319730206
:1018A400031C552C562C572CF5017508F300F40134
:1018B4007308F1007408F200080008302100540293
:1018C4000318652C662C7F2C5208303E86000130AC
:1018D4008700010822009A000130F00070082100FE
:1018E400D20708305202031C782C792C7A2CD201AE
:1018F4000130F0007008D407812C2E001912080062
:10190400F4008B3130238C31003A03198A2C8B2C50
:10191400962C730803198F2C902C922C2000961768
:1019240074088D311B258C31730803199A2C9B2C58
:10193400A52C8A31E2228C31003A0319A22CA32C63
:101944009B2C20009613080077089F3E2000A000DF
:10195400FF30783DA100003021021A300319200223
:10196400031CB52CB72C0130B82C0030A200A30105
:101974002208F9002308FA0079087A040319C32C11
:10198400C42CCB2C5F307705F70000307805F800C5
:10199400CB2C0800F700F801DF2CF3017808770757
:1019A400F600760886000130870001088C31822415
:1019B4008C310130F6007608F80778087502031CAC
:1019C400E42CE52CF12C78087707F60076088600DD
:1019D400013087000108031DF02CF12CCF2C0800E6
:1019E4002000A700A501A6010A2D2408A100A20138
:1019F4002108F4002208F5002008A3002308F600BB
:101A04008E311D268C3101302000A5070030A63D03
:101A140025082707A1002108860001308700010856
:101A2400A2002208A4002408031D192D1A2DF72C46
:101A34000800F200210054080319212D222D1C2D29
:101A44002E00191A262D272D2B2D720822009A00FC
:101A5400432D19127208F10021005308303E86000C
:101A640001308700710881000130F1007108D3074B
:101A740008305302031C3F2D402D412DD30101306A
:101A8400D4022E00191608002100500803194B2D0A
:101A94004C2D462D5108203E860001308700010858
:101AA400F1007108CF005108283E860001308700FC
:101AB4000108F1007108F2000130F1007108D1074A
:101AC40008305102031C672D682D692DD1012E00A9
:101AD400991201302100D0022E00991672080800D4
:101AE4002000E4006008E6005F08E5002100C7016B
:101AF400C801902D6530E2006208D7006108E30058
:101B04006308D8006408803156208D3120005708BE
:101B14002100C707200058082100C83D200065089F
:101B24008400660885001200031D992D9A2D7C2DD2
:101B3400210048082000E000210047082000DF00C1
:101B440008007C08203E86000130870081012200C5
:101B54001D1DAD2DAE2DB92D7C08203E8600013013
:101B6400870081146B088A006A080A008D312200FC
:101B74009D1CBD2DBE2DC92D7C08203E8600013044
:101B84008700011569088A0068080A008D317C08FD
:101B9400203E86000130870001080319D22DD32D81
:101BA400DA2D220067088A0066080A008D31DD2DCF
:101BB4008B31E6238D3108002E009912A330F100F9
:101BC4000D30F2008A31F8228D312E0019125F3067
:101BD400F1000C30F2008A31FE228D310A302200ED
:101BE4009F0090309D0024309E0019309B009C0182
:101BF400FF30F1000730F2008A31EC228D31DE3003
:101C0400F1000A30F2008A31F2228D31DA30F1002B
:101C14000A30F2008A31E6228D312100CF01D3014E
:101C2400D2010830F3007308D400FC01D101D001C3
:101C34002E009916080076080319212E222E272E2D
:101C44007608031D262E272E2C2E74088B31042390
:101C54008E315B2E7608033E860087011600010450
:101C64000319352E362E532E7608033E860087013F
:101C7400403FF700413FF800760A86008701403F65
:101C8400F900413FFA007A08803AFB007808803A6C
:101C94007B02031D4F2E770879020318522E532E10
:101CA4005B2E760A860087010130810741310318D3
:101CB400810A08002100C2003030C0004008C4007E
:101CC400C301932E5330890B652E00008B312723DB
:101CD4008E31003A03196F2E702E642E8D314625F5
:101CE4008E312100C0004008C40044088E31FD2616
:101CF4008E3121004408C00043084207C100410856
:101D04008600013087004008810043084207C00074
:101D1400400A86000130870081010130C00040087C
:101D2400C30720006E082100430203189A2E9B2E3D
:101D3400A12E0A304406031DA02EA12E682E2000D9
:101D44006E082100C0004008F50042088C31CC2404
:101D54008E3108008B3139238E31583086000130A2
:101D64008700A0308400013085000E302100C500BA
:101D740016001A00C50BBA2EAE308600013087005B
:101D84000E30C50000301E00C50BC52E8B170B1777
:101D9400200096130E302100C5004508F500A03040
:101DA4008C31CC248E312E008F1AD92EDA2EE22ECD
:101DB4008B3127238E31003A0319E12EE22EED2ECA
:101DC4000E302100C50045082000EE00AE308E31F3
:101DD4005C268E31D52E02302100C6004530C50068
:101DE400A930890BF32EC50BF32EC60BF32E00324C
:101DF400D52E80312B282000ED00092F1230210030
:101E0400B6009030B7008B3154238E313D2F6D08CE
:101E1400EB00EC016C08003A0319112F3D2F6B08FD
:101E2400C03A03193D2F013A03193D2F033A031910
:101E34003D2F013A03193D2F073A03193D2F013A6B
:101E440003193D2F033A03193D2F013A03193D2F7E
:101E54000F3A03193D2F013A03193D2F033A031991
:101E64003D2F013A03193D2F073A03193D2F313A0B
:101E74000319002F3D2F19302100B6009030B70010
:101E840020006D08EB00EC016B082100B800200075
:101E94006C082100B9008B3154238E3108002000D6
:101EA400AB01AC01A401A5015B2F0130F7070030A1
:101EB400F83DAA01AA0A7708840078088500120070
:101EC400203A0319662F672F7C2F7708840078083F
:101ED40085000008F73EA000FF3003180030A10081
:101EE40000302102053003192002031C7A2F7B2FB6
:101EF4007C2FAA012A08A000A1012008A60021081D
:101F0400A70026082704031D882F892F572F932FF6
:101F14000130A4000030A5000130F7070030F83D7F
:101F2400C72F77088400780885000008A000A10165
:101F34002108003A03199F2FC72F20082B3A0319B1
:101F44008E2F063A03198A2FC72F77088400780842
:101F540085000008A0002C08F2002B08F1000A30CC
:101F6400F3000030F4008C311F248F3172082000FC
:101F7400A20020087102A100031CA2032108303E24
:101F8400AB000030223DAC008E2F77088400780827
:101F940085000008D03EA000FF3003180030A100E7
:101FA400003021020A3003192002031CDA2FDC2F2F
:101FB4000130DD2F0030A200A3012208A80023086D
:101FC400A90028082904031DE82FE92FA72F2408B6
:101FD4002504031DEE2FEF2FFB2F2B09A0002C0946
:101FE400A100A00A0319A10A2008F7002108F8009B
:101FF400FF2F2C08F8002B08F70008002534303494
:10200400323478342534303432347834253430342E
:102014003234783425343034323478340A34003469
:1020240042346534673469346E34203400342534E2
:0620340064340A3400349C
:020000040001F9
:0A000E00EC3FFF3F9F3FFF3FFF3F25
:00000001FF
