:020000040000FA
:1000000080315B28053008007E1480312E00161CDC
:100010000A280B2813280C1C0E280F2813288A31B5
:10002000F22280315928961E162817281F288C1E68
:100030001A281B281F288B31FC23803159280B1FBD
:100040002228232859281A1C262827282F28101C44
:100050002A282B282F288C31E62480315928991CF6
:10006000322833283E288F1C362837283E28200087
:1000700035088A0034080A0080315928191C4128A3
:1000800042284D280F1C452846284D2820003308BB
:100090008A0032080A00803159289A1C50285128B9
:1000A0005928901C5428552859288C310B2480310C
:1000B00059287E10090080315D281E3084008B3065
:1000C00085005D3086000030870007308B310A23C1
:1000D0008031FD01203084000030850024308B31D8
:1000E00004238031A03084000030850022308B3121
:1000F000042380317E10200080317E288D319325AD
:1001000080318B317A2380312D302000C7000D30B3
:10011000C8008B31682380314D302000C7000F307C
:10012000C8008A31FE228031EC302000C7000E303A
:10013000C8008A31F8228031AF302000C7000B3070
:10014000C8008B317123803196302000D8005808C8
:10015000E300C201C301B601B60AB701A201A301BF
:10016000A001A101A401A501BA018B31BB238031FB
:1001700083318523803100302000C700C8008D31D5
:10018000462580312000B8013E0044168B170B171E
:10019000630000002E001A1020003C08D800580808
:1001A0002100C6002E001A14200062082100460219
:1001B000031CDB28DC28C8282E001A102000BC01F4
:1001C0002E001A1420003908031DE728E828DE292C
:1001D0008D315F25803120004A08A7004908A6001C
:1001E0002708D9002608D8005908D800D90158088E
:1001F000A2005908A3002308C8002208C7008D31B7
:10020000792580315330890B0329000000008231A9
:10021000352280312000D8005808B70000002100A6
:10022000C701C70A0030200023020330031922024D
:1002300003181B291C29242965303702031821299A
:10024000222924292100C701210047082000360562
:10025000D800D9015808A0005908A1006308D800A7
:100260005808CB004308D9005908CC00CD01033011
:10027000DA005A08CE0042088F31812780312000F1
:100280003706031D4429452963296308D800580807
:10029000CB004308D9005908CC00CD010430DA0066
:1002A0005A08CE0042088F31812780312000DB00C0
:1002B000DC0123085C06031D5F2922085B06031985
:1002C00062296329A5292E001A1020004108D800B0
:1002D00058082100BD0020004008D800580821001F
:1002E000BE0020003F08D80058082100BF002E00A3
:1002F0001A1420003708D80058082100C000200038
:100300002208D80058082100C10020006308D80046
:100310005808D1004330D9005908D200BD30DA0066
:100320005A08D30042308731AA278031F9302000A3
:10033000CD00F030CE004208D8005808CF008E31F2
:10034000492680318C312A24803120002008210464
:100350000319AB29AC29CE2902303806031DB12977
:10036000B229BE290130A4070030A53D2508C800E8
:100370002408C7008D3146258031EA293808031D3D
:10038000C229C329DD292E0096168A31B622803172
:1003900002302000D8005808B800EA290230380698
:1003A000031DD329D429EA290030C700C8008D31A4
:1003B000462580312000B801EA29EA293903031DC6
:1003C000E229E329EA292E00161084311D24803108
:1003D0002E00161404302000D8003D30890BEE2981
:1003E000D80BEE2900320230200038060319F92913
:1003F000FA29E2282E001A1020003B080319012ACE
:10040000022A302ABB014108D80058082100C20046
:1004100020004008D80058082100C3002E001A14FC
:10042000F6302000CD00F030CE0021004208200040
:10043000D8005808CF008E3149268031F73020008F
:10044000CD00F030CE00210043082000D80058082D
:10045000CF008E31492680318C312A248031C82842
:100460002E001A14C82880315B2823000F0C890C39
:1004700001392000C900230011081F392000490458
:10048000031D432A442A352A230011141118492A2E
:100490004A2A462A23000F0C890C01392000C90082
:1004A000230011081F3920004904031D582A592A26
:1004B0004A2A9A3085316825823123000F0C890C35
:1004C00001392000C900230011081F392000490408
:1004D000031D6B2A6C2A5D2A013085316825823123
:1004E00023000F0C890C01392000C90023001108DA
:1004F0001F3920004904031D7E2A7F2A702A230009
:1005000091149118842A852A812A23000F0C890CC2
:1005100001392000C900230011081F3920004904B7
:10052000031D932A942A852A9B30853168258231C0
:1005300023000F0C890C01392000C9002300110889
:100540001F3920004904031DA62AA72A982A8D31A5
:10055000EA2582312000C9004908CA0023000F0C97
:10056000890C01392000C900230011081F3920001F
:100570004904031DBC2ABD2AAE2A23009116111678
:10058000111AC32AC42AC02A23000F0C890C01396E
:100590002000C900230011081F3920004904031D51
:1005A000D22AD32AC42A230011151119D82AD92AEC
:1005B000D52A20004A1FDD2ADE2A352A23000F0C07
:1005C000890C01392000C900230011081F392000BF
:1005D0004904031DEC2AED2ADE2A23001114111808
:1005E000F22AF32AEF2A23000F0C890C013920008C
:1005F000C900230011081F3920004904031D012BE5
:10060000022BF32A9A3085316825823123000F0CA2
:10061000890C01392000C900230011081F3920006E
:100620004904031D142B152B062B0030853168253A
:10063000823123000F0C890C01392000C9002300EE
:1006400011081F3920004904031D272B282B192BC3
:100650002300911491182D2B2E2B2A2B23000F0CE5
:10066000890C01392000C900230011081F3920001E
:100670004904031D3C2B3D2B2E2B9B3085316825D7
:10068000823123000F0C890C01392000C90023009E
:1006900011081F3920004904031D4F2B502B412BFB
:1006A0008D31EA2582312000C9004908CA002300A3
:1006B0000F0C890C01392000C900230011081F39D3
:1006C00020004904031D652B662B572B2300911630
:1006D0001116111A6C2B6D2B692B23000F0C890C32
:1006E00001392000C900230011081F3920004904E6
:1006F000031D7B2B7C2B6D2B230011151119812BD6
:10070000822B7E2B20004A080800F5302000C7000D
:10071000F030C8008731F1278331AB3A031D912BAC
:10072000922BE62B8E31292683312000D300FF3017
:10073000C700F030C8008731F1278331200053060D
:10074000031DA32BA42BE62BF630C700F030C80006
:100750008731F12783312000D3005308C100F730DF
:10076000C700F030C8008731F12783312000D30063
:100770005308C000F830C700F030C8008731F127B7
:1007800083312000D3005308E300F930C700F03074
:10079000C8008731F12783312000D3005308C200FD
:1007A000FA30C700F030C8008731F12783312000CC
:1007B000D3005308E200FB30C700F030C800873197
:1007C000F12783312000D3005308E1008D31AF259C
:1007D0008331F5302000CD00F030CE00AB30D300B7
:1007E0005308CF008E3149268331F8302000CD00E8
:1007F000F030CE006308D3005308CF008E31492675
:100800008331FA302000CD00F030CE006208D300F2
:100810005308CF008E3149268331FB302000CD00B4
:10082000F030CE006108D3005308CF008E31492646
:1008300083318C312A24833108002000D601D7016E
:100840007D08D5005508BE007D08D5005508BD00BF
:100850005D0A031D2F2C5E0A031D2F2C302C392C12
:1008600056085704031D352C362C392C85310D259F
:10087000843120000D1A3D2C3E2C792C8531C22567
:100880008431003A0319452C462C742C0130200089
:10089000D6070030D73D612C8B318E238431742CE8
:1008A0008B3184238431742C8B3199238431742CC3
:1008B0008B31A4238431742CD601D701B901B8013E
:1008C000742C5708003A0319662C5C2C5608013A20
:1008D00003194C2C033A0319502C013A0319542CD8
:1008E000073A0319582C5C2C7D082000D5005508C8
:1008F000BE008E1A7C2C7D2C972C8631CA26843122
:10090000003A0319842C852C972C20005708DE0010
:100910005608DD008E310926843120005603570425
:10092000031D932C942C972C8431AA248431A63057
:10093000890B982C0032200039030319A02CA12C1C
:10094000282CFF30DD00FF30DE00FF30DF00FF30FD
:10095000E000080001302000D3000030D4000D1A60
:10096000B22CB32CD62C8531C2258431003A031920
:10097000BA2CBB2CC02C01302000D3070030D43D52
:100980007D082000D2005208BE00D62C8B318E2369
:100990008431E92C8B3184238431E92C8B319923E8
:1009A0008431E92C8B31A4238431E92C5408003A9A
:1009B0000319DB2CE92C5308013A0319C62C033A1E
:1009C0000319CA2C013A0319CE2C073A0319D22C69
:1009D000E92C20008E1AED2CEE2CFE2C8631CA2636
:1009E0008431003A0319F52CF62CFE2C2000540813
:1009F000E0005308DF008F31C0278431A630890B17
:100A0000FF2C00320030200054020530031953023D
:100A1000031C0B2D0C2DAF2C080020009617213045
:100A20002000CB007630890B132DCB0B132D00004B
:100A30002000961321302000CB007630890B1E2D2C
:100A4000CB0B1E2D0000FF302000C7000330C80074
:100A50008D314625853121302000CB007630890B41
:100A60002F2DCB0B2F2D000000302000C700C80019
:100A70008D314625853121302000CB007630890B21
:100A80003F2DCB0B3F2D000020009616213020007B
:100A9000CB007630890B4A2DCB0B4A2D000020006D
:100AA000961221302000CB007630890B552DCB0BD0
:100AB000552D00002000161621302000CB00763086
:100AC000890B602DCB0B602D000020001612080052
:100AD0002000C800480823008C00901F702D712D45
:100AE000722DC12D0F3010052000C70008304706B9
:100AF00003197B2D7C2D952D0F3023001005200030
:100B0000C7000B3047060319862D872D952D23002E
:100B100010162E000F1C8D2D8E2D892D23000F19E0
:100B2000922D932DC12D0F08C12D0F3023001005DC
:100B30002000C7000830470603199F2DA02DAB2DBC
:100B40000F30230010052000C7000B304706031D9F
:100B5000AA2DAB2DC12D23000F18AF2DB02DAB2D1D
:100B600023000F0C890C01392000C7002300110855
:100B70001F3920004704031DBE2DBF2DB02D2300BB
:100B8000110808002E001A107D082000C700C801B7
:100B90004808CA003E084702C900031CCA03CA1F0E
:100BA000D22DD32DF92D7D08C700C8014808CA00F1
:100BB0003E084702C900031CCA034908C83ECB00CF
:100BC00000304A3DCC004C08803ACD0080304D02C8
:100BD000031DEC2D03304B02031CEF2DF02DF92DDE
:100BE0007D082000C7004708BE002E001A140130FF
:100BF0001B2E7D082000C700C8014808CA003E0817
:100C00004702C900031CCA034A08803ACB0080305F
:100C10004B02031D0D2E023049020318102E112E17
:100C2000132E00301B2E7D082000C7004708BE0091
:100C30002E001A14013008002E001A107D08F00052
:100C4000F1017108F30020003E087002F200031C5D
:100C5000F303F31F2C2E2D2E532E7D08F000F101EF
:100C60007108F3003E087002F200031CF3037208DF
:100C7000C83EF4000030733DF5007508803AF60078
:100C800080307602031D462E03307402031C492E69
:100C90004A2E532E7D08F00070082000BE002E0062
:100CA0001A140130752E7D08F000F1017108F3006F
:100CB00020003E087002F200031CF3037308803A20
:100CC000F40080307402031D672E02307202031894
:100CD0006A2E6B2E6D2E0030752E7D08F000700888
:100CE0002000BE002E001A14013008008B3125238D
:100CF0008631031C7C2E7D2EAD2E8A2E8A31CF228A
:100D00008631C92E8A31D4228631C92E8A31DE221B
:100D10008631C92E21003A08FA007A08F90011300C
:100D2000A03E86008701413F8A00403F0A0086318D
:100D3000FB00FC017C08003A03199F2E862E7B08DD
:100D4000013A0319862E033A03197E2E013A03193C
:100D5000822E073A0319862E862E2100A01102301A
:100D6000A03E86008701403F84008501810A00087B
:100D70008A31C522863101302100A3020030A43B14
:100D800023082404031DC52EC62EC82E0630C92EE6
:100D9000033008007D082000C700C8014808CA00C9
:100DA0003D084702C900031CCA03CA1FD82ED92E0A
:100DB000FD2E7D08C700C8014808CA003D0847024B
:100DC000C900031CCA034908C83ECB0000304A3D95
:100DD000CC004C08803ACD0080304D02031DF22E2D
:100DE00003304B02031CF52EF62EFD2E7D0820004D
:100DF000C7004708BD000130162F7D082000C7003E
:100E0000C8014808CA003D084702C900031CCA03BC
:100E10004A08803ACB0080304B02031D112F02306C
:100E200049020318142F152FF62E003008008A31BE
:100E3000AA228731FA0021002208860087017A0859
:100E400081000130FA007A08A2070130A3020030C5
:100E5000A43B2308240403192E2F2F2F342F8A316B
:100E6000B92287310530602F20153E2F8A31ED22BF
:100E70008731602F8A31E8228731602F3708FA00E6
:100E80007A08F9000B30A03E86008701413F8A00B6
:100E9000403F0A008731FB00FC017C08003A03193F
:100EA000522F3A2F7B08013A03193A2F033A0319BC
:100EB000362F013A0319362F073A03193A2F3A2FE2
:100EC000080020009A0199019601970198010730C6
:100ED00095000F309100FF309200FF309300FF30FB
:100EE0009400FF303E00D900C730CE00EF30C30081
:100EF0000730E400FF30B800DA01E501C401B901B0
:100F0000CF01E601BA01C501D001DB01FF30BB0012
:100F1000FF30C600FF30D100FF30DC000730E700B3
:100F2000FF30BC00FF30C700FF30D200FF30DD00D3
:100F30000730E8000C303D0090001330C50014303D
:100F40003E00A3001530A4000E30960014303D0082
:100F5000C60008002000D70052088600870101085B
:100F6000031DB32FB42FB92F5208860087018101CA
:100F7000810AD60157088600870151080102031C27
:100F8000C22FC32FC72F570886008701810157083A
:100F9000860087010108003ECD00F0300318F130D3
:100FA000CE0056085307D400540886008701010874
:100FB000D5005508CF008E314926873101302000F9
:100FC000D400570886008701540881070130D400F7
:100FD0005408D60705305602031CEF2FF02FBA2F06
:100FE00008002000480830009B002000470830001F
:100FF0009A001E171E140000000030001C08080094
:10152A00080008000800080008000330080001301D
:10153A00080020009E1308002300911408002300CD
:10154A001115080023009115080023000C08080053
:10155A002E000F1408002E000F1008002E008F1006
:10156A00080020009E170800230091121116080097
:10157A0023009116111608008A31B3228A31080015
:10158A00F000700823008C00080021002010AA0136
:10159A000E3008008A31A1228A31013008008A31CE
:1015AA00A1228A31023008008A31A1228A3101300F
:1015BA0008008A31A4228A31003008008A31B9220F
:1015CA008A31053008008A31BD228A310A30080082
:1015DA008A31BD228A31093008002E000C108B3165
:1015EA00C7238A31080020004808E9004708E800B4
:1015FA00080020004808E5004708E40008006400E5
:10160A0080010131890B052B0034FE0012001E00F7
:10161A00FE0B0B2B00342100A0118A31A7228B313B
:10162A000430080003102100131C03140030093D84
:10163A000800FF34FF34FF34FF34033405341E340A
:10164A002300110E890C890C0139F000700C080076
:10165A008A3199228B3121002010AA010E3008000C
:10166A002100A01521358A31C5228B3103300800AB
:10167A002000C700470821009E0093171314080092
:10168A002F0096019701980199019A019B01080080
:10169A002100A0150314210D8A31C5228B31053092
:1016AA00080021000D082000C80021000C082000B5
:1016BA00C7000800623031008D008F0191010230AD
:1016CA00930092010800200048082100C900200068
:1016DA0047082100C8000800200048082100CB0064
:1016EA00200047082100CA0008008B31BB238B3138
:1016FA002000931513163E00CF154F160800200040
:10170A009601FF30C7000330C8008D3146258B3162
:10171A000800200096010030C700C8008D31462518
:10172A008B31200096170800200096010030C70070
:10173A00C8008D3146258B312000961608002000FE
:10174A0096010030C700C8008D3146258B31200034
:10175A00161608000130F0007008FD07C9307D0236
:10176A00031CB82BB92BBA2BFD0108002300901AD1
:10177A00BF2BC02BC62B8F0128309000910103305C
:10178A008D0008002000680869040319CD2BCE2BB0
:10179A00D32B69088A0068080A008B31080076088A
:1017AA00F1007508F0007708F8007808F2000030B8
:1017BA008E316D268B310800803027008E003E3036
:1017CA008D0040308C0024001F08F33904389F0034
:1017DA0008002E000C100B1495302000C7000A30A8
:1017EA00C8008A31F8228B312E00161408002E0008
:1017FA008C122100480849040319042C052C0A2CD0
:10180A0049088A0048080A008C3108002E00901006
:10181A0021004A084B040319132C142C192C4B08C9
:10182A008A004A080A008C310800F3002100201DB2
:10183A001F2C202C292C7308F2007208A2007108B0
:10184A00A4007008A30020110800FF302000CD007A
:10185A00F030CE008E3129268C312000D10051087B
:10186A00CF008E3149268C31080024000E1D3E2CF3
:10187A003F2C462C0E1071088D0070088C000E1437
:10188A004A2C71088D0070088C0008000230F000A4
:10189A000030F10079088C311A248C310030F500BF
:1018AA00F600F7018B31D4238C3104300800013063
:1018BA00F0000030F10079088C311A248C310030A4
:1018CA00F500F600F7018B31D4238C31043008007F
:1018DA000130F0000030F10079088C311A248C3183
:1018EA000030F500F600F7018B31D4238C31023039
:1018FA0008000230F0000030F10079088C311A2417
:10190A008C310030F500F600F7018B31D4238C318D
:10191A0002300800953020009F00F1309D009C01A4
:10192A002E008C12961696302000C7000A30C80086
:10193A008B3168238C310B3020009E00080071081F
:10194A00F3007008F200F336F20CF336F20C720868
:10195A0027008D0070080339F2000530F235FF3E8A
:10196A00031DB32C72358C00080022008E018F01F2
:10197A0090019101920193018D0121009E019B0129
:10198A0094019501960197019A0199019801843071
:10199A0093009D0108002000CA00C9014A1CD62CE8
:1019AA00D72CDB2C4708C8004808C9070310C70D05
:1019BA000310CA0C4A08031DE32CE42CD32C490853
:1019CA0008002E00101020006708F1006608F000D9
:1019DA008C313A248C312000640865040319F62CF2
:1019EA00F72CFC2C65088A0064080A008C31080070
:1019FA00790886008701403FF000413FF1007908ED
:101A0A00023E8600870101088C311A248C3100308D
:101A1A00F500F600F7018B31D4238C31023008002F
:101A2A0001302500900020308F0091019B308D00FD
:101A3A008C012E0090109A1498302000C7000A30AA
:101A4A00C8008B3171238D31B13025008E0008001A
:101A5A002000200821040319332D342D402DFF3096
:101A6A00F0000330F1008C31A4248D310130F400F0
:101A7A0074082000B8008A319E228D312E009612F9
:101A8A00080020004808CA004708C900CA36C90C1D
:101A9A00CA36C90C490827008D00200047080339B7
:101AAA00C9000530C935FF3E031D572D49352700AA
:101ABA008C00080000308B313D238D31682D533066
:101ACA00890B652D00008B3117238D31003A0319DC
:101ADA006F2D702D642D8B3156238D3120004808CF
:101AEA00CA004708C9000800200047080139C90090
:101AFA00C90E16084906EF39490696004808CA0071
:101B0A004708C900CA36C90C4908CB00CB0ECB0D11
:101B1A0016084B06DF394B06960008008B31452321
:101B2A008D31873161278D318B315F238D318B3137
:101B3A00E1238D318C31BA248D318D3115258D31CA
:101B4A008D31CB258D318B31EE238D318C318F2424
:101B5A008D310800F5302000D100F030D200520853
:101B6A00CE005108CD00CF018E3149268D3101308A
:101B7A002000D1070030D23DF13052020030031963
:101B8A005102031CC92DCA2DB42D080024008F014F
:101B9A00900104309100E1308D00BA308C000D08BC
:101BAA002000E70024000C082000E6002E00101098
:101BBA001A1497302000C7000A30C8008A31FE2262
:101BCA008D31153024008E0008000F3023001005D7
:101BDA002000C700083047060319F42DF52D002E02
:101BEA000F30230010052000C7000B304706031DE5
:101BFA00FF2D002E022E2300911523000F1C062E06
:101C0A00072E022E0C080800FF302000C700033000
:101C1A00C8008D3146258E3120001616A3302000CB
:101C2A00CB005530890B172ECB0B172E200096169A
:101C3A00A3302000CB005530890B212ECB0B212E4F
:101C4A0020001612961208002000CA01F530CB00B7
:101C5A00F030CC004C08C8004B08C7008731F12788
:101C6A008E312000C9004908CA070130CB0700306D
:101C7A00CC3DF0304C02FF3003194B02031C462EB8
:101C8A00472E2F2E4A08080000308B1B01302000F7
:101C9A00D0004E0830009B0020004D0830009A000A
:101CAA0020004F0830009C001E171E158B1355305C
:101CBA009F00AA309F009E149E18642E652E612EE6
:101CCA001E112000500C031C8B1303188B170800DD
:101CDA00F400700871040319732E742E852E74355E
:101CEA00AB3E860087017008C03F7108C13F720889
:101CFA00F3007408B73E8600870173088100922EAC
:101D0A007435AB3E860087019C30C03F0A30C13F24
:101D1A007408B73E86008701810108002100A011DE
:101D2A000230FA007A08AA00A22E8A31D9228E310C
:101D3A00BE2E8A31DE228E31BE2E3908FA007A088A
:101D4A00F9000F30A03E86008701413F8A00403FDC
:101D5A000A008E31FB00FC017C08003A0319B62EFA
:101D6A009E2E7B08023A03199A2E013A03199A2EDB
:101D7A009E2E08008A31B0228E312100A01DC62E67
:101D8A00C72ED42E8B3125238E31031CCD2ECE2E79
:101D9A00D42E0F302000C40044082100A9002100DD
:101DAA0029082000C400C501C435C50D0030440708
:101DBA0084009030453D8500013F8A00003F0A00BB
:101DCA008E312000C60046082100A900080086318D
:101DDA001C268E31003A0319F32EF42E192F2000F7
:101DEA003803031DF92EFA2E082FB80116130030F6
:101DFA00F000F1008C31A4248E317D08F7007708B9
:101E0A002000BE00152F0D1A0B2F0C2F152F390885
:101E1A00031D102F112F152F0130F7007708B90075
:101E2A007D08F7007708BE000800210020152A2F38
:101E3A008A31D9228F314C2F8A31AD228F3103302A
:101E4A004C2F8A31DE228F314C2F3708FA007A085C
:101E5A00F9000B30A03E86008701413F8A00403FCF
:101E6A000A008F31FB00FC017C08003A03193E2F5F
:101E7A00262F7B08013A0319262F033A03191D2F2F
:101E8A00013A03191D2F073A0319212F262F08009B
:101E9A0020003908031D522F532F5E2F0310961F5F
:101EAA0003140318592F5C2F200096175E2F200069
:101EBA0096130130F0007008BC070130F00070087A
:101ECA00BF073C303F02031C6B2F6C2F802F013061
:101EDA00F0007008C0070130F0007008BB07BF01AE
:101EEA003C304002031C7A2F7B2F802F0130F000F8
:101EFA007008C107C00108002000D2004D084B023B
:101F0A00031C882F892FB32F4C0803198D2F8E2F6E
:101F1A00B32F0530CF004F08C7004D088C31D024AD
:101F2A008F3120004E07D0005008D30053085202C8
:101F3A00031CA02FA12FA82F52085307FB3ECF0046
:101F4A004F08D100B52F5203FF3ACF0053084F0272
:101F5A004B07053ED0005008D100B52F0030BF2FE7
:101F6A005108003EC700F0300318F130C80087312D
:101F7A00F1278F3108000A302000CE000030CF0050
:101F8A00D001D1010030C700C8008D3146258F31FC
:101F9A00F82F8E1AD12FD22FE62F8631CA268F31EB
:101FAA00003A0319D92FDA2FE62F64302000CE0722
:101FBA000030CF3D4F08C8004E08C7008D31462576
:101FCA008F3120000D1AEA2FEB2FF82F8531C22509
:101FDA008F31003A0319F22FF32FF82F0130200026
:101FEA00D0000030D1002000500851040319FE2F00
:101FFA00FF2FCE2F0800CA340A344D340B3435343F
:10200A000B34763406341734073410340B341A344C
:10201A000F34CF340A34D4340A34D9340A34DE348F
:10202A000A34E3340A34E8340A34ED340A342D34F9
:06203A000B3493340E3458
:020000040001F9
:0A000E00EC3FFF3F8E0FFF3FFF3F66
:00000001FF
