:020000040000FA
:1000000080315B28053008007E1480312E00161CDC
:100010000A280B2813280C1C0E280F2813288E31B1
:10002000802680315928961E162817281F288C1ED6
:100030001A281B281F288F316F27803159280B1F42
:10004000222823285928991C2628272832288F1C43
:100050002A282B283228200035088A0034080A0074
:1000600080315928191C3528362841280F1C392879
:100070003A284128200033088A0032080A008031DB
:1000800059281A1C442845284D28101C482849285E
:100090004D2887319727803159289A1C502851289C
:1000A0005928901C5428552859288F317E27803193
:1000B00059287E10090080315D28B83084008E30C8
:1000C00085005F3086000030870007308E31A4261F
:1000D0008031FD0120308400003085001F308E31DA
:1000E0009E268031A0308400003085001D308E3186
:1000F0009E2680317E10200080317E288631E526C4
:1001000080314E302000C2000730C3008E318C2673
:1001100080317F302000C2000530C3008E3192262E
:100120008031D8302000C2000530C3008E318626D1
:1001300080313A302000C2000F30C3008E31982643
:10014000803181312D21803100302000C200C30078
:100150008731352780312000B7013E0044168B17C8
:100160000B177D08031DB528B6281A2987311B27D0
:10017000803120004508A7004408A6002708D400C5
:100180002608D3005408D300D4015308A200540811
:10019000A3002308C3002208C20087310127803151
:1001A0000030200023020330031922020318D9284B
:1001B000DB280130DC280030D300D4015308A00034
:1001C0005408A100200821040319E728E8280A2977
:1001D00002303706031DED28EE28FA280130A40767
:1001E0000030A53D2508C3002408C200873135270B
:1001F000803126293708031DFE28FF2819292E00E3
:1002000096168E314426803102302000D3005308E8
:10021000B700262902303706031D0F291029262989
:100220000030C200C3008731352780312000B7017C
:10023000262926297D03031D1E291F2926292E0074
:1002400016108131C52180312E0016145330890BD0
:1002500027290000B12880315B28F5302000C2003A
:10026000F030C3008F318D278131AB3A031D39291E
:100270003A298E2986316A2681312000CE00FF304E
:10028000C200F030C3008F318D27813120004E062F
:10029000031D4B294C298E29F630C200F030C300D3
:1002A0008F318D2781312000CE004E08BE00F730FF
:1002B000C200F030C3008F318D2781312000CE0085
:1002C0004E08BD00F830C200F030C3008F318D27DA
:1002D00081312000CE004E08E500F930C200F03038
:1002E000C3008F318D2781312000CE004E08B6002B
:1002F000FA30C200F030C3008F318D2781312000E9
:10030000CE004E08E400FB30C200F030C3008F3155
:100310008D2781312000CE004E08E3008631C926AA
:100320008131F5302000C800F030C900AB30CE007C
:100330004E08CA00863126268131F8302000C800D8
:10034000F030C9006508CE004E08CA008631262666
:100350008131FA302000C800F030C9006408CE00B6
:100360004E08CA00863126268131FB302000C800A5
:10037000F030C9006308CE004E08CA008631262638
:1003800081318F31AC27813108002000D101D201A9
:100390003B08D0005008BA003B08D0005008B90014
:1003A00020005F0A031DD829600A031DD829D92916
:1003B000E22951085204031DDE29DF29E229823196
:1003C000B622813120000D1AE629E729222A83313D
:1003D000B2238131003A0319EE29EF291D2A013099
:1003E0002000D1070030D23D0A2A8F310C278131FD
:1003F0001D2A8F31022781311D2A8F311727813124
:100400001D2A8F31222781311D2AD101D201FD0100
:10041000B7011D2A5208003A03190F2A052A51086C
:10042000013A0319F529033A0319F929013A031985
:10043000FD29073A0319012A052A20003B08D000AC
:100440005008BA008E1A252A262A402A83316523AD
:100450008131003A03192D2A2E2A402A2000520801
:10046000E0005108DF0086318A26813120005103E7
:100470005204031D3C2A3D2A402A823153228131F5
:10048000A630890B412A00327D030319482A492AE4
:10049000D029FF302000DF00FF30E000FF30E10016
:1004A000FF30E200080001302000CE000030CF0015
:1004B0000D1A5B2A5C2A7F2A8331B2238231003AEB
:1004C0000319632A642A692A01302000CE0700300C
:1004D000CF3D20003B08CD004D08BA007F2A8F3168
:1004E0000C278231922A8F3102278231922A8F3152
:1004F00017278231922A8F3122278231922A4F0880
:10050000003A0319842A922A4E08013A03196F2AE5
:10051000033A0319732A013A0319772A073A031990
:100520007B2A922A20008E1A962A972AA72A83319C
:1005300065238231003A03199E2A9F2AA72A2000A8
:100540004F08E2004E08E1008431DF248231A630FA
:10055000890BA82A0032003020004F020530031911
:100560004E02031CB42AB52A582A08002000961708
:1005700021302000C6007630890BBC2AC60BBC2A6D
:1005800000002000961321302000C6007630890B31
:10059000C72AC60BC72A0000FF302000C200033064
:1005A000C30087313527823121302000C6007630E4
:1005B000890BD82AC60BD82A000000302000C200C0
:1005C000C30087313527823121302000C6007630C4
:1005D000890BE82AC60BE82A000020009616213075
:1005E0002000C6007630890BF32AC60BF32A0000E0
:1005F0002000961221302000C6007630890BFE2A9A
:10060000C60BFE2A00002000161621302000C6006E
:100610007630890B092BC60B092B0000200016121F
:1006200008008E31BF268331031C172B182B482B53
:10063000252B8E315D268331642B8E3162268331EA
:10064000642B8E316C268331642B21003A08FA002A
:100650007A08F9001130A03E86008701413F8A00E8
:10066000403F0A008331FB00FC017C08003A03197B
:100670003A2B212B7B08013A0319212B033A03194A
:10068000192B013A03191D2B073A0319212B212B92
:100690002100A0110230A03E86008701403F840067
:1006A0008501810A00088E315326833101302100F3
:1006B000A3020030A43B23082404031D602B612BFC
:1006C000632B0630642B0330080020003B08C20077
:1006D000C3014308C50039084202C400031CC50316
:1006E000C51F732B742B982B3B08C200C301430812
:1006F000C50039084202C400031CC5034408C83EB3
:10070000C6000030453DC7004708803AC800803029
:100710004802031D8D2B0B304602031C902B912B9E
:10072000982B20003B08C2004208B9000130B12BD1
:1007300020003B08C200C3014308C500390842023B
:10074000C400031CC5034508803AC6008030460239
:10075000031DAC2B0A3044020318AF2BB02B912B96
:100760000030080020003B08C200C3014308C50058
:100770003A084202C400031CC503C51FC02BC12B8D
:10078000E52B3B08C200C3014308C5003A084202FA
:10079000C400031CC5034408C83EC6000030453DE4
:1007A000C7004708803AC80080304802031DDA2B92
:1007B0000B304602031CDD2BDE2BE52B20003B0813
:1007C000C2004208BA000130FE2B20003B08C200E4
:1007D000C3014308C5003A084202C400031CC50314
:1007E0004508803AC60080304602031DF92B0A30C6
:1007F00044020318FC2BFD2BDE2B003008002000E8
:100800003B08F000F1017108F3003A087002F200B1
:10081000031CF303F31F0D2C0E2C322C3B08F000AD
:10082000F1017108F3003A087002F200031CF303AF
:100830007208C83EF4000030733DF5007508803A38
:10084000F60080307602031D272C0B307402031C47
:100850002A2C2B2C322C20003B08F0007008BA0008
:1008600001304B2C20003B08F000F1017108F3002F
:100870003A087002F200031CF3037308803AF40094
:1008800080307402031D462C0A3072020318492C72
:100890004A2C2B2C003008008E3138268431FA0087
:1008A00021002208860087017A0881000130FA00C1
:1008B0007A08A2070130A3020030A43B23082404D5
:1008C0000319632C642C692C8E3147268431053042
:1008D000952C2015732C8E317B268431952C8E31EE
:1008E00076268431952C3708FA007A08F9000B3007
:1008F000A03E86008701413F8A00403F0A008431C4
:10090000FB00FC017C08003A0319872C6F2C7B0844
:10091000013A03196F2C033A03196B2C013A03199E
:100920006B2C073A03196F2C6F2C080020009A01DA
:100930009901960197019801073095000F309100B9
:10094000FF309200FF309300FF309400FF303E00F4
:10095000D900C730CE00EF30C3000730E400FF30CD
:10096000B800DA01E501C401B901CF01E601BA011D
:10097000C501D001DB01FF30BB00FF30C600FF30F6
:10098000D100FF30DC000730E700FF30BC00FF3053
:10099000C700FF30D200FF30DD000730E8000C3028
:1009A0003D0090001330C50014303E00A300153008
:1009B000A4000E30960014303D00C60008000A3036
:1009C0002000C9000030CA00CB01CC010030C200B9
:1009D000C300873135278431172D8E1AF02CF12C66
:1009E000052D833165238431003A0319F82CF92C45
:1009F000052D64302000C9070030CA3D4A08C300F5
:100A00004908C20087313527843120000D1A092D8D
:100A10000A2D172D8331B2238431003A0319112D89
:100A2000122D172D01302000CB000030CC0020000B
:100A30004B084C0403191D2D1E2DED2C0800210020
:100A400020152F2D8E3167268531512D8E313B2675
:100A500085310330512D8E316C268531512D37086B
:100A6000FA007A08F9000B30A03E86008701413F6A
:100A70008A00403F0A008531FB00FC017C08003AF7
:100A80000319432D2B2D7B08013A03192B2D033A13
:100A90000319222D013A0319222D073A0319262D95
:100AA0002B2D08008E313E2685312100A01D592DA9
:100AB0005A2D672D8E31BF268531031C602D612D87
:100AC000672D0F302000BF003F082100A900210042
:100AD00029082000BF00C001BF35C00D4A303F07C4
:100AE00084008630403D8500013F8A00003F0A00B7
:100AF00085312000C10041082100A90008007D08BF
:100B0000031D832D842D902D03102000961F0314A8
:100B100003188B2D8E2D20009617902D20009613F4
:100B20000130F00070082000BC073C303C02031C80
:100B30009A2D9B2DAB2D0130F0007008BD07BC0134
:100B40003C303D02031CA52DA62DAB2D0130F0003D
:100B50007008BE07BD0108002100A0110230FA0094
:100B60007A08AA00BB2D8E3167268531D72D8E31AC
:100B70006C268531D72D3908FA007A08F9000F3034
:100B8000A03E86008701413F8A00403F0A00853130
:100B9000FB00FC017C08003A0319CF2DB72D7B0820
:100BA000023A0319B32D013A0319B32DB72D0800EA
:100BB0008331FF238531003A0319DF2DE02DFF2D0E
:100BC00020003703031DE52DE62DEF2DB701161389
:100BD0000030F000F1008731C4278531FF2D0D1A58
:100BE000F22DF32DFF2D7D08031DF72DF82DFF2D80
:100BF0000130F7007708FD002E001610FF2D0800C9
:100C0000F400700871040319062E072E182E74358F
:100C1000AB3E860087017008C03F7108C13F720873
:100C2000F3007408B73E8600870173088100252E03
:100C30007435AB3E860087012A30C03F0E30C13F7D
:100C40007408B73E860087018101080000308B1BC5
:100C500001302000CB00490830009B0020004808EC
:100C600030009A0020004A0830009C001E171E1514
:100C70008B1355309F00AA309F009E149E18412E62
:100C8000422E3E2E1E1120004B0C031C8B1303180A
:100C90008B17080058340E34E7340E34CF340E343A
:100CA000113403344C340434AA340E341F34053464
:100CB0005D340E3462340E3467340E346C340E34CA
:100CC00071340E3476340E347B340E34C7340E3423
:100CD000AC3405342000C501F530C600F030C70043
:100CE0004708C3004608C2008F318D278631200097
:100CF000C4004408C5070130C6070030C73DF030C6
:100D00004702FF3003194602031C872E882E702EDF
:100D100045080800FF302000C2000330C3008731BF
:100D20003527863120001616A3302000C600553026
:100D3000890B982EC60B982E20009616A330200003
:100D4000C6005530890BA22EC60BA22E200016120B
:100D50009612080024008F01900104309100E130C8
:100D60008D00BA308C000D082000DC0024000C0837
:100D70002000DB002E0010101A1425302000C200C5
:100D80000E30C3008E3192268631153024008E003D
:100D90000800F5302000CC00F030CD004D08C9002F
:100DA0004C08C800CA018631262686310130200051
:100DB000CC070030CD3DF1304D02003003194C021C
:100DC000031CE32EE42ECE2E08008E31DF26863162
:100DD0008431962486318E31F92686318F3154271D
:100DE00086318731AE2786318731672786318F314B
:100DF000612786318631AA2686318731DA27863106
:100E00000800200042080139C400C40E1608440638
:100E1000EF39440696004308C5004208C400C536B1
:100E2000C40C4408C600C60EC60D16084606DF39B7
:100E300046069600080000308E31D7268731242FD1
:100E40005330890B212F00008E31B1268731003AB3
:100E500003192B2F2C2F202F8E31F02687312000C5
:100E60004308C5004208C400080020004308C5002C
:100E70004208C400C536C40CC536C40C440827005B
:100E80008D00200042080339C4000530C435FF3E00
:100E9000031D462F443527008C0008002000200841
:100EA00021040319542F552F612FFF30F000033018
:100EB000F1008731C42787310130F4007408200025
:100EC000B7008E312C2687312E0096120800013093
:100ED0002500900020308F0091019B308D008C0107
:100EE0002E0090109A1426302000C2000E30C3004D
:100EF0008E3198268731B13025008E0008007908A0
:100F000086008701403FF000413FF1007908023E32
:100F10008600870101088F319C2787310030F5005A
:100F2000F600F7018F3147278731023008002E0085
:100F3000101020005C08F1005B08F0008F31BC2726
:100F40008731200059085A040319A72FA82FAD2F65
:100F50005A088A0059080A008731080022008E01C9
:100F60008F0190019101920193018D0121009E0159
:100F70009B0194019501960197019A0199019801AD
:100F8000843093009D0108007108F3007008F2009E
:100F9000F336F20CF336F20C720827008D0070085D
:100FA0000339F2000530F235FF3E031DD32F7235B1
:100FB0008C000800953020009F00F1309D009C01BE
:100FC0002E008C12961624302000C2000E30C30072
:100FD0008E318C2687310B3020009E0008000230B5
:100FE000F0000030F10079088F319C278731003004
:100FF000F500F600F7018F314727873102300800EE
:101C460008000800080008000800033008000130FA
:101C5600080020009E1308002300911408002300AA
:101C66001115080023009115080023000C08080030
:101C76002E000F1408002E000F1008002E008F10E3
:101C8600080020009E170800230091121116080074
:101C960023009116111608008E3141268E31080058
:101CA600F000700823008C00080021002010AA0113
:101CB6000E3008008E312F268E31013008008E310D
:101CC6002F268E31023008008E312F268E310130BC
:101CD60008008E3132268E31003008008E314726BC
:101CE6008E31053008008E314B268E310A300800C1
:101CF6008E314B268E31093008002E000C108F31A4
:101D06002D278E31080020004308DE004208DD0042
:101D1600080020004308D6004208D500080020002D
:101D26004308DA004208D900080020004308D8001A
:101D36004208D7000800640080010131890B9F2EFC
:101D46000034FE0012001E00FE0BA52E00342100FA
:101D5600A0118E3135268E31043008000310210083
:101D6600131C03140030093D0800FF34FF34FF3410
:101D7600FF34033405341E342300110E890C890CFC
:101D86000139F000700C08008E3127268E312100B3
:101D96002010AA010E3008002100A01521358E3131
:101DA60053268E31033008002000C200420821006D
:101DB6009E009317131408002F00960197019801AF
:101DC60099019A019B0108002100A0150314210D19
:101DD6008E3153268E310530080021000D08200073
:101DE600C30021000C082000C20008006230310048
:101DF6008D008F01910102309300920108002000AE
:101E06009601FF30C2000330C300873135278F317A
:101E16000800200096010030C200C3008731352734
:101E26008F31200096170800200096010030C2006E
:101E3600C300873135278F31200096160800200011
:101E460096010030C200C300873135278F3120004C
:101E56001616080020005D085E040319332F342F80
:101E6600392F5E088A005D080A008F3108000130AC
:101E7600F00070082000BB07C9303B02031C442F4A
:101E8600452F462FBB0108007608F1007508F000C3
:101E96007708F8007808F2000030863100268F3186
:101EA6000800803027008E003E308D0040308C00C8
:101EB60024001F08F33904389F0008002E000C1078
:101EC6000B1423302000C2000E30C3008E3186264C
:101ED6008F312E00161408002E008C122000550893
:101EE60056040319772F782F7D2F56088A00550838
:101EF6000A008F3108002E00901020005708580461
:101F06000319862F872F8C2F58088A0057080A0036
:101F16008F3108002000430830009B002000420853
:101F260030009A001E171E140000000030001C0826
:101F36000800F3002100201DA12FA22FAB2F73084C
:101F4600F2007208A2007108A4007008A300201114
:101F56000800FF302000C800F030C90086316A262C
:101F66008F312000CC004C08CA00863126268F31DE
:101F7600080024000E1DC02FC12FC82F0E10710897
:101F86008D0070088C000E14CC2F71088D0070081F
:101F96008C0008000230F0000030F10079088F3123
:101FA6009C278F310030F500F600F7018F31472767
:101FB6008F31043008000130F0000030F10079085C
:101FC6008F319C278F310030F500F600F7018F31F5
:101FD60047278F31043008000130F0000030F1004F
:101FE60079088F319C278F310030F500F600F70114
:0A1FF6008F3147278F3102300800B9
:020000040001F9
:0A000E00EC3FFF3F8E0FFF3FFF3F66
:00000001FF
