:020000040000FA
:1000000080315B28053008007E1480312E00161CDC
:100010000A280B2813280C1C0E280F2813288F31B0
:10002000542780315928961E162817281F288C1E01
:100030001A281B281F288731B927803159280B1F00
:10004000222823285928991C2628272832288F1C43
:100050002A282B28322820002D088A002C080A0084
:1000600080315928191C3528362841280F1C392879
:100070003A28412820002B088A002A080A008031EB
:1000800059281A1C442845284D28101C482849285E
:100090004D288631CE26803159289A1C5028512867
:1000A0005928901C5428552859288731AA2780316F
:1000B00059287E10090080315D288731FD27803165
:1000C000D3008731FE278031D4008731FF2780316C
:1000D000D500FD01203084000030850017308F31BD
:1000E00072278031A0308400003085001D308F31B0
:1000F000722780317E10200080317E2886311C26B8
:10010000803185302000BA000630BB008F31602777
:100110008031FF302000BA000430BB008F316627E9
:1001200080312B302000BA000530BB008F315A27B8
:100130008031F4302000BA000F30BB008F316C27C3
:10014000803181312A21803100302000BA00BB008B
:1001500086316C2680312000AF013E0044168B179B
:100160000B17B22820003008031DB728B8281B2918
:1001700086315226803120003D08A7003C08A600A9
:100180002708C8002608C7004808C700C801470854
:10019000A2004808A3002308BB002208BA00863149
:1001A0003826803100302000230203300319220258
:1001B0000318DB28DD280130DE280030C700C80125
:1001C0004708A0004808A100200821040319E928D5
:1001D000EA280C2902302F06031DEF28F028FC28FE
:1001E0000130A4070030A53D2508BB002408BA0053
:1001F00086316C268031B2282F08031D0029012981
:10020000B2282E0096168F31182780310230200038
:10021000C7004708AF00B22802302F06031D11297E
:100220001229B2280030BA00BB0086316C2680311A
:100230002000AF01B2283003031D1F292029B22856
:100240002E0016108131C22180312E001614B228E2
:1002500080315B28F5302000BA00F030BB008731D8
:100260009B278131AB3A031D362937298B298531EC
:10027000C12581312000C600FF30BA00F030BB003C
:1002800087319B27813120004606031D48294929D3
:100290008B29F630BA00F030BB0087319B278131C3
:1002A0002000C6004608B600F730BA00F030BB00A8
:1002B00087319B2781312000C6004608B500F83001
:1002C000BA00F030BB0087319B2781312000C60087
:1002D0004608D500F930BA00F030BB0087319B27C3
:1002E00081312000C6004608AE00FA30BA00F03076
:1002F000BB0087319B2781312000C6004608D4000F
:10030000FB30BA00F030BB0087319B2781312000E1
:10031000C6004608D300863100268131F530200022
:10032000C000F030C100AB30C6004608C2008531C5
:100330007D258131F8302000C000F030C100550823
:10034000C6004608C20085317D258131FA30200083
:10035000C000F030C1005408C6004608C200853114
:100360007D258131FB302000C000F030C1005308F2
:10037000C6004608C20085317D25813187317B2743
:10038000813108002000C301C40143084404031D57
:10039000CA29CB29CE298231B522813120000D1AFC
:1003A000D229D3290E2A8331F7238131003A031948
:1003B000DA29DB29092A01302000C3070030C43DB7
:1003C000F6298F31D3278131092A8F31C92781310D
:1003D000092A8F31DE278131092A8F31E9278131BE
:1003E000092AC301C401B001AF01092A4408003A37
:1003F0000319FB29F1294308013A0319E129033ABA
:100400000319E529013A0319E929073A0319ED29E6
:10041000F1297D082000C2004208B3008E1A112A7B
:10042000122A2E2A1B2A8F31D32781312E2A82317C
:100430003E2281312E2A4408003A0319202A2E2A0E
:100440004308013A0319132A033A0319172A013AF8
:100450000319132A073A0319132A2E2A04302000FD
:10046000C2003D30890B322AC20B322A00322000F2
:10047000300303193C2A3D2AC52908002000C00189
:10048000C1018231B522823120000D1A482A492A41
:10049000842A0130C0000030C1008331F72382314B
:1004A000003A0319542A552A7F2A6C2A8F31D32700
:1004B00082317F2A8F31C92782317F2A8F31DE270F
:1004C00082317F2A8F31E92782317F2AFF30200055
:1004D000C000FF30C1007F2A0030003A0319712AA2
:1004E000662A0130013A0319562A033A03195A2A97
:1004F000013A03195E2A073A0319622A662A7D081F
:100500002000BF003F08B3008E1A872A882AAB2A32
:10051000982A8F31D3278231AB2A8F31C927823174
:10052000AB2A8F31DE278231AB2AC001C101AB2A51
:100530004108003A03199D2A952A4008013A0319F7
:10054000892A033A03198D2A013A0319912A073A95
:100550000319892A952A2000400A031DB32A410A5B
:10056000031DB32AB42A442A08002000961721301C
:100570002000BE007630890BBB2ABE0BBB2A0000D0
:100580002000961321302000BE007630890BC62A49
:10059000BE0BC62A0000FF302000BA000330BB00AB
:1005A00086316C26823121302000BE007630890BE6
:1005B000D72ABE0BD72A000000302000BA00BB00AB
:1005C00086316C26823121302000BE007630890BC6
:1005D000E72ABE0BE72A00002000961621302000F3
:1005E000BE007630890BF22ABE0BF22A00002000F2
:1005F000961221302000BE007630890BFD2ABE0BFA
:10060000FD2A00002000161621302000BE007630A2
:10061000890B082BBE0B082B0000200016120800C7
:100620008F3186278331031C162B172B472B242B46
:100630008F3131278331632B8F3136278331632B01
:100640008F3140278331632B21003A08FA007A0862
:10065000F9001130A03E86008701413F8A00403FEB
:100660000A008331FB00FC017C08003A0319392B96
:10067000202B7B08013A0319202B033A0319182B6E
:10068000013A03191C2B073A0319202B202B2100B8
:10069000A0110230A03E86008701403F8400850102
:1006A000810A00088F312727833101302100A302FE
:1006B0000030A43B23082404031D5F2B602B622B16
:1006C0000630632B033008008F310C278331FA008A
:1006D00021002208860087017A0881000130FA0093
:1006E0007A08A2070130A3020030A43B23082404A7
:1006F00003197B2B7C2B812B8F311B2783310530FA
:10070000AD2B20158B2B8F314F278331AD2B8F31A4
:100710004A278331AD2B3708FA007A08F9000B30ED
:10072000A03E86008701413F8A00403F0A00833196
:10073000FB00FC017C08003A03199F2B872B7B08E8
:10074000013A0319872B033A0319832B013A031942
:10075000832B073A0319872B872B080020009A0167
:100760009901960197019801073095000F3091008B
:10077000FF309200FF309300FF309400FF303E00C6
:10078000D900C730CE00EF30C3000730E400FF309F
:10079000B800DA01E501C401B901CF01E601BA01EF
:1007A000C501D001DB01FF30BB00FF30C600FF30C8
:1007B000D100FF30DC000730E700FF30BC00FF3025
:1007C000C700FF30D200FF30DD000730E8000C30FA
:1007D0003D0090001330C50014303E00A3001530DA
:1007E000A4000E30960014303D00C60008007D08BD
:1007F0002000BA00BB013B08BD0033083A02BC0030
:10080000031CBD03BD1F052C062C0A2C6430BA0046
:100810003A08FD077D08BA00BB013B08BD0033085C
:100820003A02BC00031CBD033D08803ABE00803084
:100830003E02031D1D2C12303C020318202C212CDB
:100840002B2C65307D02031C262C272C292C643090
:10085000FD020030342C65307D02031C302C312C1D
:10086000332C6430FD02013008007D08F000F101F6
:100870007108F300200033087002F200031CF30338
:10088000F31F432C442C482C6430F0007008FD0703
:100890007D08F000F1017108F30033087002F200E6
:1008A000031CF3037308803AF40080307402031DC4
:1008B0005B2C1230720203185E2C5F2C692C6530A1
:1008C0007D02031C642C652C672C6430FD02003013
:1008D000722C65307D02031C6E2C6F2C712C6430E1
:1008E000FD020130080021002015832C8F313B27A9
:1008F0008431A52C8F310F2784310330A52C8F3103
:1009000040278431A52C3708FA007A08F9000B300B
:10091000A03E86008701413F8A00403F0A008431A3
:10092000FB00FC017C08003A0319972C7F2C7B0804
:10093000013A03197F2C033A0319762C013A031963
:10094000762C073A03197A2C7F2C08008F31122756
:1009500084312100A01DAD2CAE2CBB2C8F318627FD
:100960008431031CB42CB52CBB2C0F302000B700F5
:1009700037082100A900210029082000B700B8018C
:10098000B735B80DA130370784008530383D850074
:10099000013F8A00003F0A0084312000B900390875
:1009A0002100A90008002100A0110230FA007A08F5
:1009B000AA00E22C8F313B278431FE2C8F31402757
:1009C0008431FE2C3908FA007A08F9000F30A03E75
:1009D00086008701413F8A00403F0A008431FB00C6
:1009E000FC017C08003A0319F62CDE2C7B08023A45
:1009F0000319DA2C013A0319DA2CDE2C0800200046
:100A00003008031D042D052D102D0310961F03140F
:100A100003180B2D0E2D20009617102D2000961375
:100A20000130F0007008B4073C303402031C192D6B
:100A30001A2D2A2D0130F0007008B507B4013C30A2
:100A40003502031C242D252D2A2D0130F0007008BD
:100A5000B607B5010800843135248531003A031901
:100A6000322D332D562D20002F03031D382D392D07
:100A7000422DAF0116130030F000F1008631FB2645
:100A80008531512D0D1A452D462D512D3008031D50
:100A90004A2D4B2D512D0130F5007508B0002E0068
:100AA00016107D08F50075082000B3000800F4005A
:100AB0007008710403195D2D5E2D6F2D7435AB3EEA
:100AC000860087017008C03F7108C13F7208F300BB
:100AD0007408B73E86008701730881007C2D743549
:100AE000AB3E86008701FE30C03F0E30C13F740828
:100AF000B73E860087018101080000308B1B013062
:100B00002000C300410830009B0020004008300056
:100B10009A002000420830009C001E171E158B13FF
:100B200055309F00AA309F009E149E18982D992D35
:100B3000952D1E112000430C031C8B1303188B17DB
:100B400008002C340F34AE340F3496340F34103484
:100B500003346434033478340F347334043431345C
:100B60000F3436340F343B340F3440340F344534B3
:100B70000F344A340F344F340F348E340F34D3349F
:100B800004342000BD01F530BE00F030BF003F0846
:100B9000BB003E08BA0087319B2785312000BC008E
:100BA0003C08BD070130BE070030BF3DF0303F02BA
:100BB000FF3003193E02031CDE2DDF2DC72D3D083B
:100BC000080024008F01900104309100E1308D0075
:100BD000BA308C000D082000D00024000C08200042
:100BE000CF002E0010101A14F9302000BA000E3079
:100BF000BB008F3166278531153024008E00080038
:100C0000F5302000C400F030C5004508C10044089C
:100C1000C000C20185317D25863101302000C40726
:100C20000030C53DF1304502003003194402031C79
:100C30001A2E1B2E052E08008F31A62786318331F0
:100C4000AE2386318F31C02786318731D627863152
:100C50008631E526863186319E2686318731C82742
:100C600086318531E12586318731112786310800AB
:100C700020003A080139BC00BC0E16083C06EF39CA
:100C80003C0696003B08BD003A08BC00BD36BC0CD3
:100C90003C08BE00BE0EBE0D16083E06DF393E06FD
:100CA0009600080000308F319E2786315B2E53302E
:100CB000890B582E00008F317F278631003A0319A7
:100CC000622E632E572E8F31B727863120003B08C6
:100CD000BD003A08BC00080020003B08BD003A08EF
:100CE000BC00BD36BC0CBD36BC0C3C0827008D00DA
:100CF00020003A080339BC000530BC35FF3E031D17
:100D00007D2E3C3527008C0008002000200821049F
:100D100003198B2E8C2E982EFF30F0000330F1003B
:100D20008631FB2686310130F40074082000AF00C4
:100D30008F31002786312E009612080001302500E1
:100D4000900020308F0091019B308D008C012E008F
:100D500090109A14FA302000BA000E30BB008F3188
:100D60006C278631B13025008E0008007908860096
:100D70008701403FF000413FF1007908023E8600C4
:100D80008701010887318B2786310030F500F60096
:100D9000F7018731E3278631023008002E0010105A
:100DA00020005008F1004F08F00087316A27863193
:100DB00020004D084E040319DE2EDF2EE42E4E08CF
:100DC0008A004D080A008631080022008E018F013A
:100DD00090019101920193018D0121009E019B01DF
:100DE00094019501960197019A0199019801843027
:100DF00093009D0108007108F3007008F200F336BB
:100E0000F20CF336F20C720827008D0070080339DB
:100E1000F2000530F235FF3E031D0A2F72358C00BB
:100E20000800953020009F00F1309D009C012E00AD
:100E30008C129616F8302000BA000E30BB008F31AD
:100E4000602787310B3020009E0008000230F00040
:100E50000030F100790887318B2787310030F500A9
:100E6000F600F7018731E3278731023008000130AF
:100E7000F0000030F100790887318B27873100308E
:100E8000F500F600F7018731E327873102300800CB
:100E90000130F0000030F100790887318B2787316D
:100EA0000030F500F600F7018731E3278731043081
:100EB00008000230F0000030F100790887318B27FC
:100EC00087310030F500F600F7018731E3278731DD
:100ED0000430080024000E1D6E2F6F2F762F0E1089
:100EE00071088D0070088C000E147A2F71088D0027
:100EF00070088C000800FF302000C000F030C100F6
:100F00008531C12587312000C4004408C2008531E5
:100F10007D2587310800F3002100201D902F912F9F
:100F20009A2F7308F2007208A2007108A4007008DA
:100F3000A3002011080020003B0830009B00200087
:100F40003A0830009A001E171E14000000003000FE
:100F50001C0808002E00901020004B084C040319B8
:100F6000B22FB32FB82F4C088A004B080A008731E4
:100F700008002E008C12200049084A040319C12FD2
:100F8000C22FC72F4A088A0049080A008731080083
:100F90002E000C100B14F7302000BA000E30BB00EE
:100FA0008F315A2787312E00161408008030270011
:100FB0008E003E308D0040308C0024001F08F33935
:100FC00004389F0008007608F1007508F0007708E3
:100FD000F8007808F2000030853157258731080085
:100FE0002000510852040319F62FF72FFC2F520846
:100FF0008A0051080A0087310800033405341E3482
:101DEE000800080008000800080003300800013051
:101DFE00080020009E130800230091140800230001
:101E0E001115080023009115080023000C08080086
:101E1E002E000F1408002E000F1008002E008F1039
:101E2E00080020009E1708002300911211160800CA
:101E3E0023009116111608008F3115278F310800D7
:101E4E00F000700823008C00080021002010AA0169
:101E5E000E3008008F3103278F31013008008F318B
:101E6E0003278F31023008008F3103278F31013065
:101E7E0008008F3106278F31003008008F311B2765
:101E8E008F31053008008F311F278F310A3008003F
:101E9E008F311F278F31093008002E000C1087312B
:101EAE00F0278F31080020003B08D2003A08D100FD
:101EBE00080020003B08CA003A08C90008002000AC
:101ECE003B08CE003A08CD00080020003B08CC00AD
:101EDE003A08CB000800640080010131890B732F92
:101EEE0000342100A0118F3109278F3104300800F2
:101EFE0003102100131C03140030093D08002300B9
:101F0E00110E890C890C0139F000700C08008E310D
:101F1E00FB268F3121002010AA010E30080021006F
:101F2E00A01521358F3127278F310330080020006F
:101F3E00BA003A0821009E009317131408002F00D0
:101F4E0096019701980199019A019B0108002100C1
:101F5E00A0150314210D8F3127278F31053008006E
:101F6E0021000D082000BB0021000C082000BA0043
:101F7E000800623031008D008F0191010230930014
:101F8E009201080020009601FF30BA000330BB001A
:101F9E0086316C268F310800200096010030BA0081
:101FAE00BB0086316C268F3120009617080020006A
:101FBE0096010030BA00BB0086316C268F312000AE
:101FCE0096160800200096010030BA00BB0086313C
:101FDE006C268F312000161608000130F0007008B4
:101FEE00FD0764307D02031CFD2FFE2FFF2FFD0128
:021FFE000800D9
:020000040001F9
:0A000E00EC3FFF3F8E0FFF3FFF3F66
:00000001FF
