:020000040000FA
:1000000080315B28053008007E1480312E00161CDC
:100010000A280B2813280C1C0E280F2813288D31B2
:10002000142580315928961E162817281F288C1E43
:100030001A281B281F288D31F925803159280B1FBC
:100040002228232859281A1C262827282F28101C44
:100050002A282B282F288E31DC2680315928991CFC
:10006000322833283E288F1C362837283E28200087
:1000700035088A0034080A0080315928191C4128A3
:1000800042284D280F1C452846284D2820003308BB
:100090008A0032080A00803159289A1C50285128B9
:1000A0005928901C5428552859288E31082680310B
:1000B00059287E10090080315D28463084008D303B
:1000C0008500643086000030870007308D3132258E
:1000D0008031FD01203084000030850023308D31D7
:1000E0002C258031A03084000030850022308D31F5
:1000F0002C2580317E10200080317E288F31892789
:10010000803123302000C6000F30C7008D3190258C
:100110008031A9302000C6000630C7008D3120256F
:100120008031D9302000C6000630C7008D311A2535
:100130008031E2302000C6000C30C7008D3126250A
:10014000803196302000D7005708EA00C101C20173
:10015000B601B60AB7018131E521803100302000B7
:10016000C600C7008F313C2780312000B8013E0017
:1001700044168B170B17630000002E001A10200086
:100180003B08D70057082100C4002E001A14200095
:10019000690821004402031CCE28CF28BB282E006A
:1001A0001A102000BB012E001A1420003908031D6C
:1001B000DA28DB28C6298F315527803120004908ED
:1001C000A7004808A6002708D8002608D700580826
:1001D000D700D8015708A2005808A3002308C70079
:1001E0002208C6008F316F278031000000002100F7
:1001F000C501C50A00302000230203300319220282
:100200000318032904290C291A3037020318092975
:100210000A290C292100C5012100450820003605C6
:10022000D700D8015708A0005808A1006A08D700D5
:100230005708CA004208D8005808CB00CC01033048
:10024000D9005908CD004108863137268031200079
:100250003706031D2C292D294B296A08D70057087A
:10026000CA004208D8005808CB00CC010430D9009D
:100270005908CD0041088631372680312000DA0048
:10028000DB0123085B06031D472922085A060319D0
:100290004A294B298D292E001A1020004008D7002A
:1002A00057082100BD0020003F08D7005708210053
:1002B000BE0020003E08D70057082100BF002E00D6
:1002C0001A1420003708D70057082100C00020006A
:1002D0002208D70057082100C10020006A08D70073
:1002E0005708D0004230D8005808D100BD30D9009E
:1002F0005908D20041308531B0258031F9302000D5
:10030000CC00F030CD004108D7005708CE0087312F
:10031000862780318E313626803120002008210446
:10032000031993299429B62902303806031D992907
:100330009A29A6290130A4070030A53D2508C70049
:100340002408C6008F313C278031D2293808031D8C
:10035000AA29AB29C5292E0096168C31D3248031C9
:1003600002302000D7005708B800D22902303806E2
:10037000031DBB29BC29D2290030C600C7008F311C
:100380003C2780312000B801D229D2293903031D2E
:10039000CA29CB29D2292E00161082317D22803124
:1003A0002E00161404302000D7003D30890BD629CA
:1003B000D70BD62900320230200038060319E12974
:1003C000E229D528BB2880315B28F5302000C60003
:1003D000F030C7008E3117268131AB3A031DF12969
:1003E000F229462A8731CA2781312000D200FF3006
:1003F000C600F030C7008E3117268131200052062A
:10040000031D032A042A462AF630C600F030C7002E
:100410008E31172681312000D2005208C000F730FB
:10042000C600F030C7008E31172681312000D2007F
:100430005208BF00F830C600F030C7008E311726D2
:1004400081312000D2005208EA00F930C600F030B5
:10045000C7008E31172681312000D2005208C1001A
:10046000FA30C600F030C7008E31172681312000E7
:10047000D2005208E900FB30C600F030C7008E31D0
:10048000172681312000D2005208E8008F31A527BD
:100490008131F5302000CC00F030CD00AB30D200FF
:1004A0005208CE00873186278131F8302000CC00F9
:1004B000F030CD006A08D2005208CE00873186277E
:1004C0008131FA302000CC00F030CD006908D20034
:1004D0005208CE00873186278131FB302000CC00C6
:1004E000F030CD006808D2005208CE008731862750
:1004F00081318E313626813108002000D501D601A8
:100500007D08D4005408BD007D08D4005408BC0008
:10051000640A031D8F2A650A031D8F2A902A992ACF
:1005200055085604031D952A962A992A83316D236E
:10053000823120000D1A9D2A9E2AD92A8331C82390
:100540008231003A0319A52AA62AD42A01302000B4
:10055000D5070030D63DC12A8D31A3258231D42A5A
:100560008D3199258231D42A8D31AE258231D42A1C
:100570008D31B9258231D42AD501D601B901B8010E
:10058000D42A5608003A0319C62ABC2A5508013A4B
:100590000319AC2A033A0319B02A013A0319B42A01
:1005A000073A0319B82ABC2A7D082000D400540851
:1005B000BD008E1ADC2ADD2AF72A8431D02482314C
:1005C000003A0319E42AE52AF72A20005608E50034
:1005D0005508E4008F31E02782312000550356048E
:1005E000031DF32AF42AF72A83310A238231A63025
:1005F000890BF82A0032200039030319002B012B44
:10060000882AFF30E400FF30E500FF30E600FF30CD
:10061000E700080001302000D2000030D3000D1A9E
:10062000122B132B362B8331C8238331003A031945
:100630001A2B1B2B202B01302000D2070030D33D7A
:100640007D082000D1005108BD00362B8D31A32537
:100650008331492B8D3199258331492B8D31AE253D
:100660008331492B8D31B9258331492B5308003A09
:1006700003193B2B492B5208013A0319262B033A45
:1006800003192A2B013A03192E2B073A0319322B8F
:10069000492B20008E1A4D2B4E2B5E2B8431D024FB
:1006A0008331003A0319552B562B5E2B200053083B
:1006B000E7005208E6008531F7258331A630890B23
:1006C0005F2B003200302000530205300319520224
:1006D000031C6B2B6C2B0F2B08002000961721306E
:1006E0002000CA007630890B732BCA0B732B0000D5
:1006F0002000961321302000CA007630890B7E2B13
:10070000CA0B7E2B0000FF302000C6000330C7005C
:100710008F313C27833121302000CA007630890B8D
:100720008F2BCA0B8F2B000000302000C600C700A3
:100730008F313C27833121302000CA007630890B6D
:100740009F2BCA0B9F2B0000200096162130200003
:10075000CA007630890BAA2BCA0BAA2B00002000F6
:10076000961221302000CA007630890BB52BCA0BB7
:10077000B52B00002000161621302000CA0076306C
:10078000890BC02BCA0BC02B0000200016120800DA
:100790002E001A107D082000C600C7014708C900B6
:1007A0003D084602C800031CC903C91FD82BD92B1A
:1007B000FF2B7D08C600C7014708C9003D08460257
:1007C000C800031CC90348082C3ECA000130493D3B
:1007D000CB004B08803ACC0080304C02031DF22B3A
:1007E00003304A02031CF52BF62BFF2B7D0820005B
:1007F000C6004608BD002E001A140130212C7D08C9
:100800002000C600C7014708C9003D084602C800CD
:10081000031CC9034908803ACA0080304A02031DFC
:10082000132C023048020318162C172C192C0030F8
:10083000212C7D082000C6004608BD002E001A1499
:10084000013008002E001A107D08F000F101710837
:10085000F30020003D087002F200031CF303F31FB5
:10086000322C332C592C7D08F000F1017108F30073
:100870003D087002F200031CF30372082C3EF400E2
:100880000130733DF5007508803AF600803076023D
:10089000031D4C2C03307402031C4F2C502C592C7C
:1008A0007D08F00070082000BD002E001A140130F1
:1008B0007B2C7D08F000F1017108F30020003D0859
:1008C0007002F200031CF3037308803AF4008030D6
:1008D0007402031D6D2C023072020318702C712CEF
:1008E000732C00307B2C7D08F00070082000BD00C8
:1008F0002E001A14013008008D314D258431031C5F
:10090000822C832CB32C902C8C31F1248431CF2C6D
:100910008C31F6248431CF2C8D3100258431CF2CBD
:1009200021003A08FA007A08F9001130A03E86004A
:100930008701413F8A00403F0A008431FB00FC01EF
:100940007C08003A0319A52C8C2C7B08013A03196A
:100950008C2C033A0319842C013A0319882C073A8A
:1009600003198C2C8C2C2100A0110230A03E860093
:100970008701403F84008501810A00088C31E7240B
:10098000843101302100A3020030A43B2308240459
:10099000031DCB2CCC2CCE2C0630CF2C03300800E2
:1009A0007D082000C600C7014708C9003C08460270
:1009B000C800031CC903C91FDE2CDF2C032D7D08D2
:1009C000C600C7014708C9003C084602C800031C0E
:1009D000C90348082C3ECA000130493DCB004B08F2
:1009E000803ACC0080304C02031DF82C03304A02C0
:1009F000031CFB2CFC2C032D7D082000C6004608A0
:100A0000BC0001301C2D7D082000C600C70147082E
:100A1000C9003C084602C800031CC9034908803AC3
:100A2000CA0080304A02031D172D02304802031805
:100A30001A2D1B2DFC2C003008008C31C724853169
:100A4000FA0021002208860087017A08810001301F
:100A5000FA007A08A2070130A3020030A43B230861
:100A600024040319342D352D3A2D8C31D6248531AB
:100A70000530662D2015442D8D310F258531662DCD
:100A80008D310A258531662D3708FA007A08F9007C
:100A90000B30A03E86008701413F8A00403F0A009C
:100AA0008531FB00FC017C08003A0319582D402DCC
:100AB0007B08013A0319402D033A03193C2D013AF2
:100AC00003193C2D073A0319402D402D0800200042
:100AD0009A019901960197019801073095000F300E
:100AE0009100FF309200FF309300FF309400FF3000
:100AF0003E00D900C730CE00EF30C3000730E4001D
:100B0000FF30B800DA01E501C401B901CF01E60107
:100B1000BA01C501D001DB01FF30BB00FF30C600C8
:100B2000FF30D100FF30DC000730E700FF30BC00B1
:100B3000FF30C700FF30D200FF30DD000730E80093
:100B40000C303D0090001330C50014303E00A3006F
:100B50001530A4000E30960014303D00C600080089
:100B60002000D6005108860087010108031DB92D19
:100B7000BA2DBF2D5108860087018101810AD50158
:100B800056088600870150080102031CC82DC92D94
:100B9000CD2D560886008701810156088600870101
:100BA0000108003ECC00F0300318F130CD005508AC
:100BB0005207D3005308860087010108D400540867
:100BC000CE0087318627853101302000D3005608BA
:100BD00086008701530881070130D3005308D507E9
:100BE00005305502031CF52DF62DC02D08000A30E6
:100BF0002000CD000030CE00CF01D0010030C60073
:100C0000C7008F313C2785312F2E8E1A082E092ED2
:100C10001D2E8431D0248531003A0319102E112E57
:100C20001D2E64302000CD070030CE3D4E08C70099
:100C30004D08C6008F313C27853120000D1A212E2A
:100C4000222E2F2E8331C8238531003A0319292EF5
:100C50002A2E2F2E01302000CF000030D00020009F
:100C60004F0850040319352E362E052E080020009B
:100C7000D1004C084A02031C3E2E3F2E692E4B0821
:100C80000319432E442E692E0530CE004E08C600AF
:100C90004C088731EA27863120004D07CF004F08E6
:100CA000D20052085102031C562E572E5E2E5108B8
:100CB0005207FB3ECE004E08D0006B2E5103FF3A88
:100CC000CE0052084E024A07053ECF004F08D00022
:100CD0006B2E0030752E5008003EC600F030031811
:100CE000F130C7008E31172686310800210020150B
:100CF000862E8C31FB248631A82E8C31CA24863175
:100D00000330A82E8D3100258631A82E3708FA0031
:100D10007A08F9000B30A03E86008701413F8A0027
:100D2000403F0A008631FB00FC017C08003A0319B1
:100D30009A2E822E7B08013A0319822E033A031958
:100D4000792E013A0319792E073A03197D2E822E46
:100D5000080020003908031DAE2EAF2EBA2E031056
:100D6000961F03140318B52EB82E20009617BA2E1E
:100D7000200096130130F0007008BB070130F0002E
:100D80007008BE073C303E02031CC72EC82ED82E6A
:100D90000130F0007008BF07BE013C303F02031C69
:100DA000D22ED32ED82E0130F0007008C007BF011C
:100DB0000800843122248631003A0319E02EE12E06
:100DC000062F20003803031DE62EE72EF52EB8016E
:100DD00016130030F000F1008E31B02686317D0808
:100DE000F70077082000BD00022F0D1AF82EF92E0B
:100DF000022F3908031DFD2EFE2E022F0130F700B1
:100E00007708B9007D08F7007708BD0008008C312D
:100E1000CD2487312100A01D0E2F0F2F1C2F8D31C7
:100E20004D258731031C152F162F1C2F0F30200046
:100E3000C30043082100A900210029082000C300A5
:100E4000C401C335C40DAA30430784008730443D34
:100E50008500013F8A00003F0A0087312000C5005D
:100E600045082100A90008002100A0110230FA0065
:100E70007A08AA00432F8C31FB2487315F2F8D31F4
:100E8000002587315F2F3908FA007A08F9000F3002
:100E9000A03E86008701413F8A00403F0A0087311B
:100EA000FB00FC017C08003A0319572F3F2F7B08F9
:100EB000023A03193B2F013A03193B2F3F2F080039
:100EC000F400700871040319662F672F782F7435AA
:100ED000AB3E860087017008C03F7108C13F7208B1
:100EE000F3007408B73E8600870173088100852FE0
:100EF0007435AB3E86008701B930C03F0C30C13F2E
:100F00007408B73E860087018101080000308B1B02
:100F100001302000CF004D0830009B0020004C081D
:100F200030009A0020004E0830009C001E171E154D
:100F30008B1355309F00AA309F009E149E18A12F3E
:100F4000A22F9E2F1E1120004F0C031C8B13031881
:100F50008B170800EC340C3475340D345D340D34CB
:100F60007C3404341D34053438340D34763406347E
:100F7000F1340C34F6340C34FB340C3400340D34BE
:100F800005340D340A340D340F340D3455340D341A
:100F9000343407342000C901F530CA00F030CB00EA
:100FA0004B08C7004A08C6008E311726873120003B
:100FB000C8004808C9070130CA070030CB3DF030EF
:100FC0004B02FF3003194A02031CE72FE82FD02FF2
:100FD000490808002000C900C801491CF02FF12F62
:100FE000F52F4608C7004708C8070310C60D0310B1
:100FF000C90C4908031DFD2FFE2FED2F48080800DE
:1019640008000800080008000800033008000130DF
:10197400080020009E13080023009114080023008F
:101984001115080023009115080023000C08080015
:101994002E000F1408002E000F1008002E008F10C8
:1019A400080020009E170800230091121116080059
:1019B40023009116111608008C31D0248C310800B4
:1019C4000130F0007008FD070800F00070082300E3
:1019D4008C00080021002010AA010E3008008C3170
:1019E400BE248C31013008008C31BE248C3102308D
:1019F40008008C31BE248C31013008008C31C124A4
:101A04008D31003008008C31D6248D31053008002A
:101A14008C31DA248D310A3008008C31DA248D318E
:101A2400093008002E000C108D31C4258D310800BA
:101A340020004708E3004608E200080020004708A9
:101A4400DF004608DE00080020004708DD004608E5
:101A5400DC000800640080010131890B2D2D003465
:101A6400FE0012001E00FE0B332D00342100A011D5
:101A74008C31C4248D310430080003102100131C60
:101A840003140030093D0800FF34FF34FF34FF34F1
:101A9400033405341E342300110E890C890C0139DA
:101AA400F000700C08008C31B6248D312100201018
:101AB400AA010E3008002100A01521358C31E7243D
:101AC4008D31033008002000C600460821009E0026
:101AD4009317131408002F00960197019801990198
:101AE4009A019B0108002100A0150314210D8C31DB
:101AF400E7248D310530080021000D082000C700BF
:101B040021000C082000C6000800623031008D005E
:101B14008F019101023093009201080020004708D0
:101B24002100C700200046082100C600080020004C
:101B34009601FF30C6000330C7008F313C278D313A
:101B44000800200096010030C600C7008F313C27F2
:101B54008D31200096170800200096010030C60041
:101B6400C7008F313C278D312000961608002000D5
:101B740096010030C600C7008F313C278D3120000C
:101B8400161608002000620863040319CA2DCB2D21
:101B9400D02D63088A0062080A008D310800760897
:101BA400F1007508F0007708F8007808F2000030BA
:101BB400873160278D310800803027008E003E3049
:101BC4008D0040308C0024001F08F33904389F0036
:101BD40008002E000C100B14B2302000C6000C308C
:101BE400C7008D311A258D312E00161408002E00E1
:101BF4008C122100460847040319012E022E072ED9
:101C040047088A0046080A008E3108002E0090100A
:101C140020005C085D040319102E112E162E5D0899
:101C24008A005C080A008E31080020004708300052
:101C34009B002000460830009A001E171E14000066
:101C4400000030001C080800F3002100201D2B2E8A
:101C54002C2E352E7308F2007208A2007108A4001D
:101C64007008A30020110800FF302000CC00F030E1
:101C7400CD008731CA278E312000D0005008CE0015
:101C8400873186278E31080024000E1D4A2E4B2EE4
:101C9400522E0E1071088D0070088C000E14562EF2
:101CA40071088D0070088C0008000230F0000030CC
:101CB400F10079088E3126268E310030F500F600C9
:101CC400F7018D31D1258E31043008000130F00048
:101CD4000030F10079088E3126268E310030F5006F
:101CE400F600F7018D31D1258E3104300800013022
:101CF400F0000030F10079088E3126268E31003054
:101D0400F500F600F7018D31D1258E31023008003F
:101D14000230F0000030F10079088E3126268E3131
:101D24000030F500F600F7018D31D1258E310230F7
:101D34000800953020009F00F1309D009C012E008A
:101D44008C129616B3302000C6000C30C7008D31BB
:101D540090258E310B3020009E0008007108F3009E
:101D64007008F200F336F20CF336F20C7208270016
:101D74008D0070080339F2000530F235FF3E031D73
:101D8400BF2E72358C00080022008E018F01900155
:101D94009101920193018D0121009E019B01940107
:101DA4009501960197019A01990198018430930055
:101DB4009D0108002E00101020006108F100600849
:101DC400F0008E3146268E3120005E085F04031930
:101DD400EC2EED2EF22E5F088A005E080A008E318A
:101DE4000800790886008701403FF000413FF10078
:101DF4007908023E8600870101088E3126268E313D
:101E04000030F500F600F7018D31D1258E31023016
:101E1400080001302500900020308F0091019B3094
:101E24008D008C012E0090109A14B5302000C6004D
:101E34000C30C7008D3126258F31B13025008E003E
:101E440008002000200821040319292F2A2F362FE7
:101E5400FF30F0000330F1008E31B0268F310130B5
:101E6400F40074082000B8008C31BB248F312E009C
:101E74009612080020004708C9004608C800C93661
:101E8400C80CC936C80C480827008D002000460835
:101E94000339C8000530C835FF3E031D4D2F4835B2
:101EA40027008C00080000308D3165258F315E2FAE
:101EB4005330890B5B2F00008D313F258F31003A61
:101EC4000319652F662F5A2F8D317E258F312000FF
:101ED4004708C9004608C800080020004608013920
:101EE400C800C80E16084806EF3948069600470889
:101EF400C9004608C800C936C80C4808CA00CA0E3A
:101F0400CA0D16084A06DF394A06960008008D31C4
:101F14006D258F31853167258F318D3187258F313F
:101F24008D31DE258F318E31C6268F318F310B27CF
:101F34008F318F31C1278F318D31EB258F318E3128
:101F44009B268F310800F5302000D000F030D100FE
:101F54005108CD005008CC00CE01873186278F313F
:101F640001302000D0070030D13DF1305102003063
:101F740003195002031CBF2FC02FAA2F08002400EE
:101F84008F01900104309100E1308D00BA308C0053
:101F94000D082000E10024000C082000E0002E00C1
:101FA40010101A14B4302000C6000C30C7008D3154
:101FB40020258F31153024008E000800FF302000CA
:101FC400C6000330C7008F313C278F31200016161E
:101FD400A3302000CA005530890BEE2FCA0BEE2F18
:101FE40020009616A3302000CA005530890BF82F24
:0C1FF400CA0BF82F2000161296120800ED
:020000040001F9
:0A000E00EC3FFF3F8E0FFF3FFF3F66
:00000001FF
