:020000040000FA
:1000000080315B28053008007E1480312E00161CDC
:100010000A280B2813280C1C0E280F2813288E31B1
:10002000862680315928961E162817281F288C1ED0
:100030001A281B281F288F316F27803159280B1F42
:10004000222823285928991C2628272832288F1C43
:100050002A282B28322820002D088A002C080A0084
:1000600080315928191C3528362841280F1C392879
:100070003A28412820002B088A002A080A008031EB
:1000800059281A1C442845284D28101C482849285E
:100090004D2887319127803159289A1C50285128A2
:1000A0005928901C5428552859288F317E27803193
:1000B00059287E10090080315D28B83084008E30C8
:1000C0008500573086000030870007308731FA27D7
:1000D0008031FD01203084000030850017308E31E2
:1000E000A4268031A0308400003085001D308E3180
:1000F000A42680317E10200080317E288631DF26C4
:10010000803148302000BA000730BB008E31922683
:10011000803199302000BA000530BB008E3198261E
:100120008031F2302000BA000530BB008E318C26C1
:1001300080313A302000BA000F30BB008E319E264D
:1001400080318131D521803100302000BA00BB00E0
:1001500087312F2780312000AF013E0044168B17D6
:100160000B177D08031DB528B6281A2987311527D6
:10017000803120003D08A7003C08A6002708CC00DD
:100180002608CB004C08CB00CC014B08A2004C0841
:10019000A3002308BB002208BA008631FB26803169
:1001A0000030200023020330031922020318D9284B
:1001B000DB280130DC280030CB00CC014B08A0004C
:1001C0004C08A100200821040319E728E8280A297F
:1001D00002302F06031DED28EE28FA280130A4076F
:1001E0000030A53D2508BB002408BA0087312F2721
:1001F000803126292F08031DFE28FF2819292E00EB
:1002000096168E314A26803102302000CB004B08F2
:10021000AF00262902302F06031D0F291029262999
:100220000030BA00BB0087312F2780312000AF019A
:10023000262926297D03031D1E291F2926292E0074
:10024000161081312D2180312E0016145330890B68
:1002500027290000B12880315B282000C901CA018C
:100260003308C8004808B2003308C8004808B10085
:100270002000570A031D4029580A031D402941291F
:100280004A2949084A04031D462947294A29823137
:10029000D022813120000D1A4E294F298A2983311D
:1002A000CC238131003A0319562957298529013079
:1002B0002000C9070030CA3D72298F310C278131D7
:1002C00085298F310227813185298F311727813187
:1002D00085298F31222781318529C901CA01FD0174
:1002E000AF0185294A08003A031977296D29490881
:1002F000013A03195D29033A03196129013A0319E7
:100300006529073A031969296D2920003308C800B7
:100310004808B2008E1A8D298E29C22983317F2385
:100320008131003A031995299629C22920004A08EB
:10033000D8004908D700FF30BA000330BB0087312E
:100340002F27813120001616A3302000C800553019
:10035000890BA829C80BA82920009616A3302000D5
:10036000C8005530890BB229C80BB22920001612DB
:10037000961249034A04031DBE29BF29C2298231AE
:100380006D228131A630890BC32900327D03031908
:10039000CA29CB293829FF302000D700FF30D800E8
:1003A000FF30D900FF30DA000800F5302000BA0035
:1003B000F030BB008F318D278131AB3A031DE1292D
:1003C000E229362A8631842681312000C600FF309A
:1003D000BA00F030BB008F318D27813120004606F6
:1003E000031DF329F429362AF630BA00F030BB0099
:1003F0008F318D2781312000C6004608B600F730C6
:10040000BA00F030BB008F318D2781312000C6004B
:100410004608B500F830BA00F030BB008F318D27A8
:1004200081312000C6004608DD00F930BA00F03006
:10043000BB008F318D2781312000C6004608AE00F9
:10044000FA30BA00F030BB008F318D2781312000A7
:10045000C6004608DC00FB30BA00F030BB008F312C
:100460008D2781312000C6004608DB008631C32677
:100470008131F5302000C000F030C100AB30C60043
:100480004608C200863140268131F8302000C00085
:10049000F030C1005D08C6004608C2008631402623
:1004A0008131FA302000C000F030C1005C08C60085
:1004B0004608C200863140268131FB302000C00052
:1004C000F030C1005B08C6004608C20086314026F5
:1004D00081318F31AC278131080001302000C60006
:1004E0000030C7000D1A752A762A992A8331CC2349
:1004F0008231003A03197D2A7E2A832A01302000A6
:10050000C6070030C73D20003308C5004508B200CB
:10051000992A8F310C278231AC2A8F310227823100
:10052000AC2A8F3117278231AC2A8F3122278231B2
:10053000AC2A4708003A03199E2AAC2A4608013A19
:100540000319892A033A03198D2A013A0319912ABA
:10055000073A0319952AAC2A20008E1AB02AB12A2C
:10056000C12A83317F238231003A0319B82AB92A7C
:10057000C12A20004708DA004608D9008431F9244E
:100580008231A630890BC22A003200302000470297
:10059000053003194602031CCE2ACF2A722A08000E
:1005A0002000961721302000BE007630890BD62A15
:1005B000BE0BD62A00002000961321302000BE007A
:1005C0007630890BE12ABE0BE12A0000FF302000C3
:1005D000BA000330BB0087312F2782312130200041
:1005E000BE007630890BF22ABE0BF22A00000030E2
:1005F0002000BA00BB0087312F2782312130200034
:10060000BE007630890B022BBE0B022B00002000AF
:10061000961621302000BE007630890B0D2BBE0BC4
:100620000D2B00002000961221302000BE007630F5
:10063000890B182BBE0B182B00002000161621303A
:100640002000BE007630890B232BBE0B232B00002D
:100650002000161208008E31BF268331031C312B77
:10066000322B622B3F2B8E31632683317E2B8E31D2
:10067000682683317E2B8E31722683317E2B2100BA
:100680003A08FA007A08F9001130A03E8600870186
:10069000413F8A00403F0A008331FB00FC017C0897
:1006A000003A0319542B3B2B7B08013A03193B2BCF
:1006B000033A0319332B013A0319372B073A03196D
:1006C0003B2B3B2B2100A0110230A03E860087016E
:1006D000403F84008501810A00088E31592683310C
:1006E00001302100A3020030A43B23082404031D91
:1006F0007A2B7B2B7D2B06307E2B033008002000CD
:100700003308BA00BB013B08BD0031083A02BC0007
:10071000031CBD03BD1F8D2B8E2BB22B3308BA00DB
:10072000BB013B08BD0031083A02BC00031CBD03FD
:100730003C08C83EBE0000303D3DBF003F08803A47
:10074000C00080304002031DA72B0B303E02031C6B
:10075000AA2BAB2BB22B20003308BA003A08B10009
:100760000130CB2B20003308BA00BB013B08BD0091
:1007700031083A02BC00031CBD033D08803ABE00AC
:1007800080303E02031DC62B0A303C020318C92BE1
:10079000CA2BAB2B0030080020003308BA00BB0185
:1007A0003B08BD0032083A02BC00031CBD03BD1F5C
:1007B000DA2BDB2BFF2B3308BA00BB013B08BD0053
:1007C00032083A02BC00031CBD033C08C83EBE0010
:1007D00000303D3DBF003F08803AC00080304002FD
:1007E000031DF42B0B303E02031CF72BF82BFF2BC1
:1007F00020003308BA003A08B2000130182C20005B
:100800003308BA00BB013B08BD0032083A02BC0005
:10081000031CBD033D08803ABE0080303E02031D2C
:10082000132C0A303C020318162C172CF82B00301E
:10083000080020003308F000F1017108F3003208CD
:100840007002F200031CF303F31F272C282C4C2CFE
:100850003308F000F1017108F30032087002F20071
:10086000031CF3037208C83EF4000030733DF5002A
:100870007508803AF60080307602031D412C0B305B
:100880007402031C442C452C4C2C20003308F0002F
:100890007008B2000130652C20003308F000F1012F
:1008A0007108F30032087002F200031CF3037308AE
:1008B000803AF40080307402031D602C0A3072020A
:1008C0000318632C642C452C003008008E313E2622
:1008D0008431FA0021002208860087017A0881000D
:1008E0000130FA007A08A2070130A3020030A43BCD
:1008F0002308240403197D2C7E2C832C8E314D2655
:1009000084310530AF2C20158D2C8E318126843119
:10091000AF2C8E317C268431AF2C3708FA007A0850
:10092000F9000B30A03E86008701413F8A00403F1E
:100930000A008431FB00FC017C08003A0319A12C59
:10094000892C7B08013A0319892C033A0319852C59
:10095000013A0319852C073A0319892C892C0800C0
:1009600020009A019901960197019801073095009E
:100970000F309100FF309200FF309300FF30940061
:10098000FF303E00D900C730CE00EF30C300073043
:10099000E400FF30B800DA01E501C401B901CF017C
:1009A000E601BA01C501D001DB01FF30BB00FF3019
:1009B000C600FF30D100FF30DC000730E700FF3019
:1009C000BC00FF30C700FF30D200FF30DD00073031
:1009D000E8000C303D0090001330C50014303E009C
:1009E000A3001530A4000E30960014303D00C60060
:1009F00008000A302000C1000030C200C301C40159
:100A00000030BA00BB0087312F278431312D8E1A78
:100A10000A2D0B2D1F2D83317F238431003A0319BA
:100A2000122D132D1F2D64302000C1070030C23D50
:100A30004208BB004108BA0087312F2784312000CB
:100A40000D1A232D242D312D8331CC238431003AEE
:100A500003192B2D2C2D312D01302000C300003027
:100A6000C4002000430844040319372D382D072DF6
:100A7000080021002015492D8E316D2685316B2D02
:100A80008E314126853103306B2D8E3172268531B2
:100A90006B2D3708FA007A08F9000B30A03E86006B
:100AA0008701413F8A00403F0A008531FB00FC017D
:100AB0007C08003A03195D2D452D7B08013A031986
:100AC000452D033A03193C2D013A03193C2D073AF1
:100AD0000319402D452D08008E3144268531210013
:100AE000A01D732D742D812D8E31BF268531031CE1
:100AF0007A2D7B2D812D0F302000B7003708210083
:100B0000A900210029082000B700B801B735B80DA9
:100B10006430370784008630383D8500013F8A0005
:100B2000003F0A0085312000B90039082100A900E2
:100B300008007D08031D9D2D9E2DAA2D0310200069
:100B4000961F03140318A52DA82D20009617AA2D73
:100B5000200096130130F00070082000B4073C30EC
:100B60003402031CB42DB52DC52D0130F0007008E2
:100B7000B507B4013C303502031CBF2DC02DC52D77
:100B80000130F0007008B607B50108002100A0117F
:100B90000230FA007A08AA00D52D8E316D268531F3
:100BA000F12D8E3172268531F12D3908FA007A083F
:100BB000F9000F30A03E86008701413F8A00403F88
:100BC0000A008531FB00FC017C08003A0319E92D7D
:100BD000D12D7B08023A0319CD2D013A0319CD2DF1
:100BE000D12D0800843119248531003A0319F92DDB
:100BF000FA2D192E20002F03031DFF2D002E092E84
:100C0000AF0116130030F000F1008731BE278531A7
:100C1000192E0D1A0C2E0D2E192E7D08031D112EC6
:100C2000122E192E0130F7007708FD002E00161045
:100C3000192E0800F400700871040319202E212ECB
:100C4000322E7435AB3E860087017008C03F7108B4
:100C5000C13F7208F3007408B73E8600870173082D
:100C600081003F2E7435AB3E860087013030C03F97
:100C70000E30C13F7408B73E86008701810108002D
:100C800000308B1B01302000C300410830009B0066
:100C90002000400830009A002000420830009C00EC
:100CA0001E171E158B1355309F00AA309F009E14EF
:100CB0009E185B2E5C2E582E1E112000430C031C28
:100CC0008B1303188B1708005E340E34E7340E3490
:100CD000CF340E342B34033466340434AA340E3447
:100CE0003934053463340E3468340E346D340E34C4
:100CF00072340E3477340E347C340E3481340E3436
:100D0000C7340E34C63405342000BD01F530BE00B2
:100D1000F030BF003F08BB003E08BA008F318D277E
:100D200086312000BC003C08BD070130BE07003002
:100D3000BF3DF0303F02FF3003193E02031CA12EDD
:100D4000A22E8A2E3D08080024008F019001043055
:100D50009100E1308D00BA308C000D082000D400E5
:100D600024000C082000D3002E0010101A142B3081
:100D70002000BA000E30BB008E3198268631153027
:100D800024008E000800F5302000C400F030C500BB
:100D90004508C1004408C000C201863140268631A2
:100DA00001302000C4070030C53DF130450200305D
:100DB00003194402031CDD2EDE2EC82E08008E31DE
:100DC000DF2686318431B02486318E31F926863192
:100DD0008F31542786318731A827863187316127A3
:100DE00086318F31612786318631A426863187315D
:100DF000D4278631080020003A080139BC00BC0E17
:100E000016083C06EF393C0696003B08BD003A0840
:100E1000BC00BD36BC0C3C08BE00BE0EBE0D1608A4
:100E20003E06DF393E069600080000308E31D72698
:100E300087311E2F5330890B1B2F00008E31B126B6
:100E40008731003A0319252F262F1A2F8E31F026CD
:100E5000873120003B08BD003A08BC000800200094
:100E60003B08BD003A08BC00BD36BC0CBD36BC0C0E
:100E70003C0827008D0020003A080339BC000530EB
:100E8000BC35FF3E031D402F3C3527008C00080079
:100E900020002008210403194E2F4F2F5B2FFF3015
:100EA000F0000330F1008731BE2787310130F400B4
:100EB00074082000AF008E31322687312E00961242
:100EC000080001302500900020308F0091019B30F8
:100ED0008D008C012E0090109A142C302000BA0046
:100EE0000E30BB008E319E268731B13025008E003A
:100EF0000800790886008701403FF000413FF1007B
:100F00007908023E8600870101088F319C278731CE
:100F10000030F500F600F7018F31472787310230A6
:100F200008002E00101020005408F1005308F000B3
:100F30008F31BC2787312000510852040319A12F9B
:100F4000A22FA72F52088A0051080A0087310800F3
:100F500022008E018F0190019101920193018D0178
:100F600021009E019B0194019501960197019A0130
:100F700099019801843093009D0108007108F300E5
:100F80007008F200F336F20CF336F20C7208270008
:100F90008D0070080339F2000530F235FF3E031D65
:100FA000CD2F72358C000800953020009F00F13065
:100FB0009D009C012E008C1296162A302000BA004B
:100FC0000E30BB008E31922687310B3020009E0000
:100FD00008000230F0000030F10079088F319C27C2
:100FE00087310030F500F600F7018F314727873150
:100FF00002300800FE0012001E00FE0BFB2F003422
:101C520008000800080008000800033008000130EE
:101C6200080020009E13080023009114080023009E
:101C72001115080023009115080023000C08080024
:101C82002E000F1408002E000F1008002E008F10D7
:101C9200080020009E170800230091121116080068
:101CA20023009116111608008E3147268E31080046
:101CB200F000700823008C00080021002010AA0107
:101CC2000E3008008E3135268E31013008008E31FB
:101CD20035268E31023008008E3135268E310130A4
:101CE20008008E3138268E31003008008E314D26A4
:101CF2008E31053008008E3151268E310A300800AF
:101D02008E3151268E31093008002E000C108F3191
:101D12002D278E31080020003B08D6003A08D50056
:101D2200080020003B08CE003A08CD000800200041
:101D32003B08D2003A08D100080020003B08D0003E
:101D42003A08CF000800640080010131890BA52EFA
:101D520000342100A0118E313B268E310430080060
:101D620003102100131C03140030093D0800FF3446
:101D7200FF34FF34FF34033405341E342300110EC4
:101D8200890C890C0139F000700C08008E312D2667
:101D92008E3121002010AA010E3008002100A0156A
:101DA20021358E3159268E31033008002000BA00C9
:101DB2003A0821009E009317131408002F00960181
:101DC2009701980199019A019B0108002100A01531
:101DD2000314210D8E3159268E3105300800210061
:101DE2000D082000BB0021000C082000BA000800EA
:101DF200623031008D008F01910102309300920117
:101E0200080020009601FF30BA000330BB00873182
:101E12002F278F310800200096010030BA00BB0046
:101E220087312F278F312000961708002000960156
:101E32000030BA00BB0087312F278F312000961661
:101E42000800200096010030BA00BB0087312F271E
:101E52008F31200016160800200055085604031979
:101E6200332F342F392F56088A0055080A008F3134
:101E720008000130F00070082000B307C9303302B7
:101E8200031C442F452F462FB30108007608F100AA
:101E92007508F0007708F8007808F2000030863103
:101EA2001A268F310800803027008E003E308D00C8
:101EB20040308C0024001F08F33904389F000800CA
:101EC2002E000C100B1429302000BA000E30BB007B
:101ED2008E318C268F312E00161408002E008C12A3
:101EE20020004D084E040319772F782F7D2F4E08BE
:101EF2008A004D080A008F3108002E009010200041
:101F02004F0850040319862F872F8C2F50088A0000
:101F12004F080A008F31080020003B0830009B0068
:101F220020003A0830009A001E171E14000000001C
:101F320030001C080800F3002100201DA12FA22F51
:101F4200AB2F7308F2007208A2007108A400700897
:101F5200A30020110800FF302000C000F030C100B3
:101F6200863184268F312000C4004408C2008631A5
:101F720040268F31080024000E1DC02FC12FC82F0C
:101F82000E1071088D0070088C000E14CC2F710891
:101F92008D0070088C0008000230F0000030F10063
:101FA20079088F319C278F310030F500F600F70158
:101FB2008F3147278F31043008000130F0000030A4
:101FC200F10079088F319C278F310030F500F6003F
:101FD200F7018F3147278F31043008000130F000BC
:101FE2000030F10079088F319C278F310030F500E5
:0E1FF200F600F7018F3147278F3102300800CB
:020000040001F9
:0A000E00EC3FFF3F8E0FFF3FFF3F66
:00000001FF
