:020000040000FA
:0400000080312B28F8
:100008007E1480310B1F09280A2829282E00191E62
:100018000E280F281A280F1E122813281A28200025
:1000280041088A0040080A0080312928991E1D28A5
:100038001E2829288F1E21282228292820003F0829
:100048008A003E080A00803129287E100900803184
:100058002D28F701F801F901FA01FB01FC01203014
:10006800840000308500183082310D2280317E10E6
:1000780020008131C62920009A0199019601970133
:100088009801073095007F309100FF309200BF3013
:100098009300FF309400FF303E00D9007F30CE003F
:1000A800FF30C3000730E400FF30B800DA01E50193
:1000B800C401B901CF01E601BA01C501D001DB01D4
:1000C800FF30BB00FF30C600FF30D100FF30DC003E
:1000D8000730E700FF30BC00FF30C700FF30D20018
:1000E800FF30DD000730E80017303D00CB0010304E
:1000F8003E00A60008002E009912BE30F100003024
:10010800F2008231192280312E0019127130F1006B
:100118000130F2008231132280310A3022009F0020
:1001280090309D0024309E0019309B009C013F3088
:10013800F1000230F2008231252280313530F100A1
:100148000230F20082311F2280313930F100023052
:10015800F20082312B228031F701FC01FB010830CB
:10016800F30073082000C200FA01F901F8012E001B
:10017800991608007A08203E86008701810122002E
:100188001D1DC728C828D3287A08203E8600870165
:10019800811420003D088A003C080A0080312200B2
:1001A8009D1CD728D828E3287A08203E8600870196
:1001B800011520003B088A003A080A0080317A08B5
:1001C800203E8600870101080319EB28EC28F32854
:1001D800200039088A0038080A008031F628813161
:1001E800AD2180310800F200200042080319FD28E3
:1001F800FE28F8282E00191A02290329072972084F
:1002080022009A001E2919127208F1007C08303E5B
:1002180086008701710881000130F1007108FC0730
:1002280008307C02031C19291A291B29FC010130FA
:100238002000C2022E00191608008131FD218131EB
:10024800003A0319282929294129780803192D2951
:100258002E29422981314A218131F3007308F500A2
:1002680082313D228131F3007308F400F41C3D29EA
:100278003E294229200096174229F501A630890B0C
:1002880043290032200096137508080078080319DE
:100298004E294F294A297908203E860087010108FE
:1002A800F1007108F7007908283E860087010108E7
:1002B800F1007108F2000130F1007108F907083007
:1002C8007902031C682969296A29F9012E00991203
:1002D8000130F8029916720808000830200042021E
:1002E80003187729782990297B08303E86008701F2
:1002F800010822009A000130F0007008FB0708305E
:100308007B02031C882989298A29FB010130F00016
:1003180070082000C20792292E0019120800F30065
:100328008131EB218131003A03199B299C29A229AB
:100338002000961773088031F720813182313122ED
:100348008131003A0319A929AA29AC29200096135A
:10035800080022001908F0007A08283E8600870164
:10036800700881000130F0007008FA0708307A023E
:10037800031CBF29C029C129FA010130F000700807
:10038800F80708008131DE2181318B170B17813185
:1003980021218131F60076082000C30043080319A3
:1003A800D629D729CB294308813193218131CB29FB
:1003B80080312B2882310522813180313F208131E3
:1003C8008131F421813180317F2081310800200082
:1003D8004208031DF029F2290130F32900300800F2
:1003E800623031008D008F0191010230930092013B
:1003F80008007808031D012A032A0130042A003066
:1004080008002F0096019701980199019A019B0114
:100418000800640080010131890B0E2A003472083B
:100428002000C1007108C000080072082000BF0049
:100438007108BE00080072082000BB007108BA00ED
:10044800080072082000BD007108BC00080072088E
:100458002000B9007108B800080022001E0C0139FC
:10046800080022001D121D1608008131AD218231BD
:080478000800770808000800E5
:020000040001F9
:0A000E00EC3FFF3F9F3FFF3FFF3F25
:00000001FF
